{
  "contractName": "JanusNameService",
  "abi": [
    {
      "constant": true,
      "inputs": [
        {
          "internalType": "string",
          "name": "",
          "type": "string"
        }
      ],
      "name": "domainsStorageHash",
      "outputs": [
        {
          "internalType": "uint256",
          "name": "",
          "type": "uint256"
        }
      ],
      "payable": false,
      "stateMutability": "view",
      "type": "function"
    },
    {
      "constant": true,
      "inputs": [
        {
          "internalType": "address",
          "name": "",
          "type": "address"
        },
        {
          "internalType": "uint256",
          "name": "",
          "type": "uint256"
        }
      ],
      "name": "domainsOwnerMap",
      "outputs": [
        {
          "internalType": "uint256",
          "name": "",
          "type": "uint256"
        }
      ],
      "payable": false,
      "stateMutability": "view",
      "type": "function"
    },
    {
      "constant": true,
      "inputs": [],
      "name": "contractOwner",
      "outputs": [
        {
          "internalType": "address payable",
          "name": "",
          "type": "address"
        }
      ],
      "payable": false,
      "stateMutability": "view",
      "type": "function"
    },
    {
      "constant": true,
      "inputs": [
        {
          "internalType": "bytes32",
          "name": "",
          "type": "bytes32"
        }
      ],
      "name": "domainsHashMap",
      "outputs": [
        {
          "internalType": "uint256",
          "name": "",
          "type": "uint256"
        }
      ],
      "payable": false,
      "stateMutability": "view",
      "type": "function"
    },
    {
      "inputs": [],
      "payable": false,
      "stateMutability": "nonpayable",
      "type": "constructor"
    },
    {
      "anonymous": false,
      "inputs": [
        {
          "indexed": true,
          "internalType": "string",
          "name": "topDomainName",
          "type": "string"
        },
        {
          "indexed": true,
          "internalType": "address",
          "name": "owner",
          "type": "address"
        }
      ],
      "name": "TopDomainRegistered",
      "type": "event"
    },
    {
      "anonymous": false,
      "inputs": [
        {
          "indexed": true,
          "internalType": "string",
          "name": "topDomainName",
          "type": "string"
        },
        {
          "indexed": true,
          "internalType": "address",
          "name": "newOwner",
          "type": "address"
        }
      ],
      "name": "TopDomainOwnershipChanged",
      "type": "event"
    },
    {
      "anonymous": false,
      "inputs": [
        {
          "indexed": true,
          "internalType": "string",
          "name": "topDomainName",
          "type": "string"
        },
        {
          "indexed": false,
          "internalType": "uint256",
          "name": "newExpire",
          "type": "uint256"
        }
      ],
      "name": "TopDomainRenewed",
      "type": "event"
    },
    {
      "anonymous": false,
      "inputs": [
        {
          "indexed": true,
          "internalType": "string",
          "name": "domainName",
          "type": "string"
        },
        {
          "indexed": true,
          "internalType": "string",
          "name": "topDomainName",
          "type": "string"
        },
        {
          "indexed": true,
          "internalType": "address",
          "name": "owner",
          "type": "address"
        }
      ],
      "name": "DomainRegistered",
      "type": "event"
    },
    {
      "anonymous": false,
      "inputs": [
        {
          "indexed": true,
          "internalType": "string",
          "name": "domainName",
          "type": "string"
        },
        {
          "indexed": true,
          "internalType": "string",
          "name": "topDomainName",
          "type": "string"
        },
        {
          "indexed": true,
          "internalType": "address",
          "name": "newOwner",
          "type": "address"
        }
      ],
      "name": "DomainOwnershipChanged",
      "type": "event"
    },
    {
      "anonymous": false,
      "inputs": [
        {
          "indexed": true,
          "internalType": "string",
          "name": "domainName",
          "type": "string"
        },
        {
          "indexed": true,
          "internalType": "string",
          "name": "topDomainName",
          "type": "string"
        },
        {
          "indexed": false,
          "internalType": "string",
          "name": "storageHash",
          "type": "string"
        }
      ],
      "name": "DomainStorageHashUpdated",
      "type": "event"
    },
    {
      "anonymous": false,
      "inputs": [
        {
          "indexed": true,
          "internalType": "string",
          "name": "domainName",
          "type": "string"
        },
        {
          "indexed": true,
          "internalType": "string",
          "name": "topDomainName",
          "type": "string"
        },
        {
          "indexed": false,
          "internalType": "uint256",
          "name": "newExpire",
          "type": "uint256"
        }
      ],
      "name": "DomainRenewed",
      "type": "event"
    },
    {
      "constant": false,
      "inputs": [],
      "name": "kill",
      "outputs": [],
      "payable": false,
      "stateMutability": "nonpayable",
      "type": "function"
    },
    {
      "constant": false,
      "inputs": [
        {
          "internalType": "string",
          "name": "_topDomainName",
          "type": "string"
        }
      ],
      "name": "registerTopDomain",
      "outputs": [],
      "payable": true,
      "stateMutability": "payable",
      "type": "function"
    },
    {
      "constant": true,
      "inputs": [],
      "name": "getAllTopDomainsByOwner",
      "outputs": [
        {
          "internalType": "string[]",
          "name": "name",
          "type": "string[]"
        },
        {
          "internalType": "uint256[]",
          "name": "expires",
          "type": "uint256[]"
        }
      ],
      "payable": false,
      "stateMutability": "view",
      "type": "function"
    },
    {
      "constant": true,
      "inputs": [
        {
          "internalType": "bytes32",
          "name": "_hash",
          "type": "bytes32"
        }
      ],
      "name": "getTopDomainByHash",
      "outputs": [
        {
          "internalType": "string",
          "name": "name",
          "type": "string"
        },
        {
          "internalType": "uint256",
          "name": "expires",
          "type": "uint256"
        },
        {
          "internalType": "address",
          "name": "owner",
          "type": "address"
        }
      ],
      "payable": false,
      "stateMutability": "view",
      "type": "function"
    },
    {
      "constant": true,
      "inputs": [
        {
          "internalType": "string",
          "name": "_topDomainName",
          "type": "string"
        }
      ],
      "name": "getTopDomainHash",
      "outputs": [
        {
          "internalType": "bytes32",
          "name": "",
          "type": "bytes32"
        }
      ],
      "payable": false,
      "stateMutability": "pure",
      "type": "function"
    },
    {
      "constant": false,
      "inputs": [
        {
          "internalType": "string",
          "name": "_topDomainName",
          "type": "string"
        },
        {
          "internalType": "address",
          "name": "_newOwner",
          "type": "address"
        }
      ],
      "name": "changeTopDomainOwnership",
      "outputs": [],
      "payable": true,
      "stateMutability": "payable",
      "type": "function"
    },
    {
      "constant": false,
      "inputs": [
        {
          "internalType": "string",
          "name": "_topDomainName",
          "type": "string"
        }
      ],
      "name": "renewTopDomain",
      "outputs": [],
      "payable": true,
      "stateMutability": "payable",
      "type": "function"
    },
    {
      "constant": true,
      "inputs": [
        {
          "internalType": "string",
          "name": "_topDomainName",
          "type": "string"
        }
      ],
      "name": "topDomainAlreadyRegistered",
      "outputs": [
        {
          "internalType": "bool",
          "name": "",
          "type": "bool"
        }
      ],
      "payable": false,
      "stateMutability": "view",
      "type": "function"
    },
    {
      "constant": true,
      "inputs": [],
      "name": "getTopDomainsLength",
      "outputs": [
        {
          "internalType": "uint256",
          "name": "",
          "type": "uint256"
        }
      ],
      "payable": false,
      "stateMutability": "view",
      "type": "function"
    },
    {
      "constant": false,
      "inputs": [
        {
          "internalType": "string",
          "name": "_domainName",
          "type": "string"
        },
        {
          "internalType": "string",
          "name": "_topDomainName",
          "type": "string"
        },
        {
          "internalType": "string",
          "name": "_storageHash",
          "type": "string"
        }
      ],
      "name": "registerDomain",
      "outputs": [],
      "payable": true,
      "stateMutability": "payable",
      "type": "function"
    },
    {
      "constant": true,
      "inputs": [
        {
          "internalType": "string",
          "name": "_domainName",
          "type": "string"
        },
        {
          "internalType": "string",
          "name": "_topDomainName",
          "type": "string"
        }
      ],
      "name": "getStorageHashByDomain",
      "outputs": [
        {
          "internalType": "string",
          "name": "",
          "type": "string"
        }
      ],
      "payable": false,
      "stateMutability": "view",
      "type": "function"
    },
    {
      "constant": false,
      "inputs": [
        {
          "internalType": "string",
          "name": "_domainName",
          "type": "string"
        },
        {
          "internalType": "string",
          "name": "_topDomainName",
          "type": "string"
        },
        {
          "internalType": "string",
          "name": "_storageHash",
          "type": "string"
        }
      ],
      "name": "updateDomainStorageHash",
      "outputs": [],
      "payable": true,
      "stateMutability": "payable",
      "type": "function"
    },
    {
      "constant": false,
      "inputs": [
        {
          "internalType": "string",
          "name": "_domainName",
          "type": "string"
        },
        {
          "internalType": "string",
          "name": "_topDomainName",
          "type": "string"
        }
      ],
      "name": "renewDomain",
      "outputs": [],
      "payable": true,
      "stateMutability": "payable",
      "type": "function"
    },
    {
      "constant": false,
      "inputs": [
        {
          "internalType": "string",
          "name": "_domainName",
          "type": "string"
        },
        {
          "internalType": "string",
          "name": "_topDomainName",
          "type": "string"
        },
        {
          "internalType": "address",
          "name": "_newOwner",
          "type": "address"
        }
      ],
      "name": "changeDomainOwnership",
      "outputs": [],
      "payable": false,
      "stateMutability": "nonpayable",
      "type": "function"
    },
    {
      "constant": true,
      "inputs": [
        {
          "internalType": "bytes32",
          "name": "_hash",
          "type": "bytes32"
        }
      ],
      "name": "getDomainByHash",
      "outputs": [
        {
          "internalType": "string",
          "name": "name",
          "type": "string"
        },
        {
          "internalType": "string",
          "name": "topDomain",
          "type": "string"
        },
        {
          "internalType": "string",
          "name": "storageHash",
          "type": "string"
        },
        {
          "internalType": "uint256",
          "name": "expires",
          "type": "uint256"
        },
        {
          "internalType": "address",
          "name": "owner",
          "type": "address"
        }
      ],
      "payable": false,
      "stateMutability": "view",
      "type": "function"
    },
    {
      "constant": true,
      "inputs": [
        {
          "internalType": "string",
          "name": "_domainName",
          "type": "string"
        },
        {
          "internalType": "string",
          "name": "_topDomainName",
          "type": "string"
        }
      ],
      "name": "domainAlreadyRegistered",
      "outputs": [
        {
          "internalType": "bool",
          "name": "",
          "type": "bool"
        }
      ],
      "payable": false,
      "stateMutability": "view",
      "type": "function"
    },
    {
      "constant": true,
      "inputs": [],
      "name": "getDomainsLength",
      "outputs": [
        {
          "internalType": "uint256",
          "name": "",
          "type": "uint256"
        }
      ],
      "payable": false,
      "stateMutability": "view",
      "type": "function"
    },
    {
      "constant": true,
      "inputs": [
        {
          "internalType": "string",
          "name": "_domainName",
          "type": "string"
        },
        {
          "internalType": "string",
          "name": "_topDomainName",
          "type": "string"
        }
      ],
      "name": "getCompleteDomainHash",
      "outputs": [
        {
          "internalType": "bytes32",
          "name": "",
          "type": "bytes32"
        }
      ],
      "payable": false,
      "stateMutability": "pure",
      "type": "function"
    },
    {
      "constant": true,
      "inputs": [],
      "name": "getAllDomainsByOwner",
      "outputs": [
        {
          "internalType": "string[]",
          "name": "name",
          "type": "string[]"
        },
        {
          "internalType": "string[]",
          "name": "topDomain",
          "type": "string[]"
        },
        {
          "internalType": "string[]",
          "name": "storageHash",
          "type": "string[]"
        },
        {
          "internalType": "uint256[]",
          "name": "expires",
          "type": "uint256[]"
        }
      ],
      "payable": false,
      "stateMutability": "view",
      "type": "function"
    },
    {
      "constant": true,
      "inputs": [
        {
          "internalType": "string",
          "name": "storageHash",
          "type": "string"
        }
      ],
      "name": "getDomainByStorageHash",
      "outputs": [
        {
          "internalType": "string",
          "name": "topDomain",
          "type": "string"
        },
        {
          "internalType": "string",
          "name": "domain",
          "type": "string"
        }
      ],
      "payable": false,
      "stateMutability": "view",
      "type": "function"
    }
  ],
  "bytecode": "0x60806040523480156200001157600080fd5b50336000806101000a81548173ffffffffffffffffffffffffffffffffffffffff021916908373ffffffffffffffffffffffffffffffffffffffff1602179055506001604051806080016040528060405180602001604052806000815250815260200160008152602001600073ffffffffffffffffffffffffffffffffffffffff1681526020016000815250908060018154018082558091505090600182039060005260206000209060040201600090919290919091506000820151816000019080519060200190620000e6929190620002a6565b506020820151816001015560408201518160020160006101000a81548173ffffffffffffffffffffffffffffffffffffffff021916908373ffffffffffffffffffffffffffffffffffffffff1602179055506060820151816003015550505060046040518060c0016040528060405180602001604052806000815250815260200160405180602001604052806000815250815260200160405180602001604052806000815250815260200160008152602001600073ffffffffffffffffffffffffffffffffffffffff168152602001600081525090806001815401808255809150509060018203906000526020600020906006020160009091929091909150600082015181600001908051906020019062000203929190620002a6565b50602082015181600101908051906020019062000222929190620002a6565b50604082015181600201908051906020019062000241929190620002a6565b506060820151816003015560808201518160040160006101000a81548173ffffffffffffffffffffffffffffffffffffffff021916908373ffffffffffffffffffffffffffffffffffffffff16021790555060a0820151816005015550505062000355565b828054600181600116156101000203166002900490600052602060002090601f016020900481019282601f10620002e957805160ff19168380011785556200031a565b828001600101855582156200031a579182015b8281111562000319578251825591602001919060010190620002fc565b5b5090506200032991906200032d565b5090565b6200035291905b808211156200034e57600081600090555060010162000334565b5090565b90565b613b8d80620003656000396000f3fe608060405260043610610168576000357c0100000000000000000000000000000000000000000000000000000000900480639545bb42116100d3578063d83dfdec1161008c578063d83dfdec146104bb578063d8f84ead146104f8578063d97750a414610535578063e0cf381214610561578063edb48c561461059e578063ee15bc62146105ba57610168565b80639545bb4214610392578063a3917035146103ae578063ae546ff4146103eb578063bbd462c414610414578063ce606ee014610451578063d4e643831461047c57610168565b80633c45357c116101255780633c45357c146102695780633d7771d2146102aa57806341c0e1b5146102d55780636c07d84c146102ec5780636ffb6cb814610317578063775a51401461035557610168565b806305f04ea41461016d5780630f0735d9146101aa5780630fbf844b146101c6578063210c5c38146101e25780632d1658e81461021057806333d314251461024d575b600080fd5b34801561017957600080fd5b50610194600480360361018f9190810190612e2a565b6105d6565b6040516101a191906138f9565b60405180910390f35b6101c460048036036101bf9190810190612f00565b610604565b005b6101e060048036036101db9190810190612feb565b610816565b005b3480156101ee57600080fd5b506101f7610a32565b60405161020794939291906135ec565b60405180910390f35b34801561021c57600080fd5b5061023760048036036102329190810190612e6b565b610ece565b604051610244919061369f565b60405180910390f35b61026760048036036102629190810190612eac565b610efe565b005b34801561027557600080fd5b50610290600480360361028b9190810190612e01565b61129b565b6040516102a1959493929190613713565b60405180910390f35b3480156102b657600080fd5b506102bf61155b565b6040516102cc91906138f9565b60405180910390f35b3480156102e157600080fd5b506102ea611568565b005b3480156102f857600080fd5b50610301611631565b60405161030e91906138f9565b60405180910390f35b34801561032357600080fd5b5061033e60048036036103399190810190612e6b565b61163e565b60405161034c9291906136dc565b60405180910390f35b34801561036157600080fd5b5061037c60048036036103779190810190612dc5565b6117e2565b60405161038991906138f9565b60405180910390f35b6103ac60048036036103a79190810190612e6b565b611810565b005b3480156103ba57600080fd5b506103d560048036036103d09190810190612f00565b611b27565b6040516103e2919061369f565b60405180910390f35b3480156103f757600080fd5b50610412600480360361040d9190810190612f6c565b611b5a565b005b34801561042057600080fd5b5061043b60048036036104369190810190612f00565b611f15565b60405161044891906136ba565b60405180910390f35b34801561045d57600080fd5b50610466612062565b60405161047391906135d1565b60405180910390f35b34801561048857600080fd5b506104a3600480360361049e9190810190612e01565b612087565b6040516104b29392919061377b565b60405180910390f35b3480156104c757600080fd5b506104e260048036036104dd9190810190612e01565b6121ca565b6040516104ef91906138f9565b60405180910390f35b34801561050457600080fd5b5061051f600480360361051a9190810190612e6b565b6121e2565b60405161052c9190613684565b60405180910390f35b34801561054157600080fd5b5061054a612242565b60405161055892919061364d565b60405180910390f35b34801561056d57600080fd5b5061058860048036036105839190810190612f00565b61249b565b6040516105959190613684565b60405180910390f35b6105b860048036036105b39190810190612feb565b6124fd565b005b6105d460048036036105cf9190810190612e6b565b61290f565b005b6007818051602081018201805184825260208301602085012081835280955050505050506000915090505481565b81816000600560006106168585611b27565b8152602001908152602001600020541415610666576040517f08c379a000000000000000000000000000000000000000000000000000000000815260040161065d90613839565b60405180910390fd5b83836000600560006106788585611b27565b81526020019081526020016000205490503373ffffffffffffffffffffffffffffffffffffffff16600482815481106106ad57fe5b906000526020600020906006020160040160009054906101000a900473ffffffffffffffffffffffffffffffffffffffff1673ffffffffffffffffffffffffffffffffffffffff1614610735576040517f08c379a000000000000000000000000000000000000000000000000000000000815260040161072c906137d9565b60405180910390fd5b6000600560006107458a8a611b27565b815260200190815260200160002054905060006004828154811061076557fe5b906000526020600020906006020160030154905060006301e1338082019050806004848154811061079257fe5b906000526020600020906006020160030181905550886040516107b59190613596565b60405180910390208a6040516107cb9190613596565b60405180910390207ff266d11c683f745c2b249e6b63afff6597a267340a403addd0336a26bf601b098360405161080291906138f9565b60405180910390a350505050505050505050565b82826000600560006108288585611b27565b8152602001908152602001600020541415610878576040517f08c379a000000000000000000000000000000000000000000000000000000000815260040161086f90613839565b60405180910390fd5b848460006005600061088a8585611b27565b81526020019081526020016000205490503373ffffffffffffffffffffffffffffffffffffffff16600482815481106108bf57fe5b906000526020600020906006020160040160009054906101000a900473ffffffffffffffffffffffffffffffffffffffff1673ffffffffffffffffffffffffffffffffffffffff1614610947576040517f08c379a000000000000000000000000000000000000000000000000000000000815260040161093e906137d9565b60405180910390fd5b60006109538989611b27565b9050600060056000838152602001908152602001600020549050876004828154811061097b57fe5b9060005260206000209060060201600201908051906020019061099f929190612b03565b50806007896040516109b19190613596565b908152602001604051809103902081905550886040516109d19190613596565b60405180910390208a6040516109e79190613596565b60405180910390207f53fefe0fa4d79f98ec788fb08233fb5f1a5373fe81058f04b568d4d0475e19758a604051610a1e91906136ba565b60405180910390a350505050505050505050565b6060806060806060600660003373ffffffffffffffffffffffffffffffffffffffff1673ffffffffffffffffffffffffffffffffffffffff168152602001908152602001600020805480602002602001604051908101604052809291908181526020018280548015610ac357602002820191906000526020600020905b815481526020019060010190808311610aaf575b5050505050905060608151604051908082528060200260200182016040528015610b0157816020015b6060815260200190600190039081610aec5790505b50905060608251604051908082528060200260200182016040528015610b3b57816020015b6060815260200190600190039081610b265790505b50905060608351604051908082528060200260200182016040528015610b7557816020015b6060815260200190600190039081610b605790505b50905060608451604051908082528060200260200182016040528015610baa5781602001602082028038833980820191505090505b50905060008090505b8551811015610eb6576004868281518110610bca57fe5b602002602001015181548110610bdc57fe5b90600052602060002090600602016000018054600181600116156101000203166002900480601f016020809104026020016040519081016040528092919081815260200182805460018160011615610100020316600290048015610c815780601f10610c5657610100808354040283529160200191610c81565b820191906000526020600020905b815481529060010190602001808311610c6457829003601f168201915b5050505050858281518110610c9257fe5b60200260200101819052506004868281518110610cab57fe5b602002602001015181548110610cbd57fe5b90600052602060002090600602016001018054600181600116156101000203166002900480601f016020809104026020016040519081016040528092919081815260200182805460018160011615610100020316600290048015610d625780601f10610d3757610100808354040283529160200191610d62565b820191906000526020600020905b815481529060010190602001808311610d4557829003601f168201915b5050505050848281518110610d7357fe5b60200260200101819052506004868281518110610d8c57fe5b602002602001015181548110610d9e57fe5b90600052602060002090600602016002018054600181600116156101000203166002900480601f016020809104026020016040519081016040528092919081815260200182805460018160011615610100020316600290048015610e435780601f10610e1857610100808354040283529160200191610e43565b820191906000526020600020905b815481529060010190602001808311610e2657829003601f168201915b5050505050838281518110610e5457fe5b60200260200101819052506004868281518110610e6d57fe5b602002602001015181548110610e7f57fe5b906000526020600020906006020160030154828281518110610e9d57fe5b6020026020010181815250508080600101915050610bb3565b50838383839850985098509850505050505090919293565b600081604051602001610ee19190613596565b604051602081830303815290604052805190602001209050919050565b81600060026000610f0e84610ece565b8152602001908152602001600020541415610f5e576040517f08c379a0000000000000000000000000000000000000000000000000000000008152600401610f55906137b9565b60405180910390fd5b82600060026000610f6e84610ece565b81526020019081526020016000205490503373ffffffffffffffffffffffffffffffffffffffff1660018281548110610fa357fe5b906000526020600020906004020160020160009054906101000a900473ffffffffffffffffffffffffffffffffffffffff1673ffffffffffffffffffffffffffffffffffffffff161461102b576040517f08c379a0000000000000000000000000000000000000000000000000000000008152600401611022906137f9565b60405180910390fd5b60006002600061103a88610ece565b815260200190815260200160002054905060006001828154811061105a57fe5b906000526020600020906004020160020160009054906101000a900473ffffffffffffffffffffffffffffffffffffffff1690506000600360008373ffffffffffffffffffffffffffffffffffffffff1673ffffffffffffffffffffffffffffffffffffffff16815260200190815260200160002090506000600184815481106110e057fe5b90600052602060002090600402016003015490508160018380549050038154811061110757fe5b906000526020600020015482828154811061111e57fe5b9060005260206000200181905550818054809190600190036111409190612b83565b506000600360008a73ffffffffffffffffffffffffffffffffffffffff1673ffffffffffffffffffffffffffffffffffffffff16815260200190815260200160002090508085908060018154018082558091505090600182039060005260206000200160009091929091909150555088600186815481106111bd57fe5b906000526020600020906004020160020160006101000a81548173ffffffffffffffffffffffffffffffffffffffff021916908373ffffffffffffffffffffffffffffffffffffffff16021790555060018180549050036001868154811061122157fe5b9060005260206000209060040201600301819055508873ffffffffffffffffffffffffffffffffffffffff168a60405161125b9190613596565b60405180910390207fcd8f5abec842d059bf95d565c28ea51a16469b7efa4e879e834c1f55b9ea052660405160405180910390a350505050505050505050565b6060806060600080600060056000888152602001908152602001600020549050600481815481106112c857fe5b9060005260206000209060060201600001600482815481106112e657fe5b90600052602060002090600602016001016004838154811061130457fe5b90600052602060002090600602016002016004848154811061132257fe5b9060005260206000209060060201600301546004858154811061134157fe5b906000526020600020906006020160040160009054906101000a900473ffffffffffffffffffffffffffffffffffffffff16848054600181600116156101000203166002900480601f0160208091040260200160405190810160405280929190818152602001828054600181600116156101000203166002900480156114085780601f106113dd57610100808354040283529160200191611408565b820191906000526020600020905b8154815290600101906020018083116113eb57829003601f168201915b50505050509450838054600181600116156101000203166002900480601f0160208091040260200160405190810160405280929190818152602001828054600181600116156101000203166002900480156114a45780601f10611479576101008083540402835291602001916114a4565b820191906000526020600020905b81548152906001019060200180831161148757829003601f168201915b50505050509350828054600181600116156101000203166002900480601f0160208091040260200160405190810160405280929190818152602001828054600181600116156101000203166002900480156115405780601f1061151557610100808354040283529160200191611540565b820191906000526020600020905b81548152906001019060200180831161152357829003601f168201915b50505050509250955095509550955095505091939590929450565b6000600180549050905090565b6000809054906101000a900473ffffffffffffffffffffffffffffffffffffffff1673ffffffffffffffffffffffffffffffffffffffff163373ffffffffffffffffffffffffffffffffffffffff16146115f7576040517f08c379a00000000000000000000000000000000000000000000000000000000081526004016115ee90613899565b60405180910390fd5b6000809054906101000a900473ffffffffffffffffffffffffffffffffffffffff1673ffffffffffffffffffffffffffffffffffffffff16ff5b6000600480549050905090565b60608060006007846040516116539190613596565b90815260200160405180910390205490506004818154811061167157fe5b90600052602060002090600602016001016004828154811061168f57fe5b9060005260206000209060060201600001818054600181600116156101000203166002900480601f0160208091040260200160405190810160405280929190818152602001828054600181600116156101000203166002900480156117355780601f1061170a57610100808354040283529160200191611735565b820191906000526020600020905b81548152906001019060200180831161171857829003601f168201915b50505050509150808054600181600116156101000203166002900480601f0160208091040260200160405190810160405280929190818152602001828054600181600116156101000203166002900480156117d15780601f106117a6576101008083540402835291602001916117d1565b820191906000526020600020905b8154815290600101906020018083116117b457829003601f168201915b505050505090509250925050915091565b600660205281600052604060002081815481106117fb57fe5b90600052602060002001600091509150505481565b80600281511015611856576040517f08c379a000000000000000000000000000000000000000000000000000000000815260040161184d90613879565b60405180910390fd5b8160058151111561189c576040517f08c379a000000000000000000000000000000000000000000000000000000000815260040161189390613819565b60405180910390fd5b826000600260006118ac84610ece565b815260200190815260200160002054146118fb576040517f08c379a00000000000000000000000000000000000000000000000000000000081526004016118f2906138d9565b60405180910390fd5b611903612baf565b60405180608001604052808681526020016301e13380420181526020013373ffffffffffffffffffffffffffffffffffffffff168152602001600360003373ffffffffffffffffffffffffffffffffffffffff1673ffffffffffffffffffffffffffffffffffffffff1681526020019081526020016000208054905081525090506001819080600181540180825580915050906001820390600052602060002090600402016000909192909190915060008201518160000190805190602001906119ce929190612bed565b506020820151816001015560408201518160020160006101000a81548173ffffffffffffffffffffffffffffffffffffffff021916908373ffffffffffffffffffffffffffffffffffffffff160217905550606082015181600301555050506000600180805490500390508060026000611a4789610ece565b81526020019081526020016000208190555060036000836040015173ffffffffffffffffffffffffffffffffffffffff1673ffffffffffffffffffffffffffffffffffffffff1681526020019081526020016000208190806001815401808255809150509060018203906000526020600020016000909192909190915055503373ffffffffffffffffffffffffffffffffffffffff1686604051611aeb9190613596565b60405180910390207f9cb5f30bc9eb4f94c43c2cc17102ca67de1142f60f8cd49d5515fa46643af45d60405160405180910390a3505050505050565b60008282604051602001611b3c9291906135ad565b60405160208183030381529060405280519060200120905092915050565b8282600060056000611b6c8585611b27565b8152602001908152602001600020541415611bbc576040517f08c379a0000000000000000000000000000000000000000000000000000000008152600401611bb390613839565b60405180910390fd5b8484600060056000611bce8585611b27565b81526020019081526020016000205490503373ffffffffffffffffffffffffffffffffffffffff1660048281548110611c0357fe5b906000526020600020906006020160040160009054906101000a900473ffffffffffffffffffffffffffffffffffffffff1673ffffffffffffffffffffffffffffffffffffffff1614611c8b576040517f08c379a0000000000000000000000000000000000000000000000000000000008152600401611c82906137d9565b60405180910390fd5b600060056000611c9b8b8b611b27565b8152602001908152602001600020549050600060048281548110611cbb57fe5b906000526020600020906006020160040160009054906101000a900473ffffffffffffffffffffffffffffffffffffffff1690506000600660008373ffffffffffffffffffffffffffffffffffffffff1673ffffffffffffffffffffffffffffffffffffffff1681526020019081526020016000209050600060048481548110611d4157fe5b906000526020600020906006020160050154905081600183805490500381548110611d6857fe5b9060005260206000200154828281548110611d7f57fe5b906000526020600020018190555081805480919060019003611da19190612b83565b506000600660008c73ffffffffffffffffffffffffffffffffffffffff1673ffffffffffffffffffffffffffffffffffffffff1681526020019081526020016000209050808590806001815401808255809150509060018203906000526020600020016000909192909190915055508a60048681548110611e1e57fe5b906000526020600020906006020160040160006101000a81548173ffffffffffffffffffffffffffffffffffffffff021916908373ffffffffffffffffffffffffffffffffffffffff160217905550600181805490500360048681548110611e8257fe5b9060005260206000209060060201600501819055508a73ffffffffffffffffffffffffffffffffffffffff168c604051611ebc9190613596565b60405180910390208e604051611ed29190613596565b60405180910390207f580153e10b2fd0b12048622087eafb607484cc844419604d8c484b819d08ef5060405160405180910390a450505050505050505050505050565b60608282600060056000611f298585611b27565b8152602001908152602001600020541415611f79576040517f08c379a0000000000000000000000000000000000000000000000000000000008152600401611f7090613839565b60405180910390fd5b6000611f858686611b27565b905060006005600083815260200190815260200160002054905060048181548110611fac57fe5b90600052602060002090600602016002018054600181600116156101000203166002900480601f0160208091040260200160405190810160405280929190818152602001828054600181600116156101000203166002900480156120515780601f1061202657610100808354040283529160200191612051565b820191906000526020600020905b81548152906001019060200180831161203457829003601f168201915b505050505094505050505092915050565b6000809054906101000a900473ffffffffffffffffffffffffffffffffffffffff1681565b6060600080600060026000868152602001908152602001600020549050600181815481106120b157fe5b9060005260206000209060040201600001600182815481106120cf57fe5b906000526020600020906004020160010154600183815481106120ee57fe5b906000526020600020906004020160020160009054906101000a900473ffffffffffffffffffffffffffffffffffffffff16828054600181600116156101000203166002900480601f0160208091040260200160405190810160405280929190818152602001828054600181600116156101000203166002900480156121b55780601f1061218a576101008083540402835291602001916121b5565b820191906000526020600020905b81548152906001019060200180831161219857829003601f168201915b50505050509250935093509350509193909250565b60056020528060005260406000206000915090505481565b600080600260006121f285610ece565b815260200190815260200160002054905060006001828154811061221257fe5b90600052602060002090600402016000018054600181600116156101000203166002900490501415915050919050565b6060806060600360003373ffffffffffffffffffffffffffffffffffffffff1673ffffffffffffffffffffffffffffffffffffffff1681526020019081526020016000208054806020026020016040519081016040528092919081815260200182805480156122d057602002820191906000526020600020905b8154815260200190600101908083116122bc575b505050505090506060815160405190808252806020026020018201604052801561230e57816020015b60608152602001906001900390816122f95790505b509050606082516040519080825280602002602001820160405280156123435781602001602082028038833980820191505090505b50905060008090505b835181101561248d57600184828151811061236357fe5b60200260200101518154811061237557fe5b90600052602060002090600402016000018054600181600116156101000203166002900480601f01602080910402602001604051908101604052809291908181526020018280546001816001161561010002031660029004801561241a5780601f106123ef5761010080835404028352916020019161241a565b820191906000526020600020905b8154815290600101906020018083116123fd57829003601f168201915b505050505083828151811061242b57fe5b6020026020010181905250600184828151811061244457fe5b60200260200101518154811061245657fe5b90600052602060002090600402016001015482828151811061247457fe5b602002602001018181525050808060010191505061234c565b508181945094505050509091565b600080600560006124ac8686611b27565b81526020019081526020016000205490506000600482815481106124cc57fe5b9060005260206000209060060201600001805460018160011615610100020316600290049050141591505092915050565b81600281511015612543576040517f08c379a000000000000000000000000000000000000000000000000000000000815260040161253a90613879565b60405180910390fd5b82600581511115612589576040517f08c379a000000000000000000000000000000000000000000000000000000000815260040161258090613819565b60405180910390fd5b8360006002600061259984610ece565b81526020019081526020016000205414156125e9576040517f08c379a00000000000000000000000000000000000000000000000000000000081526004016125e0906137b9565b60405180910390fd5b8560038151101561262f576040517f08c379a0000000000000000000000000000000000000000000000000000000008152600401612626906138b9565b60405180910390fd5b86866000600560006126418585611b27565b81526020019081526020016000205414612690576040517f08c379a000000000000000000000000000000000000000000000000000000000815260040161268790613859565b60405180910390fd5b600061269c8a8a611b27565b90506000600660003373ffffffffffffffffffffffffffffffffffffffff1673ffffffffffffffffffffffffffffffffffffffff1681526020019081526020016000209050600081805490509050600060048054905090508060056000868152602001908152602001600020819055508060078c60405161271d9190613596565b908152602001604051809103902081905550612737612c6d565b6040518060c001604052808f81526020018e81526020018d81526020016301e13380420181526020013373ffffffffffffffffffffffffffffffffffffffff1681526020018481525090506004819080600181540180825580915050906001820390600052602060002090600602016000909192909190915060008201518160000190805190602001906127cc929190612bed565b5060208201518160010190805190602001906127e9929190612bed565b506040820151816002019080519060200190612806929190612bed565b506060820151816003015560808201518160040160006101000a81548173ffffffffffffffffffffffffffffffffffffffff021916908373ffffffffffffffffffffffffffffffffffffffff16021790555060a08201518160050155505050838290806001815401808255809150509060018203906000526020600020016000909192909190915055503373ffffffffffffffffffffffffffffffffffffffff168d6040516128b59190613596565b60405180910390208f6040516128cb9190613596565b60405180910390207f8e1353a1c19c0496b7461bad8f9954f50411bb95889443e6e2737ad821cd70ef60405160405180910390a45050505050505050505050505050565b8060006002600061291f84610ece565b815260200190815260200160002054141561296f576040517f08c379a0000000000000000000000000000000000000000000000000000000008152600401612966906137b9565b60405180910390fd5b8160006002600061297f84610ece565b81526020019081526020016000205490503373ffffffffffffffffffffffffffffffffffffffff16600182815481106129b457fe5b906000526020600020906004020160020160009054906101000a900473ffffffffffffffffffffffffffffffffffffffff1673ffffffffffffffffffffffffffffffffffffffff1614612a3c576040517f08c379a0000000000000000000000000000000000000000000000000000000008152600401612a33906137f9565b60405180910390fd5b600060026000612a4b87610ece565b8152602001908152602001600020549050600060018281548110612a6b57fe5b906000526020600020906004020160010154905060006301e13380820190508060018481548110612a9857fe5b90600052602060002090600402016001018190555086604051612abb9190613596565b60405180910390207f9af0026a3ecf9b0730f1fb6825130dc91b04ffda2c0d00f2e5ded9ca5a70fbc582604051612af291906138f9565b60405180910390a250505050505050565b828054600181600116156101000203166002900490600052602060002090601f016020900481019282601f10612b4457805160ff1916838001178555612b72565b82800160010185558215612b72579182015b82811115612b71578251825591602001919060010190612b56565b5b509050612b7f9190612cb9565b5090565b815481835581811115612baa57818360005260206000209182019101612ba99190612cb9565b5b505050565b60405180608001604052806060815260200160008152602001600073ffffffffffffffffffffffffffffffffffffffff168152602001600081525090565b828054600181600116156101000203166002900490600052602060002090601f016020900481019282601f10612c2e57805160ff1916838001178555612c5c565b82800160010185558215612c5c579182015b82811115612c5b578251825591602001919060010190612c40565b5b509050612c699190612cb9565b5090565b6040518060c0016040528060608152602001606081526020016060815260200160008152602001600073ffffffffffffffffffffffffffffffffffffffff168152602001600081525090565b612cdb91905b80821115612cd7576000816000905550600101612cbf565b5090565b90565b600081359050612ced81613b05565b92915050565b600081359050612d0281613b1c565b92915050565b600082601f830112612d1957600080fd5b8135612d2c612d2782613941565b613914565b91508082526020830160208301858383011115612d4857600080fd5b612d53838284613ab2565b50505092915050565b600082601f830112612d6d57600080fd5b8135612d80612d7b8261396d565b613914565b91508082526020830160208301858383011115612d9c57600080fd5b612da7838284613ab2565b50505092915050565b600081359050612dbf81613b33565b92915050565b60008060408385031215612dd857600080fd5b6000612de685828601612cde565b9250506020612df785828601612db0565b9150509250929050565b600060208284031215612e1357600080fd5b6000612e2184828501612cf3565b91505092915050565b600060208284031215612e3c57600080fd5b600082013567ffffffffffffffff811115612e5657600080fd5b612e6284828501612d08565b91505092915050565b600060208284031215612e7d57600080fd5b600082013567ffffffffffffffff811115612e9757600080fd5b612ea384828501612d5c565b91505092915050565b60008060408385031215612ebf57600080fd5b600083013567ffffffffffffffff811115612ed957600080fd5b612ee585828601612d5c565b9250506020612ef685828601612cde565b9150509250929050565b60008060408385031215612f1357600080fd5b600083013567ffffffffffffffff811115612f2d57600080fd5b612f3985828601612d5c565b925050602083013567ffffffffffffffff811115612f5657600080fd5b612f6285828601612d5c565b9150509250929050565b600080600060608486031215612f8157600080fd5b600084013567ffffffffffffffff811115612f9b57600080fd5b612fa786828701612d5c565b935050602084013567ffffffffffffffff811115612fc457600080fd5b612fd086828701612d5c565b9250506040612fe186828701612cde565b9150509250925092565b60008060006060848603121561300057600080fd5b600084013567ffffffffffffffff81111561301a57600080fd5b61302686828701612d5c565b935050602084013567ffffffffffffffff81111561304357600080fd5b61304f86828701612d5c565b925050604084013567ffffffffffffffff81111561306c57600080fd5b61307886828701612d5c565b9150509250925092565b600061308e8383613227565b905092915050565b60006130a28383613578565b60208301905092915050565b6130b781613a60565b82525050565b6130c681613a4e565b82525050565b60006130d7826139b9565b6130e181856139ff565b9350836020820285016130f385613999565b8060005b8581101561312f57848403895281516131108582613082565b945061311b836139e5565b925060208a019950506001810190506130f7565b50829750879550505050505092915050565b600061314c826139c4565b6131568185613a10565b9350613161836139a9565b8060005b838110156131925781516131798882613096565b9750613184836139f2565b925050600181019050613165565b5085935050505092915050565b6131a881613a72565b82525050565b6131b781613a7e565b82525050565b60006131c8826139da565b6131d28185613a32565b93506131e2818560208601613ac1565b6131eb81613af4565b840191505092915050565b6000613201826139da565b61320b8185613a43565b935061321b818560208601613ac1565b80840191505092915050565b6000613232826139cf565b61323c8185613a21565b935061324c818560208601613ac1565b61325581613af4565b840191505092915050565b600061326d601c83613a32565b91507f746f7020646f6d61696e206973206e6f742072656769737465726564000000006000830152602082019050919050565b60006132ad601783613a32565b91507f74686973206973206e6f7420796f757220646f6d61696e0000000000000000006000830152602082019050919050565b60006132ed601b83613a32565b91507f74686973206973206e6f7420796f757220746f7020646f6d61696e00000000006000830152602082019050919050565b600061332d602583613a32565b91507f746f7020646f6d61696e206e616d65206d6178206c656e67746820697320696e60008301527f76616c69640000000000000000000000000000000000000000000000000000006020830152604082019050919050565b6000613393601883613a32565b91507f646f6d61696e206973206e6f74207265676973746572656400000000000000006000830152602082019050919050565b60006133d3601c83613a32565b91507f646f6d61696e20697320616c72656164792072656769737465726564000000006000830152602082019050919050565b6000613413602583613a32565b91507f746f7020646f6d61696e206e616d65206d696e206c656e67746820697320696e60008301527f76616c69640000000000000000000000000000000000000000000000000000006020830152604082019050919050565b6000613479602e83613a32565b91507f6f6e6c792074686520636f6e7472616374206f776e65722063616e206b696c6c60008301527f207468697320636f6e74726163740000000000000000000000000000000000006020830152604082019050919050565b60006134df602183613a32565b91507f646f6d61696e206e616d65206d696e206c656e67746820697320696e76616c6960008301527f64000000000000000000000000000000000000000000000000000000000000006020830152604082019050919050565b6000613545602083613a32565b91507f746f7020646f6d61696e20697320616c726561647920726567697374657265646000830152602082019050919050565b61358181613aa8565b82525050565b61359081613aa8565b82525050565b60006135a282846131f6565b915081905092915050565b60006135b982856131f6565b91506135c582846131f6565b91508190509392505050565b60006020820190506135e660008301846130ae565b92915050565b6000608082019050818103600083015261360681876130cc565b9050818103602083015261361a81866130cc565b9050818103604083015261362e81856130cc565b905081810360608301526136428184613141565b905095945050505050565b6000604082019050818103600083015261366781856130cc565b9050818103602083015261367b8184613141565b90509392505050565b6000602082019050613699600083018461319f565b92915050565b60006020820190506136b460008301846131ae565b92915050565b600060208201905081810360008301526136d481846131bd565b905092915050565b600060408201905081810360008301526136f681856131bd565b9050818103602083015261370a81846131bd565b90509392505050565b600060a082019050818103600083015261372d81886131bd565b9050818103602083015261374181876131bd565b9050818103604083015261375581866131bd565b90506137646060830185613587565b61377160808301846130bd565b9695505050505050565b6000606082019050818103600083015261379581866131bd565b90506137a46020830185613587565b6137b160408301846130bd565b949350505050565b600060208201905081810360008301526137d281613260565b9050919050565b600060208201905081810360008301526137f2816132a0565b9050919050565b60006020820190508181036000830152613812816132e0565b9050919050565b6000602082019050818103600083015261383281613320565b9050919050565b6000602082019050818103600083015261385281613386565b9050919050565b60006020820190508181036000830152613872816133c6565b9050919050565b6000602082019050818103600083015261389281613406565b9050919050565b600060208201905081810360008301526138b28161346c565b9050919050565b600060208201905081810360008301526138d2816134d2565b9050919050565b600060208201905081810360008301526138f281613538565b9050919050565b600060208201905061390e6000830184613587565b92915050565b6000604051905081810181811067ffffffffffffffff8211171561393757600080fd5b8060405250919050565b600067ffffffffffffffff82111561395857600080fd5b601f19601f8301169050602081019050919050565b600067ffffffffffffffff82111561398457600080fd5b601f19601f8301169050602081019050919050565b6000819050602082019050919050565b6000819050602082019050919050565b600081519050919050565b600081519050919050565b600081519050919050565b600081519050919050565b6000602082019050919050565b6000602082019050919050565b600082825260208201905092915050565b600082825260208201905092915050565b600082825260208201905092915050565b600082825260208201905092915050565b600081905092915050565b6000613a5982613a88565b9050919050565b6000613a6b82613a88565b9050919050565b60008115159050919050565b6000819050919050565b600073ffffffffffffffffffffffffffffffffffffffff82169050919050565b6000819050919050565b82818337600083830152505050565b60005b83811015613adf578082015181840152602081019050613ac4565b83811115613aee576000848401525b50505050565b6000601f19601f8301169050919050565b613b0e81613a4e565b8114613b1957600080fd5b50565b613b2581613a7e565b8114613b3057600080fd5b50565b613b3c81613aa8565b8114613b4757600080fd5b5056fea365627a7a72315820e79d24c590d3af2dc3c5676af319707ef86a9576f3108c493564d2cd321ed3766c6578706572696d656e74616cf564736f6c634300050b0040",
  "source": "pragma solidity ^0.5.9;\npragma experimental ABIEncoderV2;\n\ncontract JanusNameService {\n\n    address payable public contractOwner;\n\n    uint constant TOP_DOMAIN_NAME_MIN_LENGTH = 2;\n    uint constant TOP_DOMAIN_NAME_MAX_LENGTH = 5;\n    uint constant TOP_DOMAIN_EXPIRATION_DAYS = 365 days;\n\n    uint constant DOMAIN_EXPIRATION_DAYS = 365 days;\n    uint constant DOMAIN_NAME_MIN_LENGTH = 3;\n\n    struct TopDomain {\n        string name;\n        uint expires;\n        address owner;\n        uint ownerIndex;\n    }\n\n    struct Domain {\n        string name;\n        string topDomain;\n        string storageHash;\n        uint expires;\n        address owner;\n        uint ownerIndex;\n    }\n\n    TopDomain[] private topDomains;\n    mapping(bytes32 => uint) private topDomainsHashMap;\n    mapping(address => uint[]) private topDomainsOwnerMap;\n\n    Domain[] private domains;\n    mapping(bytes32 => uint) public domainsHashMap;\n    mapping(address => uint[]) public domainsOwnerMap;\n    mapping(string => uint) public domainsStorageHash;\n\n    constructor () public{\n        contractOwner = msg.sender;\n        topDomains.push(TopDomain('', 0, address(0x0), 0));\n        domains.push(Domain('', '', '', 0, address(0x0), 0));\n    }\n\n    function kill() external {\n        require(msg.sender == contractOwner, 'only the contract owner can kill this contract');\n        selfdestruct(contractOwner);\n    }\n\n    modifier isTopDomainNameMinLengthValid(\n        string memory _topDomainName\n    )\n    {\n        require(\n            bytes(_topDomainName).length >= TOP_DOMAIN_NAME_MIN_LENGTH,\n            'top domain name min length is invalid'\n        );\n        _;\n    }\n\n    modifier isTopDomainNameMaxLengthValid(\n        string memory _topDomainName\n    )\n    {\n        require(\n            bytes(_topDomainName).length <= TOP_DOMAIN_NAME_MAX_LENGTH,\n            'top domain name max length is invalid'\n        );\n        _;\n    }\n\n    modifier isTopDomainRegistered(\n        string memory _topDomainName\n    )\n    {\n        require(\n            topDomainsHashMap[getTopDomainHash(_topDomainName)] != 0,\n            'top domain is not registered'\n        );\n        _;\n    }\n\n    modifier isTopDomainNotRegistered(\n        string memory _topDomainName\n    )\n    {\n        require(\n            topDomainsHashMap[getTopDomainHash(_topDomainName)] == 0,\n            'top domain is already registered'\n        );\n        _;\n    }\n\n    modifier isTopDomainOwner(\n        string memory _topDomainName\n    )\n    {\n        uint index = topDomainsHashMap[getTopDomainHash(_topDomainName)];\n        require(\n            topDomains[index].owner == msg.sender,\n            'this is not your top domain'\n        );\n        _;\n    }\n\n    modifier isDomainNameMinLengthValid(\n        string memory _domainName\n    )\n    {\n        require(\n            bytes(_domainName).length >= DOMAIN_NAME_MIN_LENGTH,\n            'domain name min length is invalid'\n        );\n        _;\n    }\n\n    modifier isDomainNotRegistered(\n        string memory _domainName,\n        string memory _topDomainName\n    )\n    {\n        require(\n            domainsHashMap[getCompleteDomainHash(_domainName,_topDomainName)] == 0,\n            'domain is already registered'\n        );\n        _;\n    }\n\n    modifier isDomainRegistered(\n         string memory _domainName,\n         string memory _topDomainName\n    )\n    {\n        require(\n            domainsHashMap[getCompleteDomainHash(_domainName, _topDomainName)] != 0,\n            'domain is not registered'\n        );\n        _;\n    }\n\n    modifier isDomainOwner(\n         string memory _domainName,\n         string memory _topDomainName\n    )\n    {\n        uint index = domainsHashMap[getCompleteDomainHash(_domainName, _topDomainName)];\n        require(\n            domains[index].owner == msg.sender,\n            'this is not your domain'\n        );\n        _;\n    }\n\n    event TopDomainRegistered(\n        string indexed topDomainName,\n        address indexed owner\n    );\n\n    event TopDomainOwnershipChanged(\n        string indexed topDomainName,\n        address indexed newOwner\n    );\n\n    event TopDomainRenewed(\n        string indexed topDomainName,\n        uint newExpire\n    );\n\n    event DomainRegistered(\n        string indexed domainName,\n        string indexed topDomainName,\n        address indexed owner\n    );\n\n    event DomainOwnershipChanged(\n        string indexed domainName,\n        string indexed topDomainName,\n        address indexed newOwner\n    );\n\n    event DomainStorageHashUpdated(\n        string indexed domainName,\n        string indexed topDomainName,\n        string storageHash\n    );\n\n    event DomainRenewed(\n        string indexed domainName,\n        string indexed topDomainName,\n        uint newExpire\n    );\n\n    function registerTopDomain(\n        string memory _topDomainName\n    ) public\n        isTopDomainNameMinLengthValid(_topDomainName)\n        isTopDomainNameMaxLengthValid(_topDomainName)\n        isTopDomainNotRegistered(_topDomainName)\n      payable\n    {\n        TopDomain memory newTopDomain = TopDomain({\n            name: _topDomainName,\n            expires: now + TOP_DOMAIN_EXPIRATION_DAYS,\n            owner: msg.sender,\n            ownerIndex: topDomainsOwnerMap[msg.sender].length\n        });\n\n        topDomains.push(newTopDomain);\n\n        uint topDomainsIndex = topDomains.length - 1;\n\n        topDomainsHashMap[getTopDomainHash(_topDomainName)] = topDomainsIndex;\n        topDomainsOwnerMap[newTopDomain.owner].push(topDomainsIndex);\n\n        emit TopDomainRegistered(_topDomainName, msg.sender);\n    }\n\n    function getAllTopDomainsByOwner() public view returns (string[] memory name, uint[] memory expires)\n    {\n        uint[] memory indexes = topDomainsOwnerMap[msg.sender];\n        string[] memory resultName = new string[](indexes.length);\n        uint[] memory resultExpire = new uint[](indexes.length);\n\n        for(uint i = 0; i < indexes.length; i++){\n            resultName[i] = topDomains[indexes[i]].name;\n            resultExpire[i] = topDomains[indexes[i]].expires;\n        }\n\n        return (resultName, resultExpire);\n    }\n\n    function getTopDomainByHash(\n        bytes32 _hash\n    ) public view returns (string memory name, uint expires, address owner)\n    {\n        uint index = topDomainsHashMap[_hash];\n        return (topDomains[index].name, topDomains[index].expires, topDomains[index].owner);\n    }\n\n    function getTopDomainHash(\n        string memory _topDomainName\n    ) public pure returns (bytes32)\n    {\n        return keccak256(abi.encodePacked(_topDomainName));\n    }\n\n    function changeTopDomainOwnership(\n        string memory _topDomainName,\n        address _newOwner\n    ) public\n        isTopDomainRegistered(_topDomainName)\n        isTopDomainOwner(_topDomainName)\n      payable\n    {\n        uint index = topDomainsHashMap[getTopDomainHash(_topDomainName)];\n        address currentOwner = topDomains[index].owner;\n\n        // Delete from current owner\n        uint[] storage currentOwnerTopDomainList = topDomainsOwnerMap[currentOwner];\n        uint indexToRemove = topDomains[index].ownerIndex;\n        currentOwnerTopDomainList[indexToRemove] =\n            currentOwnerTopDomainList[currentOwnerTopDomainList.length - 1];\n        currentOwnerTopDomainList.length--;\n\n        // Update the references to the new owner\n        uint[] storage newOwnerTopDomainList = topDomainsOwnerMap[_newOwner];\n        newOwnerTopDomainList.push(index);\n        topDomains[index].owner = _newOwner;\n        topDomains[index].ownerIndex = newOwnerTopDomainList.length - 1;\n\n        emit TopDomainOwnershipChanged(_topDomainName, _newOwner);\n    }\n\n    function renewTopDomain(\n        string memory _topDomainName\n    ) public\n        isTopDomainRegistered(_topDomainName)\n        isTopDomainOwner(_topDomainName)\n      payable\n    {\n        uint index = topDomainsHashMap[getTopDomainHash(_topDomainName)];\n        uint topDomainExpireDate = topDomains[index].expires;\n        uint newExpireDate = topDomainExpireDate + TOP_DOMAIN_EXPIRATION_DAYS;\n        topDomains[index].expires = newExpireDate;\n\n        emit TopDomainRenewed(_topDomainName, newExpireDate);\n    }\n\n    function topDomainAlreadyRegistered(\n        string memory _topDomainName\n    ) public view returns(bool)\n    {\n        uint index = topDomainsHashMap[getTopDomainHash(_topDomainName)];\n        return bytes(topDomains[index].name).length != 0;\n    }\n\n    function getTopDomainsLength() public view returns (uint)\n    {\n        return topDomains.length;\n    }\n\n    function registerDomain(\n        string memory _domainName,\n        string memory _topDomainName,\n        string memory _storageHash\n    ) public\n        isTopDomainNameMinLengthValid(_topDomainName)\n        isTopDomainNameMaxLengthValid(_topDomainName)\n        isTopDomainRegistered(_topDomainName)\n        isDomainNameMinLengthValid(_domainName)\n        isDomainNotRegistered(_domainName, _topDomainName)\n      payable\n    {\n        bytes32 domainCompleteHash = getCompleteDomainHash(_domainName, _topDomainName);\n        uint[] storage ownerDomainList = domainsOwnerMap[msg.sender];\n\n        uint ownerDomainListIndex = ownerDomainList.length;\n        uint domainsIndex = domains.length;\n\n        domainsHashMap[domainCompleteHash] = domainsIndex;\n        domainsStorageHash[_storageHash] = domainsIndex;\n\n        Domain memory newDomain = Domain({\n            name: _domainName,\n            topDomain: _topDomainName,\n            storageHash: _storageHash,\n            expires: now + DOMAIN_EXPIRATION_DAYS,\n            owner: msg.sender,\n            ownerIndex: ownerDomainListIndex\n        });\n\n        domains.push(newDomain);\n        ownerDomainList.push(domainsIndex);\n\n        emit DomainRegistered(_domainName, _topDomainName, msg.sender);\n    }\n\n    function getStorageHashByDomain(\n        string memory _domainName,\n        string memory _topDomainName\n    ) public\n        isDomainRegistered(_domainName, _topDomainName)\n      view returns(string memory)\n    {\n        bytes32 completeDomainHash = getCompleteDomainHash(_domainName, _topDomainName);\n        uint index = domainsHashMap[completeDomainHash];\n        return domains[index].storageHash;\n    }\n\n    function updateDomainStorageHash(\n        string memory _domainName,\n        string memory _topDomainName,\n        string memory _storageHash\n    ) public\n        isDomainRegistered(_domainName, _topDomainName)\n        isDomainOwner(_domainName, _topDomainName)\n      payable\n    {\n        bytes32 completeDomainHash = getCompleteDomainHash(_domainName, _topDomainName);\n        uint index = domainsHashMap[completeDomainHash];\n        domains[index].storageHash = _storageHash;\n        domainsStorageHash[_storageHash] = index;\n\n        emit DomainStorageHashUpdated(_domainName, _topDomainName, _storageHash);\n    }\n\n    function renewDomain(\n        string memory _domainName,\n        string memory _topDomainName\n    ) public\n        isDomainRegistered(_domainName, _topDomainName)\n        isDomainOwner(_domainName, _topDomainName)\n      payable\n    {\n        uint index = domainsHashMap[getCompleteDomainHash(_domainName, _topDomainName)];\n        uint domainExpireDate = domains[index].expires;\n        uint newExpireDate = domainExpireDate + DOMAIN_EXPIRATION_DAYS;\n        domains[index].expires = newExpireDate;\n\n        emit DomainRenewed(_domainName, _topDomainName, newExpireDate);\n    }\n\n    function changeDomainOwnership(\n        string memory _domainName,\n        string memory _topDomainName,\n        address _newOwner\n    ) public\n        isDomainRegistered(_domainName, _topDomainName)\n        isDomainOwner(_domainName, _topDomainName)\n    {\n        uint index = domainsHashMap[getCompleteDomainHash(_domainName, _topDomainName)];\n        address currentOwner = domains[index].owner;\n\n        // Delete from current owner\n        uint[] storage currentOwnerDomainList = domainsOwnerMap[currentOwner];\n        uint indexToRemove = domains[index].ownerIndex;\n        currentOwnerDomainList[indexToRemove] = currentOwnerDomainList[currentOwnerDomainList.length - 1];\n        currentOwnerDomainList.length--;\n\n        // Update the references to the new owner\n        uint[] storage newOwnerDomainList = domainsOwnerMap[_newOwner];\n        newOwnerDomainList.push(index);\n        domains[index].owner = _newOwner;\n        domains[index].ownerIndex = newOwnerDomainList.length - 1;\n\n        emit DomainOwnershipChanged(_domainName, _topDomainName, _newOwner);\n    }\n\n    function getDomainByHash(\n        bytes32 _hash\n    ) public view returns (string memory name, string memory topDomain, string memory storageHash, uint expires, address owner)\n    {\n        uint index = domainsHashMap[_hash];\n        return (domains[index].name, domains[index].topDomain, domains[index].storageHash, domains[index].expires, domains[index].owner);\n    }\n\n    function domainAlreadyRegistered(\n        string memory _domainName,\n        string memory _topDomainName\n    ) public view returns(bool)\n    {\n        uint index = domainsHashMap[getCompleteDomainHash(_domainName,_topDomainName)];\n        return bytes(domains[index].name).length != 0;\n    }\n\n    function getDomainsLength() public view returns (uint)\n    {\n        return domains.length;\n    }\n\n    function getCompleteDomainHash(\n        string memory _domainName,\n        string memory _topDomainName\n    ) public pure returns(bytes32)\n    {\n        return keccak256(abi.encodePacked(_domainName, _topDomainName));\n    }\n\n    function getAllDomainsByOwner(\n    ) public view\n        returns (\n            string[] memory name,\n            string[] memory topDomain,\n            string[] memory storageHash,\n            uint[] memory expires)\n    {\n        uint[] memory indexes = domainsOwnerMap[msg.sender];\n        string[] memory resultNames = new string[](indexes.length);\n        string[] memory resultTopDomains = new string[](indexes.length);\n        string[] memory resultStorageHashes = new string[](indexes.length);\n        uint[] memory resultExpires = new uint[](indexes.length);\n\n        for(uint i = 0; i < indexes.length; i++){\n            resultNames[i] = domains[indexes[i]].name;\n            resultTopDomains[i] = domains[indexes[i]].topDomain;\n            resultStorageHashes[i] = domains[indexes[i]].storageHash;\n            resultExpires[i] = domains[indexes[i]].expires;\n        }\n\n        return (resultNames, resultTopDomains, resultStorageHashes, resultExpires);\n    }\n\n    function getDomainByStorageHash(\n        string memory storageHash\n    ) public view\n        returns (\n            string memory topDomain,\n            string memory domain)\n    {\n        uint index = domainsStorageHash[storageHash];\n        return (domains[index].topDomain, domains[index].name);\n    }\n}\n",
  "sourcePath": "C:/File/Repo/Git/jns/packages/smartcontract/contracts/JanusNameService.sol",
  "compiler": {
    "name": "solc",
    "version": "0.5.11+commit.c082d0b4.Emscripten.clang"
  },
  "schemaVersion": "3.0.16",
  "updatedAt": "2019-10-15T21:03:20.436Z",
  "devdoc": {
    "methods": {}
  },
  "userdoc": {
    "methods": {}
  }
}