{
  "contractName": "JanusNameService",
  "abi": [
    {
      "constant": true,
      "inputs": [
        {
          "internalType": "string",
          "name": "",
          "type": "string"
        }
      ],
      "name": "domainsStorageHash",
      "outputs": [
        {
          "internalType": "uint256",
          "name": "",
          "type": "uint256"
        }
      ],
      "payable": false,
      "stateMutability": "view",
      "type": "function"
    },
    {
      "constant": true,
      "inputs": [
        {
          "internalType": "address",
          "name": "",
          "type": "address"
        },
        {
          "internalType": "uint256",
          "name": "",
          "type": "uint256"
        }
      ],
      "name": "domainsOwnerMap",
      "outputs": [
        {
          "internalType": "uint256",
          "name": "",
          "type": "uint256"
        }
      ],
      "payable": false,
      "stateMutability": "view",
      "type": "function"
    },
    {
      "constant": true,
      "inputs": [],
      "name": "contractOwner",
      "outputs": [
        {
          "internalType": "address payable",
          "name": "",
          "type": "address"
        }
      ],
      "payable": false,
      "stateMutability": "view",
      "type": "function"
    },
    {
      "constant": true,
      "inputs": [
        {
          "internalType": "bytes32",
          "name": "",
          "type": "bytes32"
        }
      ],
      "name": "domainsHashMap",
      "outputs": [
        {
          "internalType": "uint256",
          "name": "",
          "type": "uint256"
        }
      ],
      "payable": false,
      "stateMutability": "view",
      "type": "function"
    },
    {
      "inputs": [],
      "payable": false,
      "stateMutability": "nonpayable",
      "type": "constructor"
    },
    {
      "anonymous": false,
      "inputs": [
        {
          "indexed": false,
          "internalType": "string",
          "name": "_topDomainName",
          "type": "string"
        }
      ],
      "name": "TopDomainRegistered",
      "type": "event"
    },
    {
      "anonymous": false,
      "inputs": [
        {
          "indexed": false,
          "internalType": "string",
          "name": "_topDomainName",
          "type": "string"
        },
        {
          "indexed": false,
          "internalType": "address",
          "name": "_newOwnerAddress",
          "type": "address"
        }
      ],
      "name": "TopDomainOwnershipChanged",
      "type": "event"
    },
    {
      "anonymous": false,
      "inputs": [
        {
          "indexed": false,
          "internalType": "string",
          "name": "_topDomainName",
          "type": "string"
        },
        {
          "indexed": false,
          "internalType": "uint256",
          "name": "_newExpire",
          "type": "uint256"
        }
      ],
      "name": "TopDomainRenewed",
      "type": "event"
    },
    {
      "anonymous": false,
      "inputs": [
        {
          "indexed": false,
          "internalType": "string",
          "name": "_domainName",
          "type": "string"
        },
        {
          "indexed": false,
          "internalType": "string",
          "name": "_topDomainName",
          "type": "string"
        }
      ],
      "name": "DomainRegistered",
      "type": "event"
    },
    {
      "anonymous": false,
      "inputs": [
        {
          "indexed": false,
          "internalType": "string",
          "name": "_domainName",
          "type": "string"
        },
        {
          "indexed": false,
          "internalType": "string",
          "name": "_topDomainName",
          "type": "string"
        },
        {
          "indexed": false,
          "internalType": "string",
          "name": "_storageHash",
          "type": "string"
        }
      ],
      "name": "DomainStorageHashUpdated",
      "type": "event"
    },
    {
      "anonymous": false,
      "inputs": [
        {
          "indexed": false,
          "internalType": "string",
          "name": "_domainName",
          "type": "string"
        },
        {
          "indexed": false,
          "internalType": "string",
          "name": "_topDomainName",
          "type": "string"
        },
        {
          "indexed": false,
          "internalType": "uint256",
          "name": "_newExpire",
          "type": "uint256"
        }
      ],
      "name": "DomainRenewed",
      "type": "event"
    },
    {
      "constant": false,
      "inputs": [],
      "name": "kill",
      "outputs": [],
      "payable": false,
      "stateMutability": "nonpayable",
      "type": "function"
    },
    {
      "constant": false,
      "inputs": [
        {
          "internalType": "string",
          "name": "_topDomainName",
          "type": "string"
        }
      ],
      "name": "registerTopDomain",
      "outputs": [],
      "payable": true,
      "stateMutability": "payable",
      "type": "function"
    },
    {
      "constant": true,
      "inputs": [],
      "name": "getAllTopDomainsByOwner",
      "outputs": [
        {
          "internalType": "string[]",
          "name": "name",
          "type": "string[]"
        },
        {
          "internalType": "uint256[]",
          "name": "expires",
          "type": "uint256[]"
        }
      ],
      "payable": false,
      "stateMutability": "view",
      "type": "function"
    },
    {
      "constant": true,
      "inputs": [
        {
          "internalType": "bytes32",
          "name": "_hash",
          "type": "bytes32"
        }
      ],
      "name": "getTopDomainByHash",
      "outputs": [
        {
          "internalType": "string",
          "name": "name",
          "type": "string"
        },
        {
          "internalType": "uint256",
          "name": "expires",
          "type": "uint256"
        },
        {
          "internalType": "address",
          "name": "owner",
          "type": "address"
        }
      ],
      "payable": false,
      "stateMutability": "view",
      "type": "function"
    },
    {
      "constant": true,
      "inputs": [
        {
          "internalType": "string",
          "name": "_topDomainName",
          "type": "string"
        }
      ],
      "name": "getTopDomainHash",
      "outputs": [
        {
          "internalType": "bytes32",
          "name": "",
          "type": "bytes32"
        }
      ],
      "payable": false,
      "stateMutability": "pure",
      "type": "function"
    },
    {
      "constant": false,
      "inputs": [
        {
          "internalType": "string",
          "name": "_topDomainName",
          "type": "string"
        },
        {
          "internalType": "address",
          "name": "_newOwnerAddress",
          "type": "address"
        }
      ],
      "name": "changeTopDomainOwnership",
      "outputs": [],
      "payable": true,
      "stateMutability": "payable",
      "type": "function"
    },
    {
      "constant": false,
      "inputs": [
        {
          "internalType": "string",
          "name": "_topDomainName",
          "type": "string"
        }
      ],
      "name": "renewTopDomain",
      "outputs": [],
      "payable": true,
      "stateMutability": "payable",
      "type": "function"
    },
    {
      "constant": true,
      "inputs": [
        {
          "internalType": "string",
          "name": "_topDomainName",
          "type": "string"
        }
      ],
      "name": "topDomainAlreadyRegistered",
      "outputs": [
        {
          "internalType": "bool",
          "name": "",
          "type": "bool"
        }
      ],
      "payable": false,
      "stateMutability": "view",
      "type": "function"
    },
    {
      "constant": true,
      "inputs": [],
      "name": "getTopDomainsLength",
      "outputs": [
        {
          "internalType": "uint256",
          "name": "",
          "type": "uint256"
        }
      ],
      "payable": false,
      "stateMutability": "view",
      "type": "function"
    },
    {
      "constant": false,
      "inputs": [
        {
          "internalType": "string",
          "name": "_domainName",
          "type": "string"
        },
        {
          "internalType": "string",
          "name": "_topDomainName",
          "type": "string"
        },
        {
          "internalType": "string",
          "name": "_storageHash",
          "type": "string"
        }
      ],
      "name": "registerDomain",
      "outputs": [],
      "payable": true,
      "stateMutability": "payable",
      "type": "function"
    },
    {
      "constant": true,
      "inputs": [
        {
          "internalType": "string",
          "name": "_domainName",
          "type": "string"
        },
        {
          "internalType": "string",
          "name": "_topDomainName",
          "type": "string"
        }
      ],
      "name": "getStorageHashByDomain",
      "outputs": [
        {
          "internalType": "string",
          "name": "",
          "type": "string"
        }
      ],
      "payable": false,
      "stateMutability": "view",
      "type": "function"
    },
    {
      "constant": false,
      "inputs": [
        {
          "internalType": "string",
          "name": "_domainName",
          "type": "string"
        },
        {
          "internalType": "string",
          "name": "_topDomainName",
          "type": "string"
        },
        {
          "internalType": "string",
          "name": "_storageHash",
          "type": "string"
        }
      ],
      "name": "updateDomainStorageHash",
      "outputs": [],
      "payable": true,
      "stateMutability": "payable",
      "type": "function"
    },
    {
      "constant": false,
      "inputs": [
        {
          "internalType": "string",
          "name": "_domainName",
          "type": "string"
        },
        {
          "internalType": "string",
          "name": "_topDomainName",
          "type": "string"
        }
      ],
      "name": "renewDomain",
      "outputs": [],
      "payable": true,
      "stateMutability": "payable",
      "type": "function"
    },
    {
      "constant": true,
      "inputs": [
        {
          "internalType": "bytes32",
          "name": "_hash",
          "type": "bytes32"
        }
      ],
      "name": "getDomainByHash",
      "outputs": [
        {
          "internalType": "string",
          "name": "name",
          "type": "string"
        },
        {
          "internalType": "string",
          "name": "topDomain",
          "type": "string"
        },
        {
          "internalType": "string",
          "name": "storageHash",
          "type": "string"
        },
        {
          "internalType": "uint256",
          "name": "expires",
          "type": "uint256"
        },
        {
          "internalType": "address",
          "name": "owner",
          "type": "address"
        }
      ],
      "payable": false,
      "stateMutability": "view",
      "type": "function"
    },
    {
      "constant": true,
      "inputs": [
        {
          "internalType": "string",
          "name": "_domainName",
          "type": "string"
        },
        {
          "internalType": "string",
          "name": "_topDomainName",
          "type": "string"
        }
      ],
      "name": "domainAlreadyRegistered",
      "outputs": [
        {
          "internalType": "bool",
          "name": "",
          "type": "bool"
        }
      ],
      "payable": false,
      "stateMutability": "view",
      "type": "function"
    },
    {
      "constant": true,
      "inputs": [],
      "name": "getDomainsLength",
      "outputs": [
        {
          "internalType": "uint256",
          "name": "",
          "type": "uint256"
        }
      ],
      "payable": false,
      "stateMutability": "view",
      "type": "function"
    },
    {
      "constant": true,
      "inputs": [
        {
          "internalType": "string",
          "name": "_domainName",
          "type": "string"
        },
        {
          "internalType": "string",
          "name": "_topDomainName",
          "type": "string"
        }
      ],
      "name": "getCompleteDomainHash",
      "outputs": [
        {
          "internalType": "bytes32",
          "name": "",
          "type": "bytes32"
        }
      ],
      "payable": false,
      "stateMutability": "pure",
      "type": "function"
    },
    {
      "constant": true,
      "inputs": [],
      "name": "getAllDomainsByOwner",
      "outputs": [
        {
          "internalType": "string[]",
          "name": "name",
          "type": "string[]"
        },
        {
          "internalType": "string[]",
          "name": "topDomain",
          "type": "string[]"
        },
        {
          "internalType": "string[]",
          "name": "storageHash",
          "type": "string[]"
        },
        {
          "internalType": "uint256[]",
          "name": "expires",
          "type": "uint256[]"
        }
      ],
      "payable": false,
      "stateMutability": "view",
      "type": "function"
    },
    {
      "constant": true,
      "inputs": [
        {
          "internalType": "string",
          "name": "storageHash",
          "type": "string"
        }
      ],
      "name": "getDomainByStorageHash",
      "outputs": [
        {
          "internalType": "string",
          "name": "topDomain",
          "type": "string"
        },
        {
          "internalType": "string",
          "name": "domain",
          "type": "string"
        }
      ],
      "payable": false,
      "stateMutability": "view",
      "type": "function"
    }
  ],
  "bytecode": "0x60806040523480156200001157600080fd5b50336000806101000a81548173ffffffffffffffffffffffffffffffffffffffff021916908373ffffffffffffffffffffffffffffffffffffffff1602179055506001604051806060016040528060405180602001604052806000815250815260200160008152602001600073ffffffffffffffffffffffffffffffffffffffff16815250908060018154018082558091505090600182039060005260206000209060030201600090919290919091506000820151816000019080519060200190620000df92919062000284565b506020820151816001015560408201518160020160006101000a81548173ffffffffffffffffffffffffffffffffffffffff021916908373ffffffffffffffffffffffffffffffffffffffff16021790555050505060046040518060a0016040528060405180602001604052806000815250815260200160405180602001604052806000815250815260200160405180602001604052806000815250815260200160008152602001600073ffffffffffffffffffffffffffffffffffffffff16815250908060018154018082558091505090600182039060005260206000209060050201600090919290919091506000820151816000019080519060200190620001eb92919062000284565b5060208201518160010190805190602001906200020a92919062000284565b5060408201518160020190805190602001906200022992919062000284565b506060820151816003015560808201518160040160006101000a81548173ffffffffffffffffffffffffffffffffffffffff021916908373ffffffffffffffffffffffffffffffffffffffff16021790555050505062000333565b828054600181600116156101000203166002900490600052602060002090601f016020900481019282601f10620002c757805160ff1916838001178555620002f8565b82800160010185558215620002f8579182015b82811115620002f7578251825591602001919060010190620002da565b5b5090506200030791906200030b565b5090565b6200033091905b808211156200032c57600081600090555060010162000312565b5090565b90565b61363c80620003436000396000f3fe6080604052600436106101405760003560e01c8063775a5140116100b6578063d83dfdec1161006f578063d83dfdec1461046a578063d8f84ead146104a7578063d97750a4146104e4578063e0cf381214610510578063edb48c561461054d578063ee15bc621461056957610140565b8063775a51401461032d5780639545bb421461036a578063a391703514610386578063bbd462c4146103c3578063ce606ee014610400578063d4e643831461042b57610140565b806333d314251161010857806333d31425146102255780633c45357c146102415780633d7771d21461028257806341c0e1b5146102ad5780636c07d84c146102c45780636ffb6cb8146102ef57610140565b806305f04ea4146101455780630f0735d9146101825780630fbf844b1461019e578063210c5c38146101ba5780632d1658e8146101e8575b600080fd5b34801561015157600080fd5b5061016c60048036036101679190810190612799565b610585565b60405161017991906133a8565b60405180910390f35b61019c6004803603610197919081019061286f565b6105b3565b005b6101b860048036036101b391908101906128db565b61079d565b005b3480156101c657600080fd5b506101cf610991565b6040516101df9493929190612f8a565b60405180910390f35b3480156101f457600080fd5b5061020f600480360361020a91908101906127da565b610e2d565b60405161021c919061303d565b60405180910390f35b61023f600480360361023a919081019061281b565b610e5d565b005b34801561024d57600080fd5b5061026860048036036102639190810190612770565b611048565b60405161027995949392919061312d565b60405180910390f35b34801561028e57600080fd5b50610297611308565b6040516102a491906133a8565b60405180910390f35b3480156102b957600080fd5b506102c2611315565b005b3480156102d057600080fd5b506102d96113de565b6040516102e691906133a8565b60405180910390f35b3480156102fb57600080fd5b50610316600480360361031191908101906127da565b6113eb565b6040516103249291906130aa565b60405180910390f35b34801561033957600080fd5b50610354600480360361034f9190810190612734565b61158f565b60405161036191906133a8565b60405180910390f35b610384600480360361037f91908101906127da565b6115bd565b005b34801561039257600080fd5b506103ad60048036036103a8919081019061286f565b611860565b6040516103ba919061303d565b60405180910390f35b3480156103cf57600080fd5b506103ea60048036036103e5919081019061286f565b611893565b6040516103f79190613058565b60405180910390f35b34801561040c57600080fd5b506104156119e0565b6040516104229190612f6f565b60405180910390f35b34801561043757600080fd5b50610452600480360361044d9190810190612770565b611a05565b6040516104619392919061320a565b60405180910390f35b34801561047657600080fd5b50610491600480360361048c9190810190612770565b611b48565b60405161049e91906133a8565b60405180910390f35b3480156104b357600080fd5b506104ce60048036036104c991908101906127da565b611b60565b6040516104db9190613022565b60405180910390f35b3480156104f057600080fd5b506104f9611bc0565b604051610507929190612feb565b60405180910390f35b34801561051c57600080fd5b506105376004803603610532919081019061286f565b611e19565b6040516105449190613022565b60405180910390f35b610567600480360361056291908101906128db565b611e7b565b005b610583600480360361057e91908101906127da565b612242565b005b6007818051602081018201805184825260208301602085012081835280955050505050506000915090505481565b81816000600560006105c58585611860565b8152602001908152602001600020541415610615576040517f08c379a000000000000000000000000000000000000000000000000000000000815260040161060c906132c8565b60405180910390fd5b83836000600560006106278585611860565b81526020019081526020016000205490503373ffffffffffffffffffffffffffffffffffffffff166004828154811061065c57fe5b906000526020600020906005020160040160009054906101000a900473ffffffffffffffffffffffffffffffffffffffff1673ffffffffffffffffffffffffffffffffffffffff16146106e4576040517f08c379a00000000000000000000000000000000000000000000000000000000081526004016106db90613268565b60405180910390fd5b6000600560006106f48a8a611860565b815260200190815260200160002054905060006004828154811061071457fe5b906000526020600020906005020160030154905060006301e1338082019050806004848154811061074157fe5b9060005260206000209060050201600301819055507ff266d11c683f745c2b249e6b63afff6597a267340a403addd0336a26bf601b098a8a8360405161078993929190613195565b60405180910390a150505050505050505050565b82826000600560006107af8585611860565b81526020019081526020016000205414156107ff576040517f08c379a00000000000000000000000000000000000000000000000000000000081526004016107f6906132c8565b60405180910390fd5b84846000600560006108118585611860565b81526020019081526020016000205490503373ffffffffffffffffffffffffffffffffffffffff166004828154811061084657fe5b906000526020600020906005020160040160009054906101000a900473ffffffffffffffffffffffffffffffffffffffff1673ffffffffffffffffffffffffffffffffffffffff16146108ce576040517f08c379a00000000000000000000000000000000000000000000000000000000081526004016108c590613268565b60405180910390fd5b60006108da8989611860565b9050600060056000838152602001908152602001600020549050876004828154811061090257fe5b906000526020600020906005020160020190805190602001906109269291906124ac565b50806007896040516109389190612f34565b9081526020016040518091039020819055507f53fefe0fa4d79f98ec788fb08233fb5f1a5373fe81058f04b568d4d0475e19758a8a8a60405161097d939291906130e1565b60405180910390a150505050505050505050565b6060806060806060600660003373ffffffffffffffffffffffffffffffffffffffff1673ffffffffffffffffffffffffffffffffffffffff168152602001908152602001600020805480602002602001604051908101604052809291908181526020018280548015610a2257602002820191906000526020600020905b815481526020019060010190808311610a0e575b5050505050905060608151604051908082528060200260200182016040528015610a6057816020015b6060815260200190600190039081610a4b5790505b50905060608251604051908082528060200260200182016040528015610a9a57816020015b6060815260200190600190039081610a855790505b50905060608351604051908082528060200260200182016040528015610ad457816020015b6060815260200190600190039081610abf5790505b50905060608451604051908082528060200260200182016040528015610b095781602001602082028038833980820191505090505b50905060008090505b8551811015610e15576004868281518110610b2957fe5b602002602001015181548110610b3b57fe5b90600052602060002090600502016000018054600181600116156101000203166002900480601f016020809104026020016040519081016040528092919081815260200182805460018160011615610100020316600290048015610be05780601f10610bb557610100808354040283529160200191610be0565b820191906000526020600020905b815481529060010190602001808311610bc357829003601f168201915b5050505050858281518110610bf157fe5b60200260200101819052506004868281518110610c0a57fe5b602002602001015181548110610c1c57fe5b90600052602060002090600502016001018054600181600116156101000203166002900480601f016020809104026020016040519081016040528092919081815260200182805460018160011615610100020316600290048015610cc15780601f10610c9657610100808354040283529160200191610cc1565b820191906000526020600020905b815481529060010190602001808311610ca457829003601f168201915b5050505050848281518110610cd257fe5b60200260200101819052506004868281518110610ceb57fe5b602002602001015181548110610cfd57fe5b90600052602060002090600502016002018054600181600116156101000203166002900480601f016020809104026020016040519081016040528092919081815260200182805460018160011615610100020316600290048015610da25780601f10610d7757610100808354040283529160200191610da2565b820191906000526020600020905b815481529060010190602001808311610d8557829003601f168201915b5050505050838281518110610db357fe5b60200260200101819052506004868281518110610dcc57fe5b602002602001015181548110610dde57fe5b906000526020600020906005020160030154828281518110610dfc57fe5b6020026020010181815250508080600101915050610b12565b50838383839850985098509850505050505090919293565b600081604051602001610e409190612f34565b604051602081830303815290604052805190602001209050919050565b81600060026000610e6d84610e2d565b8152602001908152602001600020541415610ebd576040517f08c379a0000000000000000000000000000000000000000000000000000000008152600401610eb490613248565b60405180910390fd5b82600060026000610ecd84610e2d565b81526020019081526020016000205490503373ffffffffffffffffffffffffffffffffffffffff1660018281548110610f0257fe5b906000526020600020906003020160020160009054906101000a900473ffffffffffffffffffffffffffffffffffffffff1673ffffffffffffffffffffffffffffffffffffffff1614610f8a576040517f08c379a0000000000000000000000000000000000000000000000000000000008152600401610f8190613288565b60405180910390fd5b600060026000610f9988610e2d565b81526020019081526020016000205490508460018281548110610fb857fe5b906000526020600020906003020160020160006101000a81548173ffffffffffffffffffffffffffffffffffffffff021916908373ffffffffffffffffffffffffffffffffffffffff1602179055507fcd8f5abec842d059bf95d565c28ea51a16469b7efa4e879e834c1f55b9ea0526868660405161103892919061307a565b60405180910390a1505050505050565b60608060606000806000600560008881526020019081526020016000205490506004818154811061107557fe5b90600052602060002090600502016000016004828154811061109357fe5b9060005260206000209060050201600101600483815481106110b157fe5b9060005260206000209060050201600201600484815481106110cf57fe5b906000526020600020906005020160030154600485815481106110ee57fe5b906000526020600020906005020160040160009054906101000a900473ffffffffffffffffffffffffffffffffffffffff16848054600181600116156101000203166002900480601f0160208091040260200160405190810160405280929190818152602001828054600181600116156101000203166002900480156111b55780601f1061118a576101008083540402835291602001916111b5565b820191906000526020600020905b81548152906001019060200180831161119857829003601f168201915b50505050509450838054600181600116156101000203166002900480601f0160208091040260200160405190810160405280929190818152602001828054600181600116156101000203166002900480156112515780601f1061122657610100808354040283529160200191611251565b820191906000526020600020905b81548152906001019060200180831161123457829003601f168201915b50505050509350828054600181600116156101000203166002900480601f0160208091040260200160405190810160405280929190818152602001828054600181600116156101000203166002900480156112ed5780601f106112c2576101008083540402835291602001916112ed565b820191906000526020600020905b8154815290600101906020018083116112d057829003601f168201915b50505050509250955095509550955095505091939590929450565b6000600180549050905090565b6000809054906101000a900473ffffffffffffffffffffffffffffffffffffffff1673ffffffffffffffffffffffffffffffffffffffff163373ffffffffffffffffffffffffffffffffffffffff16146113a4576040517f08c379a000000000000000000000000000000000000000000000000000000000815260040161139b90613348565b60405180910390fd5b6000809054906101000a900473ffffffffffffffffffffffffffffffffffffffff1673ffffffffffffffffffffffffffffffffffffffff16ff5b6000600480549050905090565b60608060006007846040516114009190612f34565b90815260200160405180910390205490506004818154811061141e57fe5b90600052602060002090600502016001016004828154811061143c57fe5b9060005260206000209060050201600001818054600181600116156101000203166002900480601f0160208091040260200160405190810160405280929190818152602001828054600181600116156101000203166002900480156114e25780601f106114b7576101008083540402835291602001916114e2565b820191906000526020600020905b8154815290600101906020018083116114c557829003601f168201915b50505050509150808054600181600116156101000203166002900480601f01602080910402602001604051908101604052809291908181526020018280546001816001161561010002031660029004801561157e5780601f106115535761010080835404028352916020019161157e565b820191906000526020600020905b81548152906001019060200180831161156157829003601f168201915b505050505090509250925050915091565b600660205281600052604060002081815481106115a857fe5b90600052602060002001600091509150505481565b80600281511015611603576040517f08c379a00000000000000000000000000000000000000000000000000000000081526004016115fa90613308565b60405180910390fd5b81600581511115611649576040517f08c379a0000000000000000000000000000000000000000000000000000000008152600401611640906132a8565b60405180910390fd5b8260006002600061165984610e2d565b815260200190815260200160002054146116a8576040517f08c379a000000000000000000000000000000000000000000000000000000000815260040161169f90613388565b60405180910390fd5b6116b061252c565b60405180606001604052808681526020016301e13380420181526020013373ffffffffffffffffffffffffffffffffffffffff168152509050600181908060018154018082558091505090600182039060005260206000209060030201600090919290919091506000820151816000019080519060200190611733929190612563565b506020820151816001015560408201518160020160006101000a81548173ffffffffffffffffffffffffffffffffffffffff021916908373ffffffffffffffffffffffffffffffffffffffff16021790555050505060006001808054905003905080600260006117a289610e2d565b81526020019081526020016000208190555060036000836040015173ffffffffffffffffffffffffffffffffffffffff1673ffffffffffffffffffffffffffffffffffffffff1681526020019081526020016000208190806001815401808255809150509060018203906000526020600020016000909192909190915055507f51c2a406d2d41743fe2cba2f87041244e498af76aad9f87b1906134e920b1269866040516118509190613058565b60405180910390a1505050505050565b60008282604051602001611875929190612f4b565b60405160208183030381529060405280519060200120905092915050565b606082826000600560006118a78585611860565b81526020019081526020016000205414156118f7576040517f08c379a00000000000000000000000000000000000000000000000000000000081526004016118ee906132c8565b60405180910390fd5b60006119038686611860565b90506000600560008381526020019081526020016000205490506004818154811061192a57fe5b90600052602060002090600502016002018054600181600116156101000203166002900480601f0160208091040260200160405190810160405280929190818152602001828054600181600116156101000203166002900480156119cf5780601f106119a4576101008083540402835291602001916119cf565b820191906000526020600020905b8154815290600101906020018083116119b257829003601f168201915b505050505094505050505092915050565b6000809054906101000a900473ffffffffffffffffffffffffffffffffffffffff1681565b606060008060006002600086815260200190815260200160002054905060018181548110611a2f57fe5b906000526020600020906003020160000160018281548110611a4d57fe5b90600052602060002090600302016001015460018381548110611a6c57fe5b906000526020600020906003020160020160009054906101000a900473ffffffffffffffffffffffffffffffffffffffff16828054600181600116156101000203166002900480601f016020809104026020016040519081016040528092919081815260200182805460018160011615610100020316600290048015611b335780601f10611b0857610100808354040283529160200191611b33565b820191906000526020600020905b815481529060010190602001808311611b1657829003601f168201915b50505050509250935093509350509193909250565b60056020528060005260406000206000915090505481565b60008060026000611b7085610e2d565b8152602001908152602001600020549050600060018281548110611b9057fe5b90600052602060002090600302016000018054600181600116156101000203166002900490501415915050919050565b6060806060600360003373ffffffffffffffffffffffffffffffffffffffff1673ffffffffffffffffffffffffffffffffffffffff168152602001908152602001600020805480602002602001604051908101604052809291908181526020018280548015611c4e57602002820191906000526020600020905b815481526020019060010190808311611c3a575b5050505050905060608151604051908082528060200260200182016040528015611c8c57816020015b6060815260200190600190039081611c775790505b50905060608251604051908082528060200260200182016040528015611cc15781602001602082028038833980820191505090505b50905060008090505b8351811015611e0b576001848281518110611ce157fe5b602002602001015181548110611cf357fe5b90600052602060002090600302016000018054600181600116156101000203166002900480601f016020809104026020016040519081016040528092919081815260200182805460018160011615610100020316600290048015611d985780601f10611d6d57610100808354040283529160200191611d98565b820191906000526020600020905b815481529060010190602001808311611d7b57829003601f168201915b5050505050838281518110611da957fe5b60200260200101819052506001848281518110611dc257fe5b602002602001015181548110611dd457fe5b906000526020600020906003020160010154828281518110611df257fe5b6020026020010181815250508080600101915050611cca565b508181945094505050509091565b60008060056000611e2a8686611860565b8152602001908152602001600020549050600060048281548110611e4a57fe5b9060005260206000209060050201600001805460018160011615610100020316600290049050141591505092915050565b81600281511015611ec1576040517f08c379a0000000000000000000000000000000000000000000000000000000008152600401611eb890613308565b60405180910390fd5b82600581511115611f07576040517f08c379a0000000000000000000000000000000000000000000000000000000008152600401611efe906132a8565b60405180910390fd5b83600060026000611f1784610e2d565b8152602001908152602001600020541415611f67576040517f08c379a0000000000000000000000000000000000000000000000000000000008152600401611f5e90613248565b60405180910390fd5b85600381511015611fad576040517f08c379a0000000000000000000000000000000000000000000000000000000008152600401611fa490613368565b60405180910390fd5b8686600060056000611fbf8585611860565b8152602001908152602001600020541461200e576040517f08c379a0000000000000000000000000000000000000000000000000000000008152600401612005906132e8565b60405180910390fd5b600061201a8a8a611860565b90506120246125e3565b6040518060a001604052808c81526020018b81526020018a81526020016301e13380420181526020013373ffffffffffffffffffffffffffffffffffffffff1681525090506004819080600181540180825580915050906001820390600052602060002090600502016000909192909190915060008201518160000190805190602001906120b3929190612563565b5060208201518160010190805190602001906120d0929190612563565b5060408201518160020190805190602001906120ed929190612563565b506060820151816003015560808201518160040160006101000a81548173ffffffffffffffffffffffffffffffffffffffff021916908373ffffffffffffffffffffffffffffffffffffffff1602179055505050506000600160048054905003905080600560008581526020019081526020016000208190555060066000836080015173ffffffffffffffffffffffffffffffffffffffff1673ffffffffffffffffffffffffffffffffffffffff16815260200190815260200160002081908060018154018082558091505090600182039060005260206000200160009091929091909150555080600783604001516040516121e99190612f1d565b9081526020016040518091039020819055507ff5e947bc58a45ca3f7c47f7a942b67608bb05338693c9dd564f093e315b8962e8c8c60405161222c9291906130aa565b60405180910390a1505050505050505050505050565b8060006002600061225284610e2d565b81526020019081526020016000205414156122a2576040517f08c379a000000000000000000000000000000000000000000000000000000000815260040161229990613248565b60405180910390fd5b816000600260006122b284610e2d565b81526020019081526020016000205490503373ffffffffffffffffffffffffffffffffffffffff16600182815481106122e757fe5b906000526020600020906003020160020160009054906101000a900473ffffffffffffffffffffffffffffffffffffffff1673ffffffffffffffffffffffffffffffffffffffff161461236f576040517f08c379a000000000000000000000000000000000000000000000000000000000815260040161236690613288565b60405180910390fd5b8360006002600061237f84610e2d565b81526020019081526020016000205490506303c267004201600182815481106123a457fe5b90600052602060002090600302016001015411156123f7576040517f08c379a00000000000000000000000000000000000000000000000000000000081526004016123ee90613328565b60405180910390fd5b60006002600061240689610e2d565b815260200190815260200160002054905060006001828154811061242657fe5b906000526020600020906003020160010154905060006301e1338082019050806001848154811061245357fe5b9060005260206000209060030201600101819055507f9af0026a3ecf9b0730f1fb6825130dc91b04ffda2c0d00f2e5ded9ca5a70fbc589826040516124999291906131da565b60405180910390a1505050505050505050565b828054600181600116156101000203166002900490600052602060002090601f016020900481019282601f106124ed57805160ff191683800117855561251b565b8280016001018555821561251b579182015b8281111561251a5782518255916020019190600101906124ff565b5b5090506125289190612628565b5090565b60405180606001604052806060815260200160008152602001600073ffffffffffffffffffffffffffffffffffffffff1681525090565b828054600181600116156101000203166002900490600052602060002090601f016020900481019282601f106125a457805160ff19168380011785556125d2565b828001600101855582156125d2579182015b828111156125d15782518255916020019190600101906125b6565b5b5090506125df9190612628565b5090565b6040518060a0016040528060608152602001606081526020016060815260200160008152602001600073ffffffffffffffffffffffffffffffffffffffff1681525090565b61264a91905b8082111561264657600081600090555060010161262e565b5090565b90565b60008135905061265c816135b4565b92915050565b600081359050612671816135cb565b92915050565b600082601f83011261268857600080fd5b813561269b612696826133f0565b6133c3565b915080825260208301602083018583830111156126b757600080fd5b6126c2838284613561565b50505092915050565b600082601f8301126126dc57600080fd5b81356126ef6126ea8261341c565b6133c3565b9150808252602083016020830185838301111561270b57600080fd5b612716838284613561565b50505092915050565b60008135905061272e816135e2565b92915050565b6000806040838503121561274757600080fd5b60006127558582860161264d565b92505060206127668582860161271f565b9150509250929050565b60006020828403121561278257600080fd5b600061279084828501612662565b91505092915050565b6000602082840312156127ab57600080fd5b600082013567ffffffffffffffff8111156127c557600080fd5b6127d184828501612677565b91505092915050565b6000602082840312156127ec57600080fd5b600082013567ffffffffffffffff81111561280657600080fd5b612812848285016126cb565b91505092915050565b6000806040838503121561282e57600080fd5b600083013567ffffffffffffffff81111561284857600080fd5b612854858286016126cb565b92505060206128658582860161264d565b9150509250929050565b6000806040838503121561288257600080fd5b600083013567ffffffffffffffff81111561289c57600080fd5b6128a8858286016126cb565b925050602083013567ffffffffffffffff8111156128c557600080fd5b6128d1858286016126cb565b9150509250929050565b6000806000606084860312156128f057600080fd5b600084013567ffffffffffffffff81111561290a57600080fd5b612916868287016126cb565b935050602084013567ffffffffffffffff81111561293357600080fd5b61293f868287016126cb565b925050604084013567ffffffffffffffff81111561295c57600080fd5b612968868287016126cb565b9150509250925092565b600061297e8383612b17565b905092915050565b60006129928383612eff565b60208301905092915050565b6129a78161350f565b82525050565b6129b6816134fd565b82525050565b60006129c782613468565b6129d181856134ae565b9350836020820285016129e385613448565b8060005b85811015612a1f5784840389528151612a008582612972565b9450612a0b83613494565b925060208a019950506001810190506129e7565b50829750879550505050505092915050565b6000612a3c82613473565b612a4681856134bf565b9350612a5183613458565b8060005b83811015612a82578151612a698882612986565b9750612a74836134a1565b925050600181019050612a55565b5085935050505092915050565b612a9881613521565b82525050565b612aa78161352d565b82525050565b6000612ab882613489565b612ac281856134e1565b9350612ad2818560208601613570565b612adb816135a3565b840191505092915050565b6000612af182613489565b612afb81856134f2565b9350612b0b818560208601613570565b80840191505092915050565b6000612b228261347e565b612b2c81856134d0565b9350612b3c818560208601613570565b612b45816135a3565b840191505092915050565b6000612b5b8261347e565b612b6581856134f2565b9350612b75818560208601613570565b80840191505092915050565b6000612b8e601c836134e1565b91507f746f7020646f6d61696e206973206e6f742072656769737465726564000000006000830152602082019050919050565b6000612bce6017836134e1565b91507f74686973206973206e6f7420796f757220646f6d61696e0000000000000000006000830152602082019050919050565b6000612c0e601b836134e1565b91507f74686973206973206e6f7420796f757220746f7020646f6d61696e00000000006000830152602082019050919050565b6000612c4e6025836134e1565b91507f746f7020646f6d61696e206e616d65206d6178206c656e67746820697320696e60008301527f76616c69640000000000000000000000000000000000000000000000000000006020830152604082019050919050565b6000612cb46018836134e1565b91507f646f6d61696e206973206e6f74207265676973746572656400000000000000006000830152602082019050919050565b6000612cf4601c836134e1565b91507f646f6d61696e20697320616c72656164792072656769737465726564000000006000830152602082019050919050565b6000612d346025836134e1565b91507f746f7020646f6d61696e206e616d65206d696e206c656e67746820697320696e60008301527f76616c69640000000000000000000000000000000000000000000000000000006020830152604082019050919050565b6000612d9a6021836134e1565b91507f72656e657720657870697265642064617465206c696d6974206578636565646560008301527f64000000000000000000000000000000000000000000000000000000000000006020830152604082019050919050565b6000612e00602e836134e1565b91507f6f6e6c792074686520636f6e7472616374206f776e65722063616e206b696c6c60008301527f207468697320636f6e74726163740000000000000000000000000000000000006020830152604082019050919050565b6000612e666021836134e1565b91507f646f6d61696e206e616d65206d696e206c656e67746820697320696e76616c6960008301527f64000000000000000000000000000000000000000000000000000000000000006020830152604082019050919050565b6000612ecc6020836134e1565b91507f746f7020646f6d61696e20697320616c726561647920726567697374657265646000830152602082019050919050565b612f0881613557565b82525050565b612f1781613557565b82525050565b6000612f298284612b50565b915081905092915050565b6000612f408284612ae6565b915081905092915050565b6000612f578285612ae6565b9150612f638284612ae6565b91508190509392505050565b6000602082019050612f84600083018461299e565b92915050565b60006080820190508181036000830152612fa481876129bc565b90508181036020830152612fb881866129bc565b90508181036040830152612fcc81856129bc565b90508181036060830152612fe08184612a31565b905095945050505050565b6000604082019050818103600083015261300581856129bc565b905081810360208301526130198184612a31565b90509392505050565b60006020820190506130376000830184612a8f565b92915050565b60006020820190506130526000830184612a9e565b92915050565b600060208201905081810360008301526130728184612aad565b905092915050565b600060408201905081810360008301526130948185612aad565b90506130a360208301846129ad565b9392505050565b600060408201905081810360008301526130c48185612aad565b905081810360208301526130d88184612aad565b90509392505050565b600060608201905081810360008301526130fb8186612aad565b9050818103602083015261310f8185612aad565b905081810360408301526131238184612aad565b9050949350505050565b600060a08201905081810360008301526131478188612aad565b9050818103602083015261315b8187612aad565b9050818103604083015261316f8186612aad565b905061317e6060830185612f0e565b61318b60808301846129ad565b9695505050505050565b600060608201905081810360008301526131af8186612aad565b905081810360208301526131c38185612aad565b90506131d26040830184612f0e565b949350505050565b600060408201905081810360008301526131f48185612aad565b90506132036020830184612f0e565b9392505050565b600060608201905081810360008301526132248186612aad565b90506132336020830185612f0e565b61324060408301846129ad565b949350505050565b6000602082019050818103600083015261326181612b81565b9050919050565b6000602082019050818103600083015261328181612bc1565b9050919050565b600060208201905081810360008301526132a181612c01565b9050919050565b600060208201905081810360008301526132c181612c41565b9050919050565b600060208201905081810360008301526132e181612ca7565b9050919050565b6000602082019050818103600083015261330181612ce7565b9050919050565b6000602082019050818103600083015261332181612d27565b9050919050565b6000602082019050818103600083015261334181612d8d565b9050919050565b6000602082019050818103600083015261336181612df3565b9050919050565b6000602082019050818103600083015261338181612e59565b9050919050565b600060208201905081810360008301526133a181612ebf565b9050919050565b60006020820190506133bd6000830184612f0e565b92915050565b6000604051905081810181811067ffffffffffffffff821117156133e657600080fd5b8060405250919050565b600067ffffffffffffffff82111561340757600080fd5b601f19601f8301169050602081019050919050565b600067ffffffffffffffff82111561343357600080fd5b601f19601f8301169050602081019050919050565b6000819050602082019050919050565b6000819050602082019050919050565b600081519050919050565b600081519050919050565b600081519050919050565b600081519050919050565b6000602082019050919050565b6000602082019050919050565b600082825260208201905092915050565b600082825260208201905092915050565b600082825260208201905092915050565b600082825260208201905092915050565b600081905092915050565b600061350882613537565b9050919050565b600061351a82613537565b9050919050565b60008115159050919050565b6000819050919050565b600073ffffffffffffffffffffffffffffffffffffffff82169050919050565b6000819050919050565b82818337600083830152505050565b60005b8381101561358e578082015181840152602081019050613573565b8381111561359d576000848401525b50505050565b6000601f19601f8301169050919050565b6135bd816134fd565b81146135c857600080fd5b50565b6135d48161352d565b81146135df57600080fd5b50565b6135eb81613557565b81146135f657600080fd5b5056fea365627a7a723158205cc4f501d1f9295bd18060fc50669b051235dd03f2a9d24bd24ba67c3948c9066c6578706572696d656e74616cf564736f6c634300050b0040",
  "source": "pragma solidity ^0.5.9;\npragma experimental ABIEncoderV2;\n\ncontract JanusNameService {\n\n    address payable public contractOwner;\n\n    uint constant TOP_DOMAIN_NAME_MIN_LENGTH = 2;\n    uint constant TOP_DOMAIN_NAME_MAX_LENGTH = 5;\n    uint constant TOP_DOMAIN_EXPIRATION_DAYS = 365 days;\n    uint constant TOP_DOMAIN_RENEW_LIMIT = 730 days;\n\n    uint constant DOMAIN_EXPIRATION_DAYS = 365 days;\n    uint constant DOMAIN_NAME_MIN_LENGTH = 3;\n    uint constant DOMAIN_RENEW_LIMIT = 730 days;\n\n    struct TopDomain {\n        string name;\n        uint expires;\n        address owner;\n    }\n\n    struct Domain {\n        string name;\n        string topDomain;\n        string storageHash;\n        uint expires;\n        address owner;\n    }\n\n    TopDomain[] private topDomains;\n    mapping(bytes32 => uint) private topDomainsHashMap;\n    mapping(address => uint[]) private topDomainsOwnerMap;\n\n    Domain[] private domains;\n    mapping(bytes32 => uint) public domainsHashMap;\n    mapping(address => uint[]) public domainsOwnerMap;\n    mapping(string => uint) public domainsStorageHash;\n\n    constructor () public{\n        contractOwner = msg.sender;\n        topDomains.push(TopDomain('', 0, address(0x0)));\n        domains.push(Domain('', '', '', 0, address(0x0)));\n    }\n\n    function kill() external {\n        require(msg.sender == contractOwner, 'only the contract owner can kill this contract');\n        selfdestruct(contractOwner);\n    }\n\n    modifier isTopDomainNameMinLengthValid(\n        string memory _topDomainName\n    )\n    {\n        require(\n            bytes(_topDomainName).length >= TOP_DOMAIN_NAME_MIN_LENGTH,\n            'top domain name min length is invalid'\n        );\n        _;\n    }\n\n    modifier isTopDomainNameMaxLengthValid(\n        string memory _topDomainName\n    )\n    {\n        require(\n            bytes(_topDomainName).length <= TOP_DOMAIN_NAME_MAX_LENGTH,\n            'top domain name max length is invalid'\n        );\n        _;\n    }\n\n    modifier isTopDomainRegistered(\n        string memory _topDomainName\n    )\n    {\n        require(\n            topDomainsHashMap[getTopDomainHash(_topDomainName)] != 0,\n            'top domain is not registered'\n        );\n        _;\n    }\n\n    modifier isTopDomainNotRegistered(\n        string memory _topDomainName\n    )\n    {\n        require(\n            topDomainsHashMap[getTopDomainHash(_topDomainName)] == 0,\n            'top domain is already registered'\n        );\n        _;\n    }\n\n    modifier isTopDomainOwner(\n        string memory _topDomainName\n    )\n    {\n        uint index = topDomainsHashMap[getTopDomainHash(_topDomainName)];\n        require(\n            topDomains[index].owner == msg.sender,\n            'this is not your top domain'\n        );\n        _;\n    }\n\n    modifier isTopDomainDateExpirationValid(\n        string memory _topDomainName\n    )\n    {\n        uint index = topDomainsHashMap[getTopDomainHash(_topDomainName)];\n        require(\n            topDomains[index].expires <= now + TOP_DOMAIN_RENEW_LIMIT,\n            'renew expired date limit exceeded'\n        );\n        _;\n    }\n\n    modifier isDomainNameMinLengthValid(\n        string memory _domainName\n    )\n    {\n        require(\n            bytes(_domainName).length >= DOMAIN_NAME_MIN_LENGTH,\n            'domain name min length is invalid'\n        );\n        _;\n    }\n\n    modifier isDomainNotRegistered(\n        string memory _domainName,\n        string memory _topDomainName\n    )\n    {\n        require(\n            domainsHashMap[getCompleteDomainHash(_domainName,_topDomainName)] == 0,\n            'domain is already registered'\n        );\n        _;\n    }\n\n    modifier isDomainRegistered(\n         string memory _domainName,\n         string memory _topDomainName\n    )\n    {\n        require(\n            domainsHashMap[getCompleteDomainHash(_domainName, _topDomainName)] != 0,\n            'domain is not registered'\n        );\n        _;\n    }\n\n    modifier isDomainOwner(\n         string memory _domainName,\n         string memory _topDomainName\n    )\n    {\n        uint index = domainsHashMap[getCompleteDomainHash(_domainName, _topDomainName)];\n        require(\n            domains[index].owner == msg.sender,\n            'this is not your domain'\n        );\n        _;\n    }\n\n    event TopDomainRegistered(\n        string _topDomainName\n    );\n\n    event TopDomainOwnershipChanged(\n        string _topDomainName,\n        address _newOwnerAddress\n    );\n\n    event TopDomainRenewed(\n        string _topDomainName,\n        uint _newExpire\n    );\n\n    event DomainRegistered(\n        string _domainName,\n        string _topDomainName\n    );\n\n    event DomainStorageHashUpdated(\n        string _domainName,\n        string _topDomainName,\n        string _storageHash\n    );\n\n    event DomainRenewed(\n        string _domainName,\n        string _topDomainName,\n        uint _newExpire\n    );\n\n    function registerTopDomain(\n        string memory _topDomainName\n    ) public\n        isTopDomainNameMinLengthValid(_topDomainName)\n        isTopDomainNameMaxLengthValid(_topDomainName)\n        isTopDomainNotRegistered(_topDomainName)\n      payable\n    {\n        TopDomain memory newTopDomain = TopDomain({\n            name: _topDomainName,\n            expires: now + TOP_DOMAIN_EXPIRATION_DAYS,\n            owner: msg.sender\n        });\n\n        topDomains.push(newTopDomain);\n\n        uint topDomainsIndex = topDomains.length - 1;\n\n        topDomainsHashMap[getTopDomainHash(_topDomainName)] = topDomainsIndex;\n        topDomainsOwnerMap[newTopDomain.owner].push(topDomainsIndex);\n\n        emit TopDomainRegistered(_topDomainName);\n    }\n\n    function getAllTopDomainsByOwner() public view returns (string[] memory name, uint[] memory expires)\n    {\n        uint[] memory indexes = topDomainsOwnerMap[msg.sender];\n        string[] memory resultName = new string[](indexes.length);\n        uint[] memory resultExpire = new uint[](indexes.length);\n\n        for(uint i = 0; i < indexes.length; i++){\n            resultName[i] = topDomains[indexes[i]].name;\n            resultExpire[i] = topDomains[indexes[i]].expires;\n        }\n\n        return (resultName, resultExpire);\n    }\n\n    function getTopDomainByHash(\n        bytes32 _hash\n    ) public view returns (string memory name, uint expires, address owner)\n    {\n        uint index = topDomainsHashMap[_hash];\n        return (topDomains[index].name, topDomains[index].expires, topDomains[index].owner);\n    }\n\n    function getTopDomainHash(\n        string memory _topDomainName\n    ) public pure returns (bytes32)\n    {\n        return keccak256(abi.encodePacked(_topDomainName));\n    }\n\n    function changeTopDomainOwnership(\n        string memory _topDomainName,\n        address _newOwnerAddress\n    ) public\n        isTopDomainRegistered(_topDomainName)\n        isTopDomainOwner(_topDomainName)\n      payable\n    {\n        uint index = topDomainsHashMap[getTopDomainHash(_topDomainName)];\n        topDomains[index].owner = _newOwnerAddress;\n        emit TopDomainOwnershipChanged(_topDomainName, _newOwnerAddress);\n    }\n\n    function renewTopDomain(\n        string memory _topDomainName\n    ) public\n        isTopDomainRegistered(_topDomainName)\n        isTopDomainOwner(_topDomainName)\n        isTopDomainDateExpirationValid(_topDomainName)\n      payable\n    {\n        uint index = topDomainsHashMap[getTopDomainHash(_topDomainName)];\n        uint topDomainExpireDate = topDomains[index].expires;\n        uint newExpireDate = topDomainExpireDate + TOP_DOMAIN_EXPIRATION_DAYS;\n        topDomains[index].expires = newExpireDate;\n\n        emit TopDomainRenewed(_topDomainName, newExpireDate);\n    }\n\n    function topDomainAlreadyRegistered(\n        string memory _topDomainName\n    ) public view returns(bool)\n    {\n        uint index = topDomainsHashMap[getTopDomainHash(_topDomainName)];\n        return bytes(topDomains[index].name).length != 0;\n    }\n\n    function getTopDomainsLength() public view returns (uint)\n    {\n        return topDomains.length;\n    }\n\n    function registerDomain(\n        string memory _domainName,\n        string memory _topDomainName,\n        string memory _storageHash\n    ) public\n        isTopDomainNameMinLengthValid(_topDomainName)\n        isTopDomainNameMaxLengthValid(_topDomainName)\n        isTopDomainRegistered(_topDomainName)\n        isDomainNameMinLengthValid(_domainName)\n        isDomainNotRegistered(_domainName, _topDomainName)\n      payable\n    {\n        bytes32 domainCompleteHash = getCompleteDomainHash(_domainName, _topDomainName);\n\n        Domain memory newDomain = Domain({\n            name: _domainName,\n            topDomain: _topDomainName,\n            storageHash: _storageHash,\n            expires: now + DOMAIN_EXPIRATION_DAYS,\n            owner: msg.sender\n        });\n\n        domains.push(newDomain);\n        uint domainsIndex = domains.length - 1;\n\n        domainsHashMap[domainCompleteHash] = domainsIndex;\n        domainsOwnerMap[newDomain.owner].push(domainsIndex);\n        domainsStorageHash[newDomain.storageHash] = domainsIndex;\n\n        emit DomainRegistered(_domainName, _topDomainName);\n    }\n\n    function getStorageHashByDomain(\n        string memory _domainName,\n        string memory _topDomainName\n    ) public\n        isDomainRegistered(_domainName, _topDomainName)\n      view returns(string memory)\n    {\n        bytes32 completeDomainHash = getCompleteDomainHash(_domainName, _topDomainName);\n        uint index = domainsHashMap[completeDomainHash];\n        return domains[index].storageHash;\n    }\n\n    function updateDomainStorageHash(\n        string memory _domainName,\n        string memory _topDomainName,\n        string memory _storageHash\n    ) public\n        isDomainRegistered(_domainName, _topDomainName)\n        isDomainOwner(_domainName, _topDomainName)\n      payable\n    {\n        bytes32 completeDomainHash = getCompleteDomainHash(_domainName, _topDomainName);\n        uint index = domainsHashMap[completeDomainHash];\n        domains[index].storageHash = _storageHash;\n        domainsStorageHash[_storageHash] = index;\n\n        emit DomainStorageHashUpdated(_domainName, _topDomainName, _storageHash);\n    }\n\n    function renewDomain(\n        string memory _domainName,\n        string memory _topDomainName\n    ) public\n        isDomainRegistered(_domainName, _topDomainName)\n        isDomainOwner(_domainName, _topDomainName)\n      payable\n    {\n        uint index = domainsHashMap[getCompleteDomainHash(_domainName, _topDomainName)];\n        uint domainExpireDate = domains[index].expires;\n        uint newExpireDate = domainExpireDate + DOMAIN_EXPIRATION_DAYS;\n        domains[index].expires = newExpireDate;\n\n        emit DomainRenewed(_domainName, _topDomainName, newExpireDate);\n    }\n\n    function getDomainByHash(\n        bytes32 _hash\n    ) public view returns (string memory name, string memory topDomain, string memory storageHash, uint expires, address owner)\n    {\n        uint index = domainsHashMap[_hash];\n        return (domains[index].name, domains[index].topDomain, domains[index].storageHash, domains[index].expires, domains[index].owner);\n    }\n\n    function domainAlreadyRegistered(\n        string memory _domainName,\n        string memory _topDomainName\n    ) public view returns(bool)\n    {\n        uint index = domainsHashMap[getCompleteDomainHash(_domainName,_topDomainName)];\n        return bytes(domains[index].name).length != 0;\n    }\n\n    function getDomainsLength() public view returns (uint)\n    {\n        return domains.length;\n    }\n\n    function getCompleteDomainHash(\n        string memory _domainName,\n        string memory _topDomainName\n    ) public pure returns(bytes32)\n    {\n        return keccak256(abi.encodePacked(_domainName, _topDomainName));\n    }\n\n    function getAllDomainsByOwner(\n    ) public view\n        returns (\n            string[] memory name,\n            string[] memory topDomain,\n            string[] memory storageHash,\n            uint[] memory expires)\n    {\n        uint[] memory indexes = domainsOwnerMap[msg.sender];\n        string[] memory resultNames = new string[](indexes.length);\n        string[] memory resultTopDomains = new string[](indexes.length);\n        string[] memory resultStorageHashes = new string[](indexes.length);\n        uint[] memory resultExpires = new uint[](indexes.length);\n\n        for(uint i = 0; i < indexes.length; i++){\n            resultNames[i] = domains[indexes[i]].name;\n            resultTopDomains[i] = domains[indexes[i]].topDomain;\n            resultStorageHashes[i] = domains[indexes[i]].storageHash;\n            resultExpires[i] = domains[indexes[i]].expires;\n        }\n\n        return (resultNames, resultTopDomains, resultStorageHashes, resultExpires);\n    }\n\n    function getDomainByStorageHash(\n        string memory storageHash\n    ) public view\n        returns (\n            string memory topDomain,\n            string memory domain)\n    {\n        uint index = domainsStorageHash[storageHash];\n        return (domains[index].topDomain, domains[index].name);\n    }\n}\n",
  "sourcePath": "/home/henrique/labs/jns/packages/smartcontract/contracts/JanusNameService.sol",
  "compiler": {
    "name": "solc",
    "version": "0.5.11+commit.c082d0b4.Emscripten.clang"
  },
  "schemaVersion": "3.0.16",
  "updatedAt": "2019-10-08T20:29:26.827Z",
  "devdoc": {
    "methods": {}
  },
  "userdoc": {
    "methods": {}
  }
}