{
  "contractName": "JanusNameService",
  "abi": [
    {
      "constant": true,
      "inputs": [
        {
          "internalType": "string",
          "name": "",
          "type": "string"
        }
      ],
      "name": "domainsStorageHash",
      "outputs": [
        {
          "internalType": "uint256",
          "name": "",
          "type": "uint256"
        }
      ],
      "payable": false,
      "stateMutability": "view",
      "type": "function"
    },
    {
      "constant": true,
      "inputs": [
        {
          "internalType": "address",
          "name": "",
          "type": "address"
        },
        {
          "internalType": "uint256",
          "name": "",
          "type": "uint256"
        }
      ],
      "name": "domainsOwnerMap",
      "outputs": [
        {
          "internalType": "uint256",
          "name": "",
          "type": "uint256"
        }
      ],
      "payable": false,
      "stateMutability": "view",
      "type": "function"
    },
    {
      "constant": true,
      "inputs": [],
      "name": "contractOwner",
      "outputs": [
        {
          "internalType": "address payable",
          "name": "",
          "type": "address"
        }
      ],
      "payable": false,
      "stateMutability": "view",
      "type": "function"
    },
    {
      "constant": true,
      "inputs": [
        {
          "internalType": "bytes32",
          "name": "",
          "type": "bytes32"
        }
      ],
      "name": "domainsHashMap",
      "outputs": [
        {
          "internalType": "uint256",
          "name": "",
          "type": "uint256"
        }
      ],
      "payable": false,
      "stateMutability": "view",
      "type": "function"
    },
    {
      "inputs": [],
      "payable": false,
      "stateMutability": "nonpayable",
      "type": "constructor"
    },
    {
      "anonymous": false,
      "inputs": [
        {
          "indexed": true,
          "internalType": "string",
          "name": "topDomainName",
          "type": "string"
        },
        {
          "indexed": true,
          "internalType": "address",
          "name": "owner",
          "type": "address"
        }
      ],
      "name": "TopDomainRegistered",
      "type": "event"
    },
    {
      "anonymous": false,
      "inputs": [
        {
          "indexed": true,
          "internalType": "string",
          "name": "topDomainName",
          "type": "string"
        },
        {
          "indexed": true,
          "internalType": "address",
          "name": "newOwner",
          "type": "address"
        }
      ],
      "name": "TopDomainOwnershipChanged",
      "type": "event"
    },
    {
      "anonymous": false,
      "inputs": [
        {
          "indexed": true,
          "internalType": "string",
          "name": "topDomainName",
          "type": "string"
        },
        {
          "indexed": false,
          "internalType": "uint256",
          "name": "newExpire",
          "type": "uint256"
        }
      ],
      "name": "TopDomainRenewed",
      "type": "event"
    },
    {
      "anonymous": false,
      "inputs": [
        {
          "indexed": true,
          "internalType": "string",
          "name": "domainName",
          "type": "string"
        },
        {
          "indexed": true,
          "internalType": "string",
          "name": "topDomainName",
          "type": "string"
        },
        {
          "indexed": true,
          "internalType": "address",
          "name": "owner",
          "type": "address"
        }
      ],
      "name": "DomainRegistered",
      "type": "event"
    },
    {
      "anonymous": false,
      "inputs": [
        {
          "indexed": true,
          "internalType": "string",
          "name": "domainName",
          "type": "string"
        },
        {
          "indexed": true,
          "internalType": "string",
          "name": "topDomainName",
          "type": "string"
        },
        {
          "indexed": true,
          "internalType": "address",
          "name": "newOwner",
          "type": "address"
        }
      ],
      "name": "DomainOwnershipChanged",
      "type": "event"
    },
    {
      "anonymous": false,
      "inputs": [
        {
          "indexed": true,
          "internalType": "string",
          "name": "domainName",
          "type": "string"
        },
        {
          "indexed": true,
          "internalType": "string",
          "name": "topDomainName",
          "type": "string"
        },
        {
          "indexed": false,
          "internalType": "string",
          "name": "storageHash",
          "type": "string"
        }
      ],
      "name": "DomainStorageHashUpdated",
      "type": "event"
    },
    {
      "anonymous": false,
      "inputs": [
        {
          "indexed": true,
          "internalType": "string",
          "name": "domainName",
          "type": "string"
        },
        {
          "indexed": true,
          "internalType": "string",
          "name": "topDomainName",
          "type": "string"
        },
        {
          "indexed": false,
          "internalType": "uint256",
          "name": "newExpire",
          "type": "uint256"
        }
      ],
      "name": "DomainRenewed",
      "type": "event"
    },
    {
      "constant": false,
      "inputs": [],
      "name": "kill",
      "outputs": [],
      "payable": false,
      "stateMutability": "nonpayable",
      "type": "function"
    },
    {
      "constant": false,
      "inputs": [
        {
          "internalType": "string",
          "name": "_topDomainName",
          "type": "string"
        }
      ],
      "name": "registerTopDomain",
      "outputs": [],
      "payable": true,
      "stateMutability": "payable",
      "type": "function"
    },
    {
      "constant": true,
      "inputs": [],
      "name": "getAllTopDomainsByOwner",
      "outputs": [
        {
          "internalType": "string[]",
          "name": "name",
          "type": "string[]"
        },
        {
          "internalType": "uint256[]",
          "name": "expires",
          "type": "uint256[]"
        }
      ],
      "payable": false,
      "stateMutability": "view",
      "type": "function"
    },
    {
      "constant": true,
      "inputs": [
        {
          "internalType": "bytes32",
          "name": "_hash",
          "type": "bytes32"
        }
      ],
      "name": "getTopDomainByHash",
      "outputs": [
        {
          "internalType": "string",
          "name": "name",
          "type": "string"
        },
        {
          "internalType": "uint256",
          "name": "expires",
          "type": "uint256"
        },
        {
          "internalType": "address",
          "name": "owner",
          "type": "address"
        }
      ],
      "payable": false,
      "stateMutability": "view",
      "type": "function"
    },
    {
      "constant": true,
      "inputs": [
        {
          "internalType": "string",
          "name": "_topDomainName",
          "type": "string"
        }
      ],
      "name": "getTopDomainHash",
      "outputs": [
        {
          "internalType": "bytes32",
          "name": "",
          "type": "bytes32"
        }
      ],
      "payable": false,
      "stateMutability": "pure",
      "type": "function"
    },
    {
      "constant": false,
      "inputs": [
        {
          "internalType": "string",
          "name": "_topDomainName",
          "type": "string"
        },
        {
          "internalType": "address",
          "name": "_newOwner",
          "type": "address"
        }
      ],
      "name": "changeTopDomainOwnership",
      "outputs": [],
      "payable": true,
      "stateMutability": "payable",
      "type": "function"
    },
    {
      "constant": false,
      "inputs": [
        {
          "internalType": "string",
          "name": "_topDomainName",
          "type": "string"
        }
      ],
      "name": "renewTopDomain",
      "outputs": [],
      "payable": true,
      "stateMutability": "payable",
      "type": "function"
    },
    {
      "constant": true,
      "inputs": [
        {
          "internalType": "string",
          "name": "_topDomainName",
          "type": "string"
        }
      ],
      "name": "topDomainAlreadyRegistered",
      "outputs": [
        {
          "internalType": "bool",
          "name": "",
          "type": "bool"
        }
      ],
      "payable": false,
      "stateMutability": "view",
      "type": "function"
    },
    {
      "constant": true,
      "inputs": [],
      "name": "getTopDomainsLength",
      "outputs": [
        {
          "internalType": "uint256",
          "name": "",
          "type": "uint256"
        }
      ],
      "payable": false,
      "stateMutability": "view",
      "type": "function"
    },
    {
      "constant": false,
      "inputs": [
        {
          "internalType": "string",
          "name": "_domainName",
          "type": "string"
        },
        {
          "internalType": "string",
          "name": "_topDomainName",
          "type": "string"
        },
        {
          "internalType": "string",
          "name": "_storageHash",
          "type": "string"
        }
      ],
      "name": "registerDomain",
      "outputs": [],
      "payable": true,
      "stateMutability": "payable",
      "type": "function"
    },
    {
      "constant": true,
      "inputs": [
        {
          "internalType": "string",
          "name": "_domainName",
          "type": "string"
        },
        {
          "internalType": "string",
          "name": "_topDomainName",
          "type": "string"
        }
      ],
      "name": "getStorageHashByDomain",
      "outputs": [
        {
          "internalType": "string",
          "name": "",
          "type": "string"
        }
      ],
      "payable": false,
      "stateMutability": "view",
      "type": "function"
    },
    {
      "constant": false,
      "inputs": [
        {
          "internalType": "string",
          "name": "_domainName",
          "type": "string"
        },
        {
          "internalType": "string",
          "name": "_topDomainName",
          "type": "string"
        },
        {
          "internalType": "string",
          "name": "_storageHash",
          "type": "string"
        }
      ],
      "name": "updateDomainStorageHash",
      "outputs": [],
      "payable": true,
      "stateMutability": "payable",
      "type": "function"
    },
    {
      "constant": false,
      "inputs": [
        {
          "internalType": "string",
          "name": "_domainName",
          "type": "string"
        },
        {
          "internalType": "string",
          "name": "_topDomainName",
          "type": "string"
        }
      ],
      "name": "renewDomain",
      "outputs": [],
      "payable": true,
      "stateMutability": "payable",
      "type": "function"
    },
    {
      "constant": false,
      "inputs": [
        {
          "internalType": "string",
          "name": "_domainName",
          "type": "string"
        },
        {
          "internalType": "string",
          "name": "_topDomainName",
          "type": "string"
        },
        {
          "internalType": "address",
          "name": "_newOwner",
          "type": "address"
        }
      ],
      "name": "changeDomainOwnership",
      "outputs": [],
      "payable": false,
      "stateMutability": "nonpayable",
      "type": "function"
    },
    {
      "constant": true,
      "inputs": [
        {
          "internalType": "bytes32",
          "name": "_hash",
          "type": "bytes32"
        }
      ],
      "name": "getDomainByHash",
      "outputs": [
        {
          "internalType": "string",
          "name": "name",
          "type": "string"
        },
        {
          "internalType": "string",
          "name": "topDomain",
          "type": "string"
        },
        {
          "internalType": "string",
          "name": "storageHash",
          "type": "string"
        },
        {
          "internalType": "uint256",
          "name": "expires",
          "type": "uint256"
        },
        {
          "internalType": "address",
          "name": "owner",
          "type": "address"
        }
      ],
      "payable": false,
      "stateMutability": "view",
      "type": "function"
    },
    {
      "constant": true,
      "inputs": [
        {
          "internalType": "string",
          "name": "_domainName",
          "type": "string"
        },
        {
          "internalType": "string",
          "name": "_topDomainName",
          "type": "string"
        }
      ],
      "name": "domainAlreadyRegistered",
      "outputs": [
        {
          "internalType": "bool",
          "name": "",
          "type": "bool"
        }
      ],
      "payable": false,
      "stateMutability": "view",
      "type": "function"
    },
    {
      "constant": true,
      "inputs": [],
      "name": "getDomainsLength",
      "outputs": [
        {
          "internalType": "uint256",
          "name": "",
          "type": "uint256"
        }
      ],
      "payable": false,
      "stateMutability": "view",
      "type": "function"
    },
    {
      "constant": true,
      "inputs": [
        {
          "internalType": "string",
          "name": "_domainName",
          "type": "string"
        },
        {
          "internalType": "string",
          "name": "_topDomainName",
          "type": "string"
        }
      ],
      "name": "getCompleteDomainHash",
      "outputs": [
        {
          "internalType": "bytes32",
          "name": "",
          "type": "bytes32"
        }
      ],
      "payable": false,
      "stateMutability": "pure",
      "type": "function"
    },
    {
      "constant": true,
      "inputs": [],
      "name": "getAllDomainsByOwner",
      "outputs": [
        {
          "internalType": "string[]",
          "name": "name",
          "type": "string[]"
        },
        {
          "internalType": "string[]",
          "name": "topDomain",
          "type": "string[]"
        },
        {
          "internalType": "string[]",
          "name": "storageHash",
          "type": "string[]"
        },
        {
          "internalType": "uint256[]",
          "name": "expires",
          "type": "uint256[]"
        }
      ],
      "payable": false,
      "stateMutability": "view",
      "type": "function"
    },
    {
      "constant": true,
      "inputs": [
        {
          "internalType": "string",
          "name": "storageHash",
          "type": "string"
        }
      ],
      "name": "getDomainByStorageHash",
      "outputs": [
        {
          "internalType": "string",
          "name": "topDomain",
          "type": "string"
        },
        {
          "internalType": "string",
          "name": "domain",
          "type": "string"
        }
      ],
      "payable": false,
      "stateMutability": "view",
      "type": "function"
    }
  ],
  "bytecode": "0x60806040523480156200001157600080fd5b50336000806101000a81548173ffffffffffffffffffffffffffffffffffffffff021916908373ffffffffffffffffffffffffffffffffffffffff1602179055506001604051806080016040528060405180602001604052806000815250815260200160008152602001600073ffffffffffffffffffffffffffffffffffffffff1681526020016000815250908060018154018082558091505090600182039060005260206000209060040201600090919290919091506000820151816000019080519060200190620000e6929190620002a6565b506020820151816001015560408201518160020160006101000a81548173ffffffffffffffffffffffffffffffffffffffff021916908373ffffffffffffffffffffffffffffffffffffffff1602179055506060820151816003015550505060046040518060c0016040528060405180602001604052806000815250815260200160405180602001604052806000815250815260200160405180602001604052806000815250815260200160008152602001600073ffffffffffffffffffffffffffffffffffffffff168152602001600081525090806001815401808255809150509060018203906000526020600020906006020160009091929091909150600082015181600001908051906020019062000203929190620002a6565b50602082015181600101908051906020019062000222929190620002a6565b50604082015181600201908051906020019062000241929190620002a6565b506060820151816003015560808201518160040160006101000a81548173ffffffffffffffffffffffffffffffffffffffff021916908373ffffffffffffffffffffffffffffffffffffffff16021790555060a0820151816005015550505062000355565b828054600181600116156101000203166002900490600052602060002090601f016020900481019282601f10620002e957805160ff19168380011785556200031a565b828001600101855582156200031a579182015b8281111562000319578251825591602001919060010190620002fc565b5b5090506200032991906200032d565b5090565b6200035291905b808211156200034e57600081600090555060010162000334565b5090565b90565b613c8080620003656000396000f3fe60806040526004361061014b5760003560e01c80639545bb42116100b6578063d83dfdec1161006f578063d83dfdec1461049e578063d8f84ead146104db578063d97750a414610518578063e0cf381214610544578063edb48c5614610581578063ee15bc621461059d5761014b565b80639545bb4214610375578063a391703514610391578063ae546ff4146103ce578063bbd462c4146103f7578063ce606ee014610434578063d4e643831461045f5761014b565b80633c45357c116101085780633c45357c1461024c5780633d7771d21461028d57806341c0e1b5146102b85780636c07d84c146102cf5780636ffb6cb8146102fa578063775a5140146103385761014b565b806305f04ea4146101505780630f0735d91461018d5780630fbf844b146101a9578063210c5c38146101c55780632d1658e8146101f357806333d3142514610230575b600080fd5b34801561015c57600080fd5b5061017760048036036101729190810190612e97565b6105b9565b60405161018491906139ec565b60405180910390f35b6101a760048036036101a29190810190612f6d565b6105e7565b005b6101c360048036036101be9190810190613058565b6107f9565b005b3480156101d157600080fd5b506101da610a15565b6040516101ea94939291906136bf565b60405180910390f35b3480156101ff57600080fd5b5061021a60048036036102159190810190612ed8565b610eb1565b6040516102279190613772565b60405180910390f35b61024a60048036036102459190810190612f19565b610ee1565b005b34801561025857600080fd5b50610273600480360361026e9190810190612e6e565b61127e565b6040516102849594939291906137e6565b60405180910390f35b34801561029957600080fd5b506102a261153e565b6040516102af91906139ec565b60405180910390f35b3480156102c457600080fd5b506102cd61154b565b005b3480156102db57600080fd5b506102e4611614565b6040516102f191906139ec565b60405180910390f35b34801561030657600080fd5b50610321600480360361031c9190810190612ed8565b611621565b60405161032f9291906137af565b60405180910390f35b34801561034457600080fd5b5061035f600480360361035a9190810190612e32565b6117c5565b60405161036c91906139ec565b60405180910390f35b61038f600480360361038a9190810190612ed8565b6117f3565b005b34801561039d57600080fd5b506103b860048036036103b39190810190612f6d565b611b0a565b6040516103c59190613772565b60405180910390f35b3480156103da57600080fd5b506103f560048036036103f09190810190612fd9565b611b3d565b005b34801561040357600080fd5b5061041e60048036036104199190810190612f6d565b611ef8565b60405161042b919061378d565b60405180910390f35b34801561044057600080fd5b50610449612045565b60405161045691906136a4565b60405180910390f35b34801561046b57600080fd5b5061048660048036036104819190810190612e6e565b61206a565b6040516104959392919061384e565b60405180910390f35b3480156104aa57600080fd5b506104c560048036036104c09190810190612e6e565b6121ad565b6040516104d291906139ec565b60405180910390f35b3480156104e757600080fd5b5061050260048036036104fd9190810190612ed8565b6121c5565b60405161050f9190613757565b60405180910390f35b34801561052457600080fd5b5061052d612225565b60405161053b929190613720565b60405180910390f35b34801561055057600080fd5b5061056b60048036036105669190810190612f6d565b61247e565b6040516105789190613757565b60405180910390f35b61059b60048036036105969190810190613058565b6124e0565b005b6105b760048036036105b29190810190612ed8565b6128f2565b005b6007818051602081018201805184825260208301602085012081835280955050505050506000915090505481565b81816000600560006105f98585611b0a565b8152602001908152602001600020541415610649576040517f08c379a00000000000000000000000000000000000000000000000000000000081526004016106409061390c565b60405180910390fd5b838360006005600061065b8585611b0a565b81526020019081526020016000205490503373ffffffffffffffffffffffffffffffffffffffff166004828154811061069057fe5b906000526020600020906006020160040160009054906101000a900473ffffffffffffffffffffffffffffffffffffffff1673ffffffffffffffffffffffffffffffffffffffff1614610718576040517f08c379a000000000000000000000000000000000000000000000000000000000815260040161070f906138ac565b60405180910390fd5b6000600560006107288a8a611b0a565b815260200190815260200160002054905060006004828154811061074857fe5b906000526020600020906006020160030154905060006301e1338082019050806004848154811061077557fe5b906000526020600020906006020160030181905550886040516107989190613669565b60405180910390208a6040516107ae9190613669565b60405180910390207ff266d11c683f745c2b249e6b63afff6597a267340a403addd0336a26bf601b09836040516107e591906139ec565b60405180910390a350505050505050505050565b828260006005600061080b8585611b0a565b815260200190815260200160002054141561085b576040517f08c379a00000000000000000000000000000000000000000000000000000000081526004016108529061390c565b60405180910390fd5b848460006005600061086d8585611b0a565b81526020019081526020016000205490503373ffffffffffffffffffffffffffffffffffffffff16600482815481106108a257fe5b906000526020600020906006020160040160009054906101000a900473ffffffffffffffffffffffffffffffffffffffff1673ffffffffffffffffffffffffffffffffffffffff161461092a576040517f08c379a0000000000000000000000000000000000000000000000000000000008152600401610921906138ac565b60405180910390fd5b60006109368989611b0a565b9050600060056000838152602001908152602001600020549050876004828154811061095e57fe5b90600052602060002090600602016002019080519060200190610982929190612b70565b50806007896040516109949190613669565b908152602001604051809103902081905550886040516109b49190613669565b60405180910390208a6040516109ca9190613669565b60405180910390207f53fefe0fa4d79f98ec788fb08233fb5f1a5373fe81058f04b568d4d0475e19758a604051610a01919061378d565b60405180910390a350505050505050505050565b6060806060806060600660003373ffffffffffffffffffffffffffffffffffffffff1673ffffffffffffffffffffffffffffffffffffffff168152602001908152602001600020805480602002602001604051908101604052809291908181526020018280548015610aa657602002820191906000526020600020905b815481526020019060010190808311610a92575b5050505050905060608151604051908082528060200260200182016040528015610ae457816020015b6060815260200190600190039081610acf5790505b50905060608251604051908082528060200260200182016040528015610b1e57816020015b6060815260200190600190039081610b095790505b50905060608351604051908082528060200260200182016040528015610b5857816020015b6060815260200190600190039081610b435790505b50905060608451604051908082528060200260200182016040528015610b8d5781602001602082028038833980820191505090505b50905060008090505b8551811015610e99576004868281518110610bad57fe5b602002602001015181548110610bbf57fe5b90600052602060002090600602016000018054600181600116156101000203166002900480601f016020809104026020016040519081016040528092919081815260200182805460018160011615610100020316600290048015610c645780601f10610c3957610100808354040283529160200191610c64565b820191906000526020600020905b815481529060010190602001808311610c4757829003601f168201915b5050505050858281518110610c7557fe5b60200260200101819052506004868281518110610c8e57fe5b602002602001015181548110610ca057fe5b90600052602060002090600602016001018054600181600116156101000203166002900480601f016020809104026020016040519081016040528092919081815260200182805460018160011615610100020316600290048015610d455780601f10610d1a57610100808354040283529160200191610d45565b820191906000526020600020905b815481529060010190602001808311610d2857829003601f168201915b5050505050848281518110610d5657fe5b60200260200101819052506004868281518110610d6f57fe5b602002602001015181548110610d8157fe5b90600052602060002090600602016002018054600181600116156101000203166002900480601f016020809104026020016040519081016040528092919081815260200182805460018160011615610100020316600290048015610e265780601f10610dfb57610100808354040283529160200191610e26565b820191906000526020600020905b815481529060010190602001808311610e0957829003601f168201915b5050505050838281518110610e3757fe5b60200260200101819052506004868281518110610e5057fe5b602002602001015181548110610e6257fe5b906000526020600020906006020160030154828281518110610e8057fe5b6020026020010181815250508080600101915050610b96565b50838383839850985098509850505050505090919293565b600081604051602001610ec49190613669565b604051602081830303815290604052805190602001209050919050565b81600060026000610ef184610eb1565b8152602001908152602001600020541415610f41576040517f08c379a0000000000000000000000000000000000000000000000000000000008152600401610f389061388c565b60405180910390fd5b82600060026000610f5184610eb1565b81526020019081526020016000205490503373ffffffffffffffffffffffffffffffffffffffff1660018281548110610f8657fe5b906000526020600020906004020160020160009054906101000a900473ffffffffffffffffffffffffffffffffffffffff1673ffffffffffffffffffffffffffffffffffffffff161461100e576040517f08c379a0000000000000000000000000000000000000000000000000000000008152600401611005906138cc565b60405180910390fd5b60006002600061101d88610eb1565b815260200190815260200160002054905060006001828154811061103d57fe5b906000526020600020906004020160020160009054906101000a900473ffffffffffffffffffffffffffffffffffffffff1690506000600360008373ffffffffffffffffffffffffffffffffffffffff1673ffffffffffffffffffffffffffffffffffffffff16815260200190815260200160002090506000600184815481106110c357fe5b9060005260206000209060040201600301549050816001838054905003815481106110ea57fe5b906000526020600020015482828154811061110157fe5b9060005260206000200181905550818054809190600190036111239190612bf0565b506000600360008a73ffffffffffffffffffffffffffffffffffffffff1673ffffffffffffffffffffffffffffffffffffffff16815260200190815260200160002090508085908060018154018082558091505090600182039060005260206000200160009091929091909150555088600186815481106111a057fe5b906000526020600020906004020160020160006101000a81548173ffffffffffffffffffffffffffffffffffffffff021916908373ffffffffffffffffffffffffffffffffffffffff16021790555060018180549050036001868154811061120457fe5b9060005260206000209060040201600301819055508873ffffffffffffffffffffffffffffffffffffffff168a60405161123e9190613669565b60405180910390207fcd8f5abec842d059bf95d565c28ea51a16469b7efa4e879e834c1f55b9ea052660405160405180910390a350505050505050505050565b6060806060600080600060056000888152602001908152602001600020549050600481815481106112ab57fe5b9060005260206000209060060201600001600482815481106112c957fe5b9060005260206000209060060201600101600483815481106112e757fe5b90600052602060002090600602016002016004848154811061130557fe5b9060005260206000209060060201600301546004858154811061132457fe5b906000526020600020906006020160040160009054906101000a900473ffffffffffffffffffffffffffffffffffffffff16848054600181600116156101000203166002900480601f0160208091040260200160405190810160405280929190818152602001828054600181600116156101000203166002900480156113eb5780601f106113c0576101008083540402835291602001916113eb565b820191906000526020600020905b8154815290600101906020018083116113ce57829003601f168201915b50505050509450838054600181600116156101000203166002900480601f0160208091040260200160405190810160405280929190818152602001828054600181600116156101000203166002900480156114875780601f1061145c57610100808354040283529160200191611487565b820191906000526020600020905b81548152906001019060200180831161146a57829003601f168201915b50505050509350828054600181600116156101000203166002900480601f0160208091040260200160405190810160405280929190818152602001828054600181600116156101000203166002900480156115235780601f106114f857610100808354040283529160200191611523565b820191906000526020600020905b81548152906001019060200180831161150657829003601f168201915b50505050509250955095509550955095505091939590929450565b6000600180549050905090565b6000809054906101000a900473ffffffffffffffffffffffffffffffffffffffff1673ffffffffffffffffffffffffffffffffffffffff163373ffffffffffffffffffffffffffffffffffffffff16146115da576040517f08c379a00000000000000000000000000000000000000000000000000000000081526004016115d19061398c565b60405180910390fd5b6000809054906101000a900473ffffffffffffffffffffffffffffffffffffffff1673ffffffffffffffffffffffffffffffffffffffff16ff5b6000600480549050905090565b60608060006007846040516116369190613669565b90815260200160405180910390205490506004818154811061165457fe5b90600052602060002090600602016001016004828154811061167257fe5b9060005260206000209060060201600001818054600181600116156101000203166002900480601f0160208091040260200160405190810160405280929190818152602001828054600181600116156101000203166002900480156117185780601f106116ed57610100808354040283529160200191611718565b820191906000526020600020905b8154815290600101906020018083116116fb57829003601f168201915b50505050509150808054600181600116156101000203166002900480601f0160208091040260200160405190810160405280929190818152602001828054600181600116156101000203166002900480156117b45780601f10611789576101008083540402835291602001916117b4565b820191906000526020600020905b81548152906001019060200180831161179757829003601f168201915b505050505090509250925050915091565b600660205281600052604060002081815481106117de57fe5b90600052602060002001600091509150505481565b80600281511015611839576040517f08c379a00000000000000000000000000000000000000000000000000000000081526004016118309061394c565b60405180910390fd5b8160058151111561187f576040517f08c379a0000000000000000000000000000000000000000000000000000000008152600401611876906138ec565b60405180910390fd5b8260006002600061188f84610eb1565b815260200190815260200160002054146118de576040517f08c379a00000000000000000000000000000000000000000000000000000000081526004016118d5906139cc565b60405180910390fd5b6118e6612c1c565b60405180608001604052808681526020016301e13380420181526020013373ffffffffffffffffffffffffffffffffffffffff168152602001600360003373ffffffffffffffffffffffffffffffffffffffff1673ffffffffffffffffffffffffffffffffffffffff1681526020019081526020016000208054905081525090506001819080600181540180825580915050906001820390600052602060002090600402016000909192909190915060008201518160000190805190602001906119b1929190612c5a565b506020820151816001015560408201518160020160006101000a81548173ffffffffffffffffffffffffffffffffffffffff021916908373ffffffffffffffffffffffffffffffffffffffff160217905550606082015181600301555050506000600180805490500390508060026000611a2a89610eb1565b81526020019081526020016000208190555060036000836040015173ffffffffffffffffffffffffffffffffffffffff1673ffffffffffffffffffffffffffffffffffffffff1681526020019081526020016000208190806001815401808255809150509060018203906000526020600020016000909192909190915055503373ffffffffffffffffffffffffffffffffffffffff1686604051611ace9190613669565b60405180910390207f9cb5f30bc9eb4f94c43c2cc17102ca67de1142f60f8cd49d5515fa46643af45d60405160405180910390a3505050505050565b60008282604051602001611b1f929190613680565b60405160208183030381529060405280519060200120905092915050565b8282600060056000611b4f8585611b0a565b8152602001908152602001600020541415611b9f576040517f08c379a0000000000000000000000000000000000000000000000000000000008152600401611b969061390c565b60405180910390fd5b8484600060056000611bb18585611b0a565b81526020019081526020016000205490503373ffffffffffffffffffffffffffffffffffffffff1660048281548110611be657fe5b906000526020600020906006020160040160009054906101000a900473ffffffffffffffffffffffffffffffffffffffff1673ffffffffffffffffffffffffffffffffffffffff1614611c6e576040517f08c379a0000000000000000000000000000000000000000000000000000000008152600401611c65906138ac565b60405180910390fd5b600060056000611c7e8b8b611b0a565b8152602001908152602001600020549050600060048281548110611c9e57fe5b906000526020600020906006020160040160009054906101000a900473ffffffffffffffffffffffffffffffffffffffff1690506000600660008373ffffffffffffffffffffffffffffffffffffffff1673ffffffffffffffffffffffffffffffffffffffff1681526020019081526020016000209050600060048481548110611d2457fe5b906000526020600020906006020160050154905081600183805490500381548110611d4b57fe5b9060005260206000200154828281548110611d6257fe5b906000526020600020018190555081805480919060019003611d849190612bf0565b506000600660008c73ffffffffffffffffffffffffffffffffffffffff1673ffffffffffffffffffffffffffffffffffffffff1681526020019081526020016000209050808590806001815401808255809150509060018203906000526020600020016000909192909190915055508a60048681548110611e0157fe5b906000526020600020906006020160040160006101000a81548173ffffffffffffffffffffffffffffffffffffffff021916908373ffffffffffffffffffffffffffffffffffffffff160217905550600181805490500360048681548110611e6557fe5b9060005260206000209060060201600501819055508a73ffffffffffffffffffffffffffffffffffffffff168c604051611e9f9190613669565b60405180910390208e604051611eb59190613669565b60405180910390207f580153e10b2fd0b12048622087eafb607484cc844419604d8c484b819d08ef5060405160405180910390a450505050505050505050505050565b60608282600060056000611f0c8585611b0a565b8152602001908152602001600020541415611f5c576040517f08c379a0000000000000000000000000000000000000000000000000000000008152600401611f539061390c565b60405180910390fd5b6000611f688686611b0a565b905060006005600083815260200190815260200160002054905060048181548110611f8f57fe5b90600052602060002090600602016002018054600181600116156101000203166002900480601f0160208091040260200160405190810160405280929190818152602001828054600181600116156101000203166002900480156120345780601f1061200957610100808354040283529160200191612034565b820191906000526020600020905b81548152906001019060200180831161201757829003601f168201915b505050505094505050505092915050565b6000809054906101000a900473ffffffffffffffffffffffffffffffffffffffff1681565b60606000806000600260008681526020019081526020016000205490506001818154811061209457fe5b9060005260206000209060040201600001600182815481106120b257fe5b906000526020600020906004020160010154600183815481106120d157fe5b906000526020600020906004020160020160009054906101000a900473ffffffffffffffffffffffffffffffffffffffff16828054600181600116156101000203166002900480601f0160208091040260200160405190810160405280929190818152602001828054600181600116156101000203166002900480156121985780601f1061216d57610100808354040283529160200191612198565b820191906000526020600020905b81548152906001019060200180831161217b57829003601f168201915b50505050509250935093509350509193909250565b60056020528060005260406000206000915090505481565b600080600260006121d585610eb1565b81526020019081526020016000205490506000600182815481106121f557fe5b90600052602060002090600402016000018054600181600116156101000203166002900490501415915050919050565b6060806060600360003373ffffffffffffffffffffffffffffffffffffffff1673ffffffffffffffffffffffffffffffffffffffff1681526020019081526020016000208054806020026020016040519081016040528092919081815260200182805480156122b357602002820191906000526020600020905b81548152602001906001019080831161229f575b50505050509050606081516040519080825280602002602001820160405280156122f157816020015b60608152602001906001900390816122dc5790505b509050606082516040519080825280602002602001820160405280156123265781602001602082028038833980820191505090505b50905060008090505b835181101561247057600184828151811061234657fe5b60200260200101518154811061235857fe5b90600052602060002090600402016000018054600181600116156101000203166002900480601f0160208091040260200160405190810160405280929190818152602001828054600181600116156101000203166002900480156123fd5780601f106123d2576101008083540402835291602001916123fd565b820191906000526020600020905b8154815290600101906020018083116123e057829003601f168201915b505050505083828151811061240e57fe5b6020026020010181905250600184828151811061242757fe5b60200260200101518154811061243957fe5b90600052602060002090600402016001015482828151811061245757fe5b602002602001018181525050808060010191505061232f565b508181945094505050509091565b6000806005600061248f8686611b0a565b81526020019081526020016000205490506000600482815481106124af57fe5b9060005260206000209060060201600001805460018160011615610100020316600290049050141591505092915050565b81600281511015612526576040517f08c379a000000000000000000000000000000000000000000000000000000000815260040161251d9061394c565b60405180910390fd5b8260058151111561256c576040517f08c379a0000000000000000000000000000000000000000000000000000000008152600401612563906138ec565b60405180910390fd5b8360006002600061257c84610eb1565b81526020019081526020016000205414156125cc576040517f08c379a00000000000000000000000000000000000000000000000000000000081526004016125c39061388c565b60405180910390fd5b85600381511015612612576040517f08c379a0000000000000000000000000000000000000000000000000000000008152600401612609906139ac565b60405180910390fd5b86866000600560006126248585611b0a565b81526020019081526020016000205414612673576040517f08c379a000000000000000000000000000000000000000000000000000000000815260040161266a9061392c565b60405180910390fd5b600061267f8a8a611b0a565b90506000600660003373ffffffffffffffffffffffffffffffffffffffff1673ffffffffffffffffffffffffffffffffffffffff1681526020019081526020016000209050600081805490509050600060048054905090508060056000868152602001908152602001600020819055508060078c6040516127009190613669565b90815260200160405180910390208190555061271a612cda565b6040518060c001604052808f81526020018e81526020018d81526020016301e13380420181526020013373ffffffffffffffffffffffffffffffffffffffff1681526020018481525090506004819080600181540180825580915050906001820390600052602060002090600602016000909192909190915060008201518160000190805190602001906127af929190612c5a565b5060208201518160010190805190602001906127cc929190612c5a565b5060408201518160020190805190602001906127e9929190612c5a565b506060820151816003015560808201518160040160006101000a81548173ffffffffffffffffffffffffffffffffffffffff021916908373ffffffffffffffffffffffffffffffffffffffff16021790555060a08201518160050155505050838290806001815401808255809150509060018203906000526020600020016000909192909190915055503373ffffffffffffffffffffffffffffffffffffffff168d6040516128989190613669565b60405180910390208f6040516128ae9190613669565b60405180910390207f8e1353a1c19c0496b7461bad8f9954f50411bb95889443e6e2737ad821cd70ef60405160405180910390a45050505050505050505050505050565b8060006002600061290284610eb1565b8152602001908152602001600020541415612952576040517f08c379a00000000000000000000000000000000000000000000000000000000081526004016129499061388c565b60405180910390fd5b8160006002600061296284610eb1565b81526020019081526020016000205490503373ffffffffffffffffffffffffffffffffffffffff166001828154811061299757fe5b906000526020600020906004020160020160009054906101000a900473ffffffffffffffffffffffffffffffffffffffff1673ffffffffffffffffffffffffffffffffffffffff1614612a1f576040517f08c379a0000000000000000000000000000000000000000000000000000000008152600401612a16906138cc565b60405180910390fd5b83600060026000612a2f84610eb1565b81526020019081526020016000205490506303c26700420160018281548110612a5457fe5b9060005260206000209060040201600101541115612aa7576040517f08c379a0000000000000000000000000000000000000000000000000000000008152600401612a9e9061396c565b60405180910390fd5b600060026000612ab689610eb1565b8152602001908152602001600020549050600060018281548110612ad657fe5b906000526020600020906004020160010154905060006301e13380820190508060018481548110612b0357fe5b90600052602060002090600402016001018190555088604051612b269190613669565b60405180910390207f9af0026a3ecf9b0730f1fb6825130dc91b04ffda2c0d00f2e5ded9ca5a70fbc582604051612b5d91906139ec565b60405180910390a2505050505050505050565b828054600181600116156101000203166002900490600052602060002090601f016020900481019282601f10612bb157805160ff1916838001178555612bdf565b82800160010185558215612bdf579182015b82811115612bde578251825591602001919060010190612bc3565b5b509050612bec9190612d26565b5090565b815481835581811115612c1757818360005260206000209182019101612c169190612d26565b5b505050565b60405180608001604052806060815260200160008152602001600073ffffffffffffffffffffffffffffffffffffffff168152602001600081525090565b828054600181600116156101000203166002900490600052602060002090601f016020900481019282601f10612c9b57805160ff1916838001178555612cc9565b82800160010185558215612cc9579182015b82811115612cc8578251825591602001919060010190612cad565b5b509050612cd69190612d26565b5090565b6040518060c0016040528060608152602001606081526020016060815260200160008152602001600073ffffffffffffffffffffffffffffffffffffffff168152602001600081525090565b612d4891905b80821115612d44576000816000905550600101612d2c565b5090565b90565b600081359050612d5a81613bf8565b92915050565b600081359050612d6f81613c0f565b92915050565b600082601f830112612d8657600080fd5b8135612d99612d9482613a34565b613a07565b91508082526020830160208301858383011115612db557600080fd5b612dc0838284613ba5565b50505092915050565b600082601f830112612dda57600080fd5b8135612ded612de882613a60565b613a07565b91508082526020830160208301858383011115612e0957600080fd5b612e14838284613ba5565b50505092915050565b600081359050612e2c81613c26565b92915050565b60008060408385031215612e4557600080fd5b6000612e5385828601612d4b565b9250506020612e6485828601612e1d565b9150509250929050565b600060208284031215612e8057600080fd5b6000612e8e84828501612d60565b91505092915050565b600060208284031215612ea957600080fd5b600082013567ffffffffffffffff811115612ec357600080fd5b612ecf84828501612d75565b91505092915050565b600060208284031215612eea57600080fd5b600082013567ffffffffffffffff811115612f0457600080fd5b612f1084828501612dc9565b91505092915050565b60008060408385031215612f2c57600080fd5b600083013567ffffffffffffffff811115612f4657600080fd5b612f5285828601612dc9565b9250506020612f6385828601612d4b565b9150509250929050565b60008060408385031215612f8057600080fd5b600083013567ffffffffffffffff811115612f9a57600080fd5b612fa685828601612dc9565b925050602083013567ffffffffffffffff811115612fc357600080fd5b612fcf85828601612dc9565b9150509250929050565b600080600060608486031215612fee57600080fd5b600084013567ffffffffffffffff81111561300857600080fd5b61301486828701612dc9565b935050602084013567ffffffffffffffff81111561303157600080fd5b61303d86828701612dc9565b925050604061304e86828701612d4b565b9150509250925092565b60008060006060848603121561306d57600080fd5b600084013567ffffffffffffffff81111561308757600080fd5b61309386828701612dc9565b935050602084013567ffffffffffffffff8111156130b057600080fd5b6130bc86828701612dc9565b925050604084013567ffffffffffffffff8111156130d957600080fd5b6130e586828701612dc9565b9150509250925092565b60006130fb8383613294565b905092915050565b600061310f838361364b565b60208301905092915050565b61312481613b53565b82525050565b61313381613b41565b82525050565b600061314482613aac565b61314e8185613af2565b93508360208202850161316085613a8c565b8060005b8581101561319c578484038952815161317d85826130ef565b945061318883613ad8565b925060208a01995050600181019050613164565b50829750879550505050505092915050565b60006131b982613ab7565b6131c38185613b03565b93506131ce83613a9c565b8060005b838110156131ff5781516131e68882613103565b97506131f183613ae5565b9250506001810190506131d2565b5085935050505092915050565b61321581613b65565b82525050565b61322481613b71565b82525050565b600061323582613acd565b61323f8185613b25565b935061324f818560208601613bb4565b61325881613be7565b840191505092915050565b600061326e82613acd565b6132788185613b36565b9350613288818560208601613bb4565b80840191505092915050565b600061329f82613ac2565b6132a98185613b14565b93506132b9818560208601613bb4565b6132c281613be7565b840191505092915050565b60006132da601c83613b25565b91507f746f7020646f6d61696e206973206e6f742072656769737465726564000000006000830152602082019050919050565b600061331a601783613b25565b91507f74686973206973206e6f7420796f757220646f6d61696e0000000000000000006000830152602082019050919050565b600061335a601b83613b25565b91507f74686973206973206e6f7420796f757220746f7020646f6d61696e00000000006000830152602082019050919050565b600061339a602583613b25565b91507f746f7020646f6d61696e206e616d65206d6178206c656e67746820697320696e60008301527f76616c69640000000000000000000000000000000000000000000000000000006020830152604082019050919050565b6000613400601883613b25565b91507f646f6d61696e206973206e6f74207265676973746572656400000000000000006000830152602082019050919050565b6000613440601c83613b25565b91507f646f6d61696e20697320616c72656164792072656769737465726564000000006000830152602082019050919050565b6000613480602583613b25565b91507f746f7020646f6d61696e206e616d65206d696e206c656e67746820697320696e60008301527f76616c69640000000000000000000000000000000000000000000000000000006020830152604082019050919050565b60006134e6602183613b25565b91507f72656e657720657870697265642064617465206c696d6974206578636565646560008301527f64000000000000000000000000000000000000000000000000000000000000006020830152604082019050919050565b600061354c602e83613b25565b91507f6f6e6c792074686520636f6e7472616374206f776e65722063616e206b696c6c60008301527f207468697320636f6e74726163740000000000000000000000000000000000006020830152604082019050919050565b60006135b2602183613b25565b91507f646f6d61696e206e616d65206d696e206c656e67746820697320696e76616c6960008301527f64000000000000000000000000000000000000000000000000000000000000006020830152604082019050919050565b6000613618602083613b25565b91507f746f7020646f6d61696e20697320616c726561647920726567697374657265646000830152602082019050919050565b61365481613b9b565b82525050565b61366381613b9b565b82525050565b60006136758284613263565b915081905092915050565b600061368c8285613263565b91506136988284613263565b91508190509392505050565b60006020820190506136b9600083018461311b565b92915050565b600060808201905081810360008301526136d98187613139565b905081810360208301526136ed8186613139565b905081810360408301526137018185613139565b9050818103606083015261371581846131ae565b905095945050505050565b6000604082019050818103600083015261373a8185613139565b9050818103602083015261374e81846131ae565b90509392505050565b600060208201905061376c600083018461320c565b92915050565b6000602082019050613787600083018461321b565b92915050565b600060208201905081810360008301526137a7818461322a565b905092915050565b600060408201905081810360008301526137c9818561322a565b905081810360208301526137dd818461322a565b90509392505050565b600060a0820190508181036000830152613800818861322a565b90508181036020830152613814818761322a565b90508181036040830152613828818661322a565b9050613837606083018561365a565b613844608083018461312a565b9695505050505050565b60006060820190508181036000830152613868818661322a565b9050613877602083018561365a565b613884604083018461312a565b949350505050565b600060208201905081810360008301526138a5816132cd565b9050919050565b600060208201905081810360008301526138c58161330d565b9050919050565b600060208201905081810360008301526138e58161334d565b9050919050565b600060208201905081810360008301526139058161338d565b9050919050565b60006020820190508181036000830152613925816133f3565b9050919050565b6000602082019050818103600083015261394581613433565b9050919050565b6000602082019050818103600083015261396581613473565b9050919050565b60006020820190508181036000830152613985816134d9565b9050919050565b600060208201905081810360008301526139a58161353f565b9050919050565b600060208201905081810360008301526139c5816135a5565b9050919050565b600060208201905081810360008301526139e58161360b565b9050919050565b6000602082019050613a01600083018461365a565b92915050565b6000604051905081810181811067ffffffffffffffff82111715613a2a57600080fd5b8060405250919050565b600067ffffffffffffffff821115613a4b57600080fd5b601f19601f8301169050602081019050919050565b600067ffffffffffffffff821115613a7757600080fd5b601f19601f8301169050602081019050919050565b6000819050602082019050919050565b6000819050602082019050919050565b600081519050919050565b600081519050919050565b600081519050919050565b600081519050919050565b6000602082019050919050565b6000602082019050919050565b600082825260208201905092915050565b600082825260208201905092915050565b600082825260208201905092915050565b600082825260208201905092915050565b600081905092915050565b6000613b4c82613b7b565b9050919050565b6000613b5e82613b7b565b9050919050565b60008115159050919050565b6000819050919050565b600073ffffffffffffffffffffffffffffffffffffffff82169050919050565b6000819050919050565b82818337600083830152505050565b60005b83811015613bd2578082015181840152602081019050613bb7565b83811115613be1576000848401525b50505050565b6000601f19601f8301169050919050565b613c0181613b41565b8114613c0c57600080fd5b50565b613c1881613b71565b8114613c2357600080fd5b50565b613c2f81613b9b565b8114613c3a57600080fd5b5056fea365627a7a723158202eebd7d38a90989305e4fa55758df3c013084bca16c9df4348114cc92f966a6e6c6578706572696d656e74616cf564736f6c634300050b0040",
  "source": "pragma solidity ^0.5.9;\npragma experimental ABIEncoderV2;\n\ncontract JanusNameService {\n\n    address payable public contractOwner;\n\n    uint constant TOP_DOMAIN_NAME_MIN_LENGTH = 2;\n    uint constant TOP_DOMAIN_NAME_MAX_LENGTH = 5;\n    uint constant TOP_DOMAIN_EXPIRATION_DAYS = 365 days;\n    uint constant TOP_DOMAIN_RENEW_LIMIT = 730 days;\n\n    uint constant DOMAIN_EXPIRATION_DAYS = 365 days;\n    uint constant DOMAIN_NAME_MIN_LENGTH = 3;\n    uint constant DOMAIN_RENEW_LIMIT = 730 days;\n\n    struct TopDomain {\n        string name;\n        uint expires;\n        address owner;\n        uint ownerIndex;\n    }\n\n    struct Domain {\n        string name;\n        string topDomain;\n        string storageHash;\n        uint expires;\n        address owner;\n        uint ownerIndex;\n    }\n\n    TopDomain[] private topDomains;\n    mapping(bytes32 => uint) private topDomainsHashMap;\n    mapping(address => uint[]) private topDomainsOwnerMap;\n\n    Domain[] private domains;\n    mapping(bytes32 => uint) public domainsHashMap;\n    mapping(address => uint[]) public domainsOwnerMap;\n    mapping(string => uint) public domainsStorageHash;\n\n    constructor () public{\n        contractOwner = msg.sender;\n        topDomains.push(TopDomain('', 0, address(0x0), 0));\n        domains.push(Domain('', '', '', 0, address(0x0), 0));\n    }\n\n    function kill() external {\n        require(msg.sender == contractOwner, 'only the contract owner can kill this contract');\n        selfdestruct(contractOwner);\n    }\n\n    modifier isTopDomainNameMinLengthValid(\n        string memory _topDomainName\n    )\n    {\n        require(\n            bytes(_topDomainName).length >= TOP_DOMAIN_NAME_MIN_LENGTH,\n            'top domain name min length is invalid'\n        );\n        _;\n    }\n\n    modifier isTopDomainNameMaxLengthValid(\n        string memory _topDomainName\n    )\n    {\n        require(\n            bytes(_topDomainName).length <= TOP_DOMAIN_NAME_MAX_LENGTH,\n            'top domain name max length is invalid'\n        );\n        _;\n    }\n\n    modifier isTopDomainRegistered(\n        string memory _topDomainName\n    )\n    {\n        require(\n            topDomainsHashMap[getTopDomainHash(_topDomainName)] != 0,\n            'top domain is not registered'\n        );\n        _;\n    }\n\n    modifier isTopDomainNotRegistered(\n        string memory _topDomainName\n    )\n    {\n        require(\n            topDomainsHashMap[getTopDomainHash(_topDomainName)] == 0,\n            'top domain is already registered'\n        );\n        _;\n    }\n\n    modifier isTopDomainOwner(\n        string memory _topDomainName\n    )\n    {\n        uint index = topDomainsHashMap[getTopDomainHash(_topDomainName)];\n        require(\n            topDomains[index].owner == msg.sender,\n            'this is not your top domain'\n        );\n        _;\n    }\n\n    modifier isTopDomainDateExpirationValid(\n        string memory _topDomainName\n    )\n    {\n        uint index = topDomainsHashMap[getTopDomainHash(_topDomainName)];\n        require(\n            topDomains[index].expires <= now + TOP_DOMAIN_RENEW_LIMIT,\n            'renew expired date limit exceeded'\n        );\n        _;\n    }\n\n    modifier isDomainNameMinLengthValid(\n        string memory _domainName\n    )\n    {\n        require(\n            bytes(_domainName).length >= DOMAIN_NAME_MIN_LENGTH,\n            'domain name min length is invalid'\n        );\n        _;\n    }\n\n    modifier isDomainNotRegistered(\n        string memory _domainName,\n        string memory _topDomainName\n    )\n    {\n        require(\n            domainsHashMap[getCompleteDomainHash(_domainName,_topDomainName)] == 0,\n            'domain is already registered'\n        );\n        _;\n    }\n\n    modifier isDomainRegistered(\n         string memory _domainName,\n         string memory _topDomainName\n    )\n    {\n        require(\n            domainsHashMap[getCompleteDomainHash(_domainName, _topDomainName)] != 0,\n            'domain is not registered'\n        );\n        _;\n    }\n\n    modifier isDomainOwner(\n         string memory _domainName,\n         string memory _topDomainName\n    )\n    {\n        uint index = domainsHashMap[getCompleteDomainHash(_domainName, _topDomainName)];\n        require(\n            domains[index].owner == msg.sender,\n            'this is not your domain'\n        );\n        _;\n    }\n\n    event TopDomainRegistered(\n        string indexed topDomainName,\n        address indexed owner\n    );\n\n    event TopDomainOwnershipChanged(\n        string indexed topDomainName,\n        address indexed newOwner\n    );\n\n    event TopDomainRenewed(\n        string indexed topDomainName,\n        uint newExpire\n    );\n\n    event DomainRegistered(\n        string indexed domainName,\n        string indexed topDomainName,\n        address indexed owner\n    );\n\n    event DomainOwnershipChanged(\n        string indexed domainName,\n        string indexed topDomainName,\n        address indexed newOwner\n    );\n\n    event DomainStorageHashUpdated(\n        string indexed domainName,\n        string indexed topDomainName,\n        string storageHash\n    );\n\n    event DomainRenewed(\n        string indexed domainName,\n        string indexed topDomainName,\n        uint newExpire\n    );\n\n    function registerTopDomain(\n        string memory _topDomainName\n    ) public\n        isTopDomainNameMinLengthValid(_topDomainName)\n        isTopDomainNameMaxLengthValid(_topDomainName)\n        isTopDomainNotRegistered(_topDomainName)\n      payable\n    {\n        TopDomain memory newTopDomain = TopDomain({\n            name: _topDomainName,\n            expires: now + TOP_DOMAIN_EXPIRATION_DAYS,\n            owner: msg.sender,\n            ownerIndex: topDomainsOwnerMap[msg.sender].length\n        });\n\n        topDomains.push(newTopDomain);\n\n        uint topDomainsIndex = topDomains.length - 1;\n\n        topDomainsHashMap[getTopDomainHash(_topDomainName)] = topDomainsIndex;\n        topDomainsOwnerMap[newTopDomain.owner].push(topDomainsIndex);\n\n        emit TopDomainRegistered(_topDomainName, msg.sender);\n    }\n\n    function getAllTopDomainsByOwner() public view returns (string[] memory name, uint[] memory expires)\n    {\n        uint[] memory indexes = topDomainsOwnerMap[msg.sender];\n        string[] memory resultName = new string[](indexes.length);\n        uint[] memory resultExpire = new uint[](indexes.length);\n\n        for(uint i = 0; i < indexes.length; i++){\n            resultName[i] = topDomains[indexes[i]].name;\n            resultExpire[i] = topDomains[indexes[i]].expires;\n        }\n\n        return (resultName, resultExpire);\n    }\n\n    function getTopDomainByHash(\n        bytes32 _hash\n    ) public view returns (string memory name, uint expires, address owner)\n    {\n        uint index = topDomainsHashMap[_hash];\n        return (topDomains[index].name, topDomains[index].expires, topDomains[index].owner);\n    }\n\n    function getTopDomainHash(\n        string memory _topDomainName\n    ) public pure returns (bytes32)\n    {\n        return keccak256(abi.encodePacked(_topDomainName));\n    }\n\n    function changeTopDomainOwnership(\n        string memory _topDomainName,\n        address _newOwner\n    ) public\n        isTopDomainRegistered(_topDomainName)\n        isTopDomainOwner(_topDomainName)\n      payable\n    {\n        uint index = topDomainsHashMap[getTopDomainHash(_topDomainName)];\n        address currentOwner = topDomains[index].owner;\n\n        // Delete from current owner\n        uint[] storage currentOwnerTopDomainList = topDomainsOwnerMap[currentOwner];\n        uint indexToRemove = topDomains[index].ownerIndex;\n        currentOwnerTopDomainList[indexToRemove] =\n            currentOwnerTopDomainList[currentOwnerTopDomainList.length - 1];\n        currentOwnerTopDomainList.length--;\n\n        // Update the references to the new owner\n        uint[] storage newOwnerTopDomainList = topDomainsOwnerMap[_newOwner];\n        newOwnerTopDomainList.push(index);\n        topDomains[index].owner = _newOwner;\n        topDomains[index].ownerIndex = newOwnerTopDomainList.length - 1;\n\n        emit TopDomainOwnershipChanged(_topDomainName, _newOwner);\n    }\n\n    function renewTopDomain(\n        string memory _topDomainName\n    ) public\n        isTopDomainRegistered(_topDomainName)\n        isTopDomainOwner(_topDomainName)\n        isTopDomainDateExpirationValid(_topDomainName)\n      payable\n    {\n        uint index = topDomainsHashMap[getTopDomainHash(_topDomainName)];\n        uint topDomainExpireDate = topDomains[index].expires;\n        uint newExpireDate = topDomainExpireDate + TOP_DOMAIN_EXPIRATION_DAYS;\n        topDomains[index].expires = newExpireDate;\n\n        emit TopDomainRenewed(_topDomainName, newExpireDate);\n    }\n\n    function topDomainAlreadyRegistered(\n        string memory _topDomainName\n    ) public view returns(bool)\n    {\n        uint index = topDomainsHashMap[getTopDomainHash(_topDomainName)];\n        return bytes(topDomains[index].name).length != 0;\n    }\n\n    function getTopDomainsLength() public view returns (uint)\n    {\n        return topDomains.length;\n    }\n\n    function registerDomain(\n        string memory _domainName,\n        string memory _topDomainName,\n        string memory _storageHash\n    ) public\n        isTopDomainNameMinLengthValid(_topDomainName)\n        isTopDomainNameMaxLengthValid(_topDomainName)\n        isTopDomainRegistered(_topDomainName)\n        isDomainNameMinLengthValid(_domainName)\n        isDomainNotRegistered(_domainName, _topDomainName)\n      payable\n    {\n        bytes32 domainCompleteHash = getCompleteDomainHash(_domainName, _topDomainName);\n        uint[] storage ownerDomainList = domainsOwnerMap[msg.sender];\n\n        uint ownerDomainListIndex = ownerDomainList.length;\n        uint domainsIndex = domains.length;\n\n        domainsHashMap[domainCompleteHash] = domainsIndex;\n        domainsStorageHash[_storageHash] = domainsIndex;\n\n        Domain memory newDomain = Domain({\n            name: _domainName,\n            topDomain: _topDomainName,\n            storageHash: _storageHash,\n            expires: now + DOMAIN_EXPIRATION_DAYS,\n            owner: msg.sender,\n            ownerIndex: ownerDomainListIndex\n        });\n\n        domains.push(newDomain);\n        ownerDomainList.push(domainsIndex);\n\n        emit DomainRegistered(_domainName, _topDomainName, msg.sender);\n    }\n\n    function getStorageHashByDomain(\n        string memory _domainName,\n        string memory _topDomainName\n    ) public\n        isDomainRegistered(_domainName, _topDomainName)\n      view returns(string memory)\n    {\n        bytes32 completeDomainHash = getCompleteDomainHash(_domainName, _topDomainName);\n        uint index = domainsHashMap[completeDomainHash];\n        return domains[index].storageHash;\n    }\n\n    function updateDomainStorageHash(\n        string memory _domainName,\n        string memory _topDomainName,\n        string memory _storageHash\n    ) public\n        isDomainRegistered(_domainName, _topDomainName)\n        isDomainOwner(_domainName, _topDomainName)\n      payable\n    {\n        bytes32 completeDomainHash = getCompleteDomainHash(_domainName, _topDomainName);\n        uint index = domainsHashMap[completeDomainHash];\n        domains[index].storageHash = _storageHash;\n        domainsStorageHash[_storageHash] = index;\n\n        emit DomainStorageHashUpdated(_domainName, _topDomainName, _storageHash);\n    }\n\n    function renewDomain(\n        string memory _domainName,\n        string memory _topDomainName\n    ) public\n        isDomainRegistered(_domainName, _topDomainName)\n        isDomainOwner(_domainName, _topDomainName)\n      payable\n    {\n        uint index = domainsHashMap[getCompleteDomainHash(_domainName, _topDomainName)];\n        uint domainExpireDate = domains[index].expires;\n        uint newExpireDate = domainExpireDate + DOMAIN_EXPIRATION_DAYS;\n        domains[index].expires = newExpireDate;\n\n        emit DomainRenewed(_domainName, _topDomainName, newExpireDate);\n    }\n\n    function changeDomainOwnership(\n        string memory _domainName,\n        string memory _topDomainName,\n        address _newOwner\n    ) public\n        isDomainRegistered(_domainName, _topDomainName)\n        isDomainOwner(_domainName, _topDomainName)\n    {\n        uint index = domainsHashMap[getCompleteDomainHash(_domainName, _topDomainName)];\n        address currentOwner = domains[index].owner;\n\n        // Delete from current owner\n        uint[] storage currentOwnerDomainList = domainsOwnerMap[currentOwner];\n        uint indexToRemove = domains[index].ownerIndex;\n        currentOwnerDomainList[indexToRemove] = currentOwnerDomainList[currentOwnerDomainList.length - 1];\n        currentOwnerDomainList.length--;\n\n        // Update the references to the new owner\n        uint[] storage newOwnerDomainList = domainsOwnerMap[_newOwner];\n        newOwnerDomainList.push(index);\n        domains[index].owner = _newOwner;\n        domains[index].ownerIndex = newOwnerDomainList.length - 1;\n\n        emit DomainOwnershipChanged(_domainName, _topDomainName, _newOwner);\n    }\n\n    function getDomainByHash(\n        bytes32 _hash\n    ) public view returns (string memory name, string memory topDomain, string memory storageHash, uint expires, address owner)\n    {\n        uint index = domainsHashMap[_hash];\n        return (domains[index].name, domains[index].topDomain, domains[index].storageHash, domains[index].expires, domains[index].owner);\n    }\n\n    function domainAlreadyRegistered(\n        string memory _domainName,\n        string memory _topDomainName\n    ) public view returns(bool)\n    {\n        uint index = domainsHashMap[getCompleteDomainHash(_domainName,_topDomainName)];\n        return bytes(domains[index].name).length != 0;\n    }\n\n    function getDomainsLength() public view returns (uint)\n    {\n        return domains.length;\n    }\n\n    function getCompleteDomainHash(\n        string memory _domainName,\n        string memory _topDomainName\n    ) public pure returns(bytes32)\n    {\n        return keccak256(abi.encodePacked(_domainName, _topDomainName));\n    }\n\n    function getAllDomainsByOwner(\n    ) public view\n        returns (\n            string[] memory name,\n            string[] memory topDomain,\n            string[] memory storageHash,\n            uint[] memory expires)\n    {\n        uint[] memory indexes = domainsOwnerMap[msg.sender];\n        string[] memory resultNames = new string[](indexes.length);\n        string[] memory resultTopDomains = new string[](indexes.length);\n        string[] memory resultStorageHashes = new string[](indexes.length);\n        uint[] memory resultExpires = new uint[](indexes.length);\n\n        for(uint i = 0; i < indexes.length; i++){\n            resultNames[i] = domains[indexes[i]].name;\n            resultTopDomains[i] = domains[indexes[i]].topDomain;\n            resultStorageHashes[i] = domains[indexes[i]].storageHash;\n            resultExpires[i] = domains[indexes[i]].expires;\n        }\n\n        return (resultNames, resultTopDomains, resultStorageHashes, resultExpires);\n    }\n\n    function getDomainByStorageHash(\n        string memory storageHash\n    ) public view\n        returns (\n            string memory topDomain,\n            string memory domain)\n    {\n        uint index = domainsStorageHash[storageHash];\n        return (domains[index].topDomain, domains[index].name);\n    }\n}\n",
  "sourcePath": "/home/henrique/labs/jns/packages/smartcontract/contracts/JanusNameService.sol",
  "compiler": {
    "name": "solc",
    "version": "0.5.11+commit.c082d0b4.Emscripten.clang"
  },
  "schemaVersion": "3.0.16",
  "updatedAt": "2019-10-10T16:57:41.962Z",
  "devdoc": {
    "methods": {}
  },
  "userdoc": {
    "methods": {}
  }
}