{
  "contractName": "JanusNameService",
  "abi": [
    {
      "constant": true,
      "inputs": [
        {
          "internalType": "address",
          "name": "",
          "type": "address"
        },
        {
          "internalType": "uint256",
          "name": "",
          "type": "uint256"
        }
      ],
      "name": "topDomainsOwnerMap",
      "outputs": [
        {
          "internalType": "uint256",
          "name": "",
          "type": "uint256"
        }
      ],
      "payable": false,
      "stateMutability": "view",
      "type": "function"
    },
    {
      "constant": true,
      "inputs": [
        {
          "internalType": "string",
          "name": "",
          "type": "string"
        }
      ],
      "name": "domainsStorageHash",
      "outputs": [
        {
          "internalType": "uint256",
          "name": "",
          "type": "uint256"
        }
      ],
      "payable": false,
      "stateMutability": "view",
      "type": "function"
    },
    {
      "constant": true,
      "inputs": [
        {
          "internalType": "uint256",
          "name": "",
          "type": "uint256"
        }
      ],
      "name": "topDomains",
      "outputs": [
        {
          "internalType": "string",
          "name": "name",
          "type": "string"
        },
        {
          "internalType": "uint256",
          "name": "expires",
          "type": "uint256"
        },
        {
          "internalType": "address",
          "name": "owner",
          "type": "address"
        },
        {
          "internalType": "uint256",
          "name": "ownerIndex",
          "type": "uint256"
        }
      ],
      "payable": false,
      "stateMutability": "view",
      "type": "function"
    },
    {
      "constant": true,
      "inputs": [
        {
          "internalType": "uint256",
          "name": "",
          "type": "uint256"
        }
      ],
      "name": "domains",
      "outputs": [
        {
          "internalType": "string",
          "name": "name",
          "type": "string"
        },
        {
          "internalType": "string",
          "name": "topDomain",
          "type": "string"
        },
        {
          "internalType": "string",
          "name": "storageHash",
          "type": "string"
        },
        {
          "internalType": "uint256",
          "name": "expires",
          "type": "uint256"
        },
        {
          "internalType": "address",
          "name": "owner",
          "type": "address"
        },
        {
          "internalType": "uint256",
          "name": "ownerIndex",
          "type": "uint256"
        }
      ],
      "payable": false,
      "stateMutability": "view",
      "type": "function"
    },
    {
      "constant": true,
      "inputs": [
        {
          "internalType": "address",
          "name": "",
          "type": "address"
        },
        {
          "internalType": "uint256",
          "name": "",
          "type": "uint256"
        }
      ],
      "name": "domainsOwnerMap",
      "outputs": [
        {
          "internalType": "uint256",
          "name": "",
          "type": "uint256"
        }
      ],
      "payable": false,
      "stateMutability": "view",
      "type": "function"
    },
    {
      "constant": true,
      "inputs": [],
      "name": "contractOwner",
      "outputs": [
        {
          "internalType": "address payable",
          "name": "",
          "type": "address"
        }
      ],
      "payable": false,
      "stateMutability": "view",
      "type": "function"
    },
    {
      "constant": true,
      "inputs": [
        {
          "internalType": "bytes32",
          "name": "",
          "type": "bytes32"
        }
      ],
      "name": "domainsHashMap",
      "outputs": [
        {
          "internalType": "uint256",
          "name": "",
          "type": "uint256"
        }
      ],
      "payable": false,
      "stateMutability": "view",
      "type": "function"
    },
    {
      "constant": true,
      "inputs": [
        {
          "internalType": "bytes32",
          "name": "",
          "type": "bytes32"
        }
      ],
      "name": "topDomainsHashMap",
      "outputs": [
        {
          "internalType": "uint256",
          "name": "",
          "type": "uint256"
        }
      ],
      "payable": false,
      "stateMutability": "view",
      "type": "function"
    },
    {
      "inputs": [],
      "payable": false,
      "stateMutability": "nonpayable",
      "type": "constructor"
    },
    {
      "anonymous": false,
      "inputs": [
        {
          "indexed": true,
          "internalType": "string",
          "name": "topDomainName",
          "type": "string"
        },
        {
          "indexed": true,
          "internalType": "address",
          "name": "owner",
          "type": "address"
        }
      ],
      "name": "TopDomainRegistered",
      "type": "event"
    },
    {
      "anonymous": false,
      "inputs": [
        {
          "indexed": true,
          "internalType": "string",
          "name": "topDomainName",
          "type": "string"
        },
        {
          "indexed": true,
          "internalType": "address",
          "name": "newOwner",
          "type": "address"
        }
      ],
      "name": "TopDomainOwnershipChanged",
      "type": "event"
    },
    {
      "anonymous": false,
      "inputs": [
        {
          "indexed": true,
          "internalType": "string",
          "name": "topDomainName",
          "type": "string"
        },
        {
          "indexed": false,
          "internalType": "uint256",
          "name": "newExpire",
          "type": "uint256"
        }
      ],
      "name": "TopDomainRenewed",
      "type": "event"
    },
    {
      "anonymous": false,
      "inputs": [
        {
          "indexed": true,
          "internalType": "string",
          "name": "domainName",
          "type": "string"
        },
        {
          "indexed": true,
          "internalType": "string",
          "name": "topDomainName",
          "type": "string"
        },
        {
          "indexed": true,
          "internalType": "address",
          "name": "owner",
          "type": "address"
        }
      ],
      "name": "DomainRegistered",
      "type": "event"
    },
    {
      "anonymous": false,
      "inputs": [
        {
          "indexed": true,
          "internalType": "string",
          "name": "domainName",
          "type": "string"
        },
        {
          "indexed": true,
          "internalType": "string",
          "name": "topDomainName",
          "type": "string"
        },
        {
          "indexed": true,
          "internalType": "address",
          "name": "newOwner",
          "type": "address"
        }
      ],
      "name": "DomainOwnershipChanged",
      "type": "event"
    },
    {
      "anonymous": false,
      "inputs": [
        {
          "indexed": true,
          "internalType": "string",
          "name": "domainName",
          "type": "string"
        },
        {
          "indexed": true,
          "internalType": "string",
          "name": "topDomainName",
          "type": "string"
        },
        {
          "indexed": false,
          "internalType": "string",
          "name": "storageHash",
          "type": "string"
        }
      ],
      "name": "DomainStorageHashUpdated",
      "type": "event"
    },
    {
      "anonymous": false,
      "inputs": [
        {
          "indexed": true,
          "internalType": "string",
          "name": "domainName",
          "type": "string"
        },
        {
          "indexed": true,
          "internalType": "string",
          "name": "topDomainName",
          "type": "string"
        },
        {
          "indexed": false,
          "internalType": "uint256",
          "name": "newExpire",
          "type": "uint256"
        }
      ],
      "name": "DomainRenewed",
      "type": "event"
    },
    {
      "constant": false,
      "inputs": [],
      "name": "kill",
      "outputs": [],
      "payable": false,
      "stateMutability": "nonpayable",
      "type": "function"
    },
    {
      "constant": false,
      "inputs": [
        {
          "internalType": "string",
          "name": "_topDomainName",
          "type": "string"
        }
      ],
      "name": "registerTopDomain",
      "outputs": [],
      "payable": true,
      "stateMutability": "payable",
      "type": "function"
    },
    {
      "constant": true,
      "inputs": [],
      "name": "getAllTopDomainsByOwner",
      "outputs": [
        {
          "internalType": "string[]",
          "name": "name",
          "type": "string[]"
        },
        {
          "internalType": "uint256[]",
          "name": "expires",
          "type": "uint256[]"
        }
      ],
      "payable": false,
      "stateMutability": "view",
      "type": "function"
    },
    {
      "constant": true,
      "inputs": [
        {
          "internalType": "bytes32",
          "name": "_hash",
          "type": "bytes32"
        }
      ],
      "name": "getTopDomainByHash",
      "outputs": [
        {
          "internalType": "string",
          "name": "name",
          "type": "string"
        },
        {
          "internalType": "uint256",
          "name": "expires",
          "type": "uint256"
        },
        {
          "internalType": "address",
          "name": "owner",
          "type": "address"
        }
      ],
      "payable": false,
      "stateMutability": "view",
      "type": "function"
    },
    {
      "constant": true,
      "inputs": [
        {
          "internalType": "string",
          "name": "_topDomainName",
          "type": "string"
        }
      ],
      "name": "getTopDomainHash",
      "outputs": [
        {
          "internalType": "bytes32",
          "name": "",
          "type": "bytes32"
        }
      ],
      "payable": false,
      "stateMutability": "pure",
      "type": "function"
    },
    {
      "constant": false,
      "inputs": [
        {
          "internalType": "string",
          "name": "_topDomainName",
          "type": "string"
        },
        {
          "internalType": "address",
          "name": "_newOwner",
          "type": "address"
        }
      ],
      "name": "changeTopDomainOwnership",
      "outputs": [],
      "payable": true,
      "stateMutability": "payable",
      "type": "function"
    },
    {
      "constant": false,
      "inputs": [
        {
          "internalType": "string",
          "name": "_topDomainName",
          "type": "string"
        }
      ],
      "name": "renewTopDomain",
      "outputs": [],
      "payable": true,
      "stateMutability": "payable",
      "type": "function"
    },
    {
      "constant": true,
      "inputs": [
        {
          "internalType": "string",
          "name": "_topDomainName",
          "type": "string"
        }
      ],
      "name": "topDomainAlreadyRegistered",
      "outputs": [
        {
          "internalType": "bool",
          "name": "",
          "type": "bool"
        }
      ],
      "payable": false,
      "stateMutability": "view",
      "type": "function"
    },
    {
      "constant": true,
      "inputs": [],
      "name": "getTopDomainsLength",
      "outputs": [
        {
          "internalType": "uint256",
          "name": "",
          "type": "uint256"
        }
      ],
      "payable": false,
      "stateMutability": "view",
      "type": "function"
    },
    {
      "constant": false,
      "inputs": [
        {
          "internalType": "string",
          "name": "_domainName",
          "type": "string"
        },
        {
          "internalType": "string",
          "name": "_topDomainName",
          "type": "string"
        },
        {
          "internalType": "string",
          "name": "_storageHash",
          "type": "string"
        }
      ],
      "name": "registerDomain",
      "outputs": [],
      "payable": true,
      "stateMutability": "payable",
      "type": "function"
    },
    {
      "constant": true,
      "inputs": [
        {
          "internalType": "string",
          "name": "_domainName",
          "type": "string"
        },
        {
          "internalType": "string",
          "name": "_topDomainName",
          "type": "string"
        }
      ],
      "name": "getStorageHashByDomain",
      "outputs": [
        {
          "internalType": "string",
          "name": "",
          "type": "string"
        }
      ],
      "payable": false,
      "stateMutability": "view",
      "type": "function"
    },
    {
      "constant": false,
      "inputs": [
        {
          "internalType": "string",
          "name": "_domainName",
          "type": "string"
        },
        {
          "internalType": "string",
          "name": "_topDomainName",
          "type": "string"
        },
        {
          "internalType": "string",
          "name": "_storageHash",
          "type": "string"
        }
      ],
      "name": "updateDomainStorageHash",
      "outputs": [],
      "payable": true,
      "stateMutability": "payable",
      "type": "function"
    },
    {
      "constant": false,
      "inputs": [
        {
          "internalType": "string",
          "name": "_domainName",
          "type": "string"
        },
        {
          "internalType": "string",
          "name": "_topDomainName",
          "type": "string"
        }
      ],
      "name": "renewDomain",
      "outputs": [],
      "payable": true,
      "stateMutability": "payable",
      "type": "function"
    },
    {
      "constant": false,
      "inputs": [
        {
          "internalType": "string",
          "name": "_domainName",
          "type": "string"
        },
        {
          "internalType": "string",
          "name": "_topDomainName",
          "type": "string"
        },
        {
          "internalType": "address",
          "name": "_newOwner",
          "type": "address"
        }
      ],
      "name": "changeDomainOwnership",
      "outputs": [],
      "payable": false,
      "stateMutability": "nonpayable",
      "type": "function"
    },
    {
      "constant": true,
      "inputs": [
        {
          "internalType": "bytes32",
          "name": "_hash",
          "type": "bytes32"
        }
      ],
      "name": "getDomainByHash",
      "outputs": [
        {
          "internalType": "string",
          "name": "name",
          "type": "string"
        },
        {
          "internalType": "string",
          "name": "topDomain",
          "type": "string"
        },
        {
          "internalType": "string",
          "name": "storageHash",
          "type": "string"
        },
        {
          "internalType": "uint256",
          "name": "expires",
          "type": "uint256"
        },
        {
          "internalType": "address",
          "name": "owner",
          "type": "address"
        }
      ],
      "payable": false,
      "stateMutability": "view",
      "type": "function"
    },
    {
      "constant": true,
      "inputs": [
        {
          "internalType": "string",
          "name": "_domainName",
          "type": "string"
        },
        {
          "internalType": "string",
          "name": "_topDomainName",
          "type": "string"
        }
      ],
      "name": "domainAlreadyRegistered",
      "outputs": [
        {
          "internalType": "bool",
          "name": "",
          "type": "bool"
        }
      ],
      "payable": false,
      "stateMutability": "view",
      "type": "function"
    },
    {
      "constant": true,
      "inputs": [],
      "name": "getDomainsLength",
      "outputs": [
        {
          "internalType": "uint256",
          "name": "",
          "type": "uint256"
        }
      ],
      "payable": false,
      "stateMutability": "view",
      "type": "function"
    },
    {
      "constant": true,
      "inputs": [
        {
          "internalType": "string",
          "name": "_domainName",
          "type": "string"
        },
        {
          "internalType": "string",
          "name": "_topDomainName",
          "type": "string"
        }
      ],
      "name": "getCompleteDomainHash",
      "outputs": [
        {
          "internalType": "bytes32",
          "name": "",
          "type": "bytes32"
        }
      ],
      "payable": false,
      "stateMutability": "pure",
      "type": "function"
    },
    {
      "constant": true,
      "inputs": [],
      "name": "getAllDomainsByOwner",
      "outputs": [
        {
          "internalType": "string[]",
          "name": "name",
          "type": "string[]"
        },
        {
          "internalType": "string[]",
          "name": "topDomain",
          "type": "string[]"
        },
        {
          "internalType": "string[]",
          "name": "storageHash",
          "type": "string[]"
        },
        {
          "internalType": "uint256[]",
          "name": "expires",
          "type": "uint256[]"
        }
      ],
      "payable": false,
      "stateMutability": "view",
      "type": "function"
    },
    {
      "constant": true,
      "inputs": [
        {
          "internalType": "string",
          "name": "storageHash",
          "type": "string"
        }
      ],
      "name": "getDomainByStorageHash",
      "outputs": [
        {
          "internalType": "string",
          "name": "topDomain",
          "type": "string"
        },
        {
          "internalType": "string",
          "name": "domain",
          "type": "string"
        }
      ],
      "payable": false,
      "stateMutability": "view",
      "type": "function"
    }
  ],
  "bytecode": "0x60806040523480156200001157600080fd5b50336000806101000a81548173ffffffffffffffffffffffffffffffffffffffff021916908373ffffffffffffffffffffffffffffffffffffffff1602179055506001604051806080016040528060405180602001604052806000815250815260200160008152602001600073ffffffffffffffffffffffffffffffffffffffff1681526020016000815250908060018154018082558091505090600182039060005260206000209060040201600090919290919091506000820151816000019080519060200190620000e6929190620002a6565b506020820151816001015560408201518160020160006101000a81548173ffffffffffffffffffffffffffffffffffffffff021916908373ffffffffffffffffffffffffffffffffffffffff1602179055506060820151816003015550505060046040518060c0016040528060405180602001604052806000815250815260200160405180602001604052806000815250815260200160405180602001604052806000815250815260200160008152602001600073ffffffffffffffffffffffffffffffffffffffff168152602001600081525090806001815401808255809150509060018203906000526020600020906006020160009091929091909150600082015181600001908051906020019062000203929190620002a6565b50602082015181600101908051906020019062000222929190620002a6565b50604082015181600201908051906020019062000241929190620002a6565b506060820151816003015560808201518160040160006101000a81548173ffffffffffffffffffffffffffffffffffffffff021916908373ffffffffffffffffffffffffffffffffffffffff16021790555060a0820151816005015550505062000355565b828054600181600116156101000203166002900490600052602060002090601f016020900481019282601f10620002e957805160ff19168380011785556200031a565b828001600101855582156200031a579182015b8281111562000319578251825591602001919060010190620002fc565b5b5090506200032991906200032d565b5090565b6200035291905b808211156200034e57600081600090555060010162000334565b5090565b90565b61420080620003656000396000f3fe6080604052600436106101b75760003560e01c8063775a5140116100ec578063d83dfdec1161008a578063e0cf381211610064578063e0cf38121461066f578063eca14045146106ac578063edb48c56146106e9578063ee15bc6214610705576101b7565b8063d83dfdec146105c9578063d8f84ead14610606578063d97750a414610643576101b7565b8063ae546ff4116100c6578063ae546ff4146104f9578063bbd462c414610522578063ce606ee01461055f578063d4e643831461058a576101b7565b8063775a5140146104635780639545bb42146104a0578063a3917035146104bc576101b7565b806333d314251161015957806341c0e1b51161013357806341c0e1b5146103a157806366cf8fab146103b85780636c07d84c146103fa5780636ffb6cb814610425576101b7565b806333d31425146103195780633c45357c146103355780633d7771d214610376576101b7565b80630fbf844b116101955780630fbf844b14610252578063210c5c381461026e5780632d1658e81461029c5780632f700e36146102d9576101b7565b806303049bb4146101bc57806305f04ea4146101f95780630f0735d914610236575b600080fd5b3480156101c857600080fd5b506101e360048036036101de9190810190613314565b610721565b6040516101f09190613f6c565b60405180910390f35b34801561020557600080fd5b50610220600480360361021b9190810190613379565b61074f565b60405161022d9190613f6c565b60405180910390f35b610250600480360361024b919081019061344f565b61077d565b005b61026c6004803603610267919081019061353a565b61098f565b005b34801561027a57600080fd5b50610283610bab565b6040516102939493929190613b9d565b60405180910390f35b3480156102a857600080fd5b506102c360048036036102be91908101906133ba565b611047565b6040516102d09190613c50565b60405180910390f35b3480156102e557600080fd5b5061030060048036036102fb91908101906135d1565b611077565b6040516103109493929190613de0565b60405180910390f35b610333600480360361032e91908101906133fb565b61116c565b005b34801561034157600080fd5b5061035c60048036036103579190810190613350565b611555565b60405161036d959493929190613cc4565b60405180910390f35b34801561038257600080fd5b5061038b611815565b6040516103989190613f6c565b60405180910390f35b3480156103ad57600080fd5b506103b6611822565b005b3480156103c457600080fd5b506103df60048036036103da91908101906135d1565b6118eb565b6040516103f196959493929190613d6a565b60405180910390f35b34801561040657600080fd5b5061040f611b1c565b60405161041c9190613f6c565b60405180910390f35b34801561043157600080fd5b5061044c600480360361044791908101906133ba565b611b29565b60405161045a929190613c8d565b60405180910390f35b34801561046f57600080fd5b5061048a60048036036104859190810190613314565b611ccd565b6040516104979190613f6c565b60405180910390f35b6104ba60048036036104b591908101906133ba565b611cfb565b005b3480156104c857600080fd5b506104e360048036036104de919081019061344f565b612012565b6040516104f09190613c50565b60405180910390f35b34801561050557600080fd5b50610520600480360361051b91908101906134bb565b612045565b005b34801561052e57600080fd5b506105496004803603610544919081019061344f565b61244c565b6040516105569190613c6b565b60405180910390f35b34801561056b57600080fd5b50610574612599565b6040516105819190613b82565b60405180910390f35b34801561059657600080fd5b506105b160048036036105ac9190810190613350565b6125be565b6040516105c093929190613d2c565b60405180910390f35b3480156105d557600080fd5b506105f060048036036105eb9190810190613350565b612701565b6040516105fd9190613f6c565b60405180910390f35b34801561061257600080fd5b5061062d600480360361062891908101906133ba565b612719565b60405161063a9190613c35565b60405180910390f35b34801561064f57600080fd5b50610658612779565b604051610666929190613bfe565b60405180910390f35b34801561067b57600080fd5b506106966004803603610691919081019061344f565b6129d2565b6040516106a39190613c35565b60405180910390f35b3480156106b857600080fd5b506106d360048036036106ce9190810190613350565b612a34565b6040516106e09190613f6c565b60405180910390f35b61070360048036036106fe919081019061353a565b612a4c565b005b61071f600480360361071a91908101906133ba565b612e5e565b005b6003602052816000526040600020818154811061073a57fe5b90600052602060002001600091509150505481565b6007818051602081018201805184825260208301602085012081835280955050505050506000915090505481565b818160006005600061078f8585612012565b81526020019081526020016000205414156107df576040517f08c379a00000000000000000000000000000000000000000000000000000000081526004016107d690613eac565b60405180910390fd5b83836000600560006107f18585612012565b81526020019081526020016000205490503373ffffffffffffffffffffffffffffffffffffffff166004828154811061082657fe5b906000526020600020906006020160040160009054906101000a900473ffffffffffffffffffffffffffffffffffffffff1673ffffffffffffffffffffffffffffffffffffffff16146108ae576040517f08c379a00000000000000000000000000000000000000000000000000000000081526004016108a590613e4c565b60405180910390fd5b6000600560006108be8a8a612012565b81526020019081526020016000205490506000600482815481106108de57fe5b906000526020600020906006020160030154905060006301e1338082019050806004848154811061090b57fe5b9060005260206000209060060201600301819055508860405161092e9190613b47565b60405180910390208a6040516109449190613b47565b60405180910390207ff266d11c683f745c2b249e6b63afff6597a267340a403addd0336a26bf601b098360405161097b9190613f6c565b60405180910390a350505050505050505050565b82826000600560006109a18585612012565b81526020019081526020016000205414156109f1576040517f08c379a00000000000000000000000000000000000000000000000000000000081526004016109e890613eac565b60405180910390fd5b8484600060056000610a038585612012565b81526020019081526020016000205490503373ffffffffffffffffffffffffffffffffffffffff1660048281548110610a3857fe5b906000526020600020906006020160040160009054906101000a900473ffffffffffffffffffffffffffffffffffffffff1673ffffffffffffffffffffffffffffffffffffffff1614610ac0576040517f08c379a0000000000000000000000000000000000000000000000000000000008152600401610ab790613e4c565b60405180910390fd5b6000610acc8989612012565b90506000600560008381526020019081526020016000205490508760048281548110610af457fe5b90600052602060002090600602016002019080519060200190610b18929190613052565b5080600789604051610b2a9190613b47565b90815260200160405180910390208190555088604051610b4a9190613b47565b60405180910390208a604051610b609190613b47565b60405180910390207f53fefe0fa4d79f98ec788fb08233fb5f1a5373fe81058f04b568d4d0475e19758a604051610b979190613c6b565b60405180910390a350505050505050505050565b6060806060806060600660003373ffffffffffffffffffffffffffffffffffffffff1673ffffffffffffffffffffffffffffffffffffffff168152602001908152602001600020805480602002602001604051908101604052809291908181526020018280548015610c3c57602002820191906000526020600020905b815481526020019060010190808311610c28575b5050505050905060608151604051908082528060200260200182016040528015610c7a57816020015b6060815260200190600190039081610c655790505b50905060608251604051908082528060200260200182016040528015610cb457816020015b6060815260200190600190039081610c9f5790505b50905060608351604051908082528060200260200182016040528015610cee57816020015b6060815260200190600190039081610cd95790505b50905060608451604051908082528060200260200182016040528015610d235781602001602082028038833980820191505090505b50905060008090505b855181101561102f576004868281518110610d4357fe5b602002602001015181548110610d5557fe5b90600052602060002090600602016000018054600181600116156101000203166002900480601f016020809104026020016040519081016040528092919081815260200182805460018160011615610100020316600290048015610dfa5780601f10610dcf57610100808354040283529160200191610dfa565b820191906000526020600020905b815481529060010190602001808311610ddd57829003601f168201915b5050505050858281518110610e0b57fe5b60200260200101819052506004868281518110610e2457fe5b602002602001015181548110610e3657fe5b90600052602060002090600602016001018054600181600116156101000203166002900480601f016020809104026020016040519081016040528092919081815260200182805460018160011615610100020316600290048015610edb5780601f10610eb057610100808354040283529160200191610edb565b820191906000526020600020905b815481529060010190602001808311610ebe57829003601f168201915b5050505050848281518110610eec57fe5b60200260200101819052506004868281518110610f0557fe5b602002602001015181548110610f1757fe5b90600052602060002090600602016002018054600181600116156101000203166002900480601f016020809104026020016040519081016040528092919081815260200182805460018160011615610100020316600290048015610fbc5780601f10610f9157610100808354040283529160200191610fbc565b820191906000526020600020905b815481529060010190602001808311610f9f57829003601f168201915b5050505050838281518110610fcd57fe5b60200260200101819052506004868281518110610fe657fe5b602002602001015181548110610ff857fe5b90600052602060002090600602016003015482828151811061101657fe5b6020026020010181815250508080600101915050610d2c565b50838383839850985098509850505050505090919293565b60008160405160200161105a9190613b47565b604051602081830303815290604052805190602001209050919050565b6001818154811061108457fe5b9060005260206000209060040201600091509050806000018054600181600116156101000203166002900480601f0160208091040260200160405190810160405280929190818152602001828054600181600116156101000203166002900480156111305780601f1061110557610100808354040283529160200191611130565b820191906000526020600020905b81548152906001019060200180831161111357829003601f168201915b5050505050908060010154908060020160009054906101000a900473ffffffffffffffffffffffffffffffffffffffff16908060030154905084565b8160006002600061117c84611047565b81526020019081526020016000205414156111cc576040517f08c379a00000000000000000000000000000000000000000000000000000000081526004016111c390613e2c565b60405180910390fd5b826000600260006111dc84611047565b81526020019081526020016000205490503373ffffffffffffffffffffffffffffffffffffffff166001828154811061121157fe5b906000526020600020906004020160020160009054906101000a900473ffffffffffffffffffffffffffffffffffffffff1673ffffffffffffffffffffffffffffffffffffffff1614611299576040517f08c379a000000000000000000000000000000000000000000000000000000000815260040161129090613e6c565b60405180910390fd5b6000600260006112a888611047565b81526020019081526020016000205490506000600182815481106112c857fe5b906000526020600020906004020160020160009054906101000a900473ffffffffffffffffffffffffffffffffffffffff1690506000600360008373ffffffffffffffffffffffffffffffffffffffff1673ffffffffffffffffffffffffffffffffffffffff168152602001908152602001600020905060006001848154811061134e57fe5b90600052602060002090600402016003015490508160018380549050038154811061137557fe5b906000526020600020015482828154811061138c57fe5b9060005260206000200181905550818054809190600190036113ae91906130d2565b5080828054905011156113fb5760008282815481106113c957fe5b9060005260206000200154905081600182815481106113e457fe5b906000526020600020906004020160030181905550505b6000600360008a73ffffffffffffffffffffffffffffffffffffffff1673ffffffffffffffffffffffffffffffffffffffff168152602001908152602001600020905080859080600181540180825580915050906001820390600052602060002001600090919290919091505550886001868154811061147757fe5b906000526020600020906004020160020160006101000a81548173ffffffffffffffffffffffffffffffffffffffff021916908373ffffffffffffffffffffffffffffffffffffffff1602179055506001818054905003600186815481106114db57fe5b9060005260206000209060040201600301819055508873ffffffffffffffffffffffffffffffffffffffff168a6040516115159190613b47565b60405180910390207fcd8f5abec842d059bf95d565c28ea51a16469b7efa4e879e834c1f55b9ea052660405160405180910390a350505050505050505050565b60608060606000806000600560008881526020019081526020016000205490506004818154811061158257fe5b9060005260206000209060060201600001600482815481106115a057fe5b9060005260206000209060060201600101600483815481106115be57fe5b9060005260206000209060060201600201600484815481106115dc57fe5b906000526020600020906006020160030154600485815481106115fb57fe5b906000526020600020906006020160040160009054906101000a900473ffffffffffffffffffffffffffffffffffffffff16848054600181600116156101000203166002900480601f0160208091040260200160405190810160405280929190818152602001828054600181600116156101000203166002900480156116c25780601f10611697576101008083540402835291602001916116c2565b820191906000526020600020905b8154815290600101906020018083116116a557829003601f168201915b50505050509450838054600181600116156101000203166002900480601f01602080910402602001604051908101604052809291908181526020018280546001816001161561010002031660029004801561175e5780601f106117335761010080835404028352916020019161175e565b820191906000526020600020905b81548152906001019060200180831161174157829003601f168201915b50505050509350828054600181600116156101000203166002900480601f0160208091040260200160405190810160405280929190818152602001828054600181600116156101000203166002900480156117fa5780601f106117cf576101008083540402835291602001916117fa565b820191906000526020600020905b8154815290600101906020018083116117dd57829003601f168201915b50505050509250955095509550955095505091939590929450565b6000600180549050905090565b6000809054906101000a900473ffffffffffffffffffffffffffffffffffffffff1673ffffffffffffffffffffffffffffffffffffffff163373ffffffffffffffffffffffffffffffffffffffff16146118b1576040517f08c379a00000000000000000000000000000000000000000000000000000000081526004016118a890613f0c565b60405180910390fd5b6000809054906101000a900473ffffffffffffffffffffffffffffffffffffffff1673ffffffffffffffffffffffffffffffffffffffff16ff5b600481815481106118f857fe5b9060005260206000209060060201600091509050806000018054600181600116156101000203166002900480601f0160208091040260200160405190810160405280929190818152602001828054600181600116156101000203166002900480156119a45780601f10611979576101008083540402835291602001916119a4565b820191906000526020600020905b81548152906001019060200180831161198757829003601f168201915b505050505090806001018054600181600116156101000203166002900480601f016020809104026020016040519081016040528092919081815260200182805460018160011615610100020316600290048015611a425780601f10611a1757610100808354040283529160200191611a42565b820191906000526020600020905b815481529060010190602001808311611a2557829003601f168201915b505050505090806002018054600181600116156101000203166002900480601f016020809104026020016040519081016040528092919081815260200182805460018160011615610100020316600290048015611ae05780601f10611ab557610100808354040283529160200191611ae0565b820191906000526020600020905b815481529060010190602001808311611ac357829003601f168201915b5050505050908060030154908060040160009054906101000a900473ffffffffffffffffffffffffffffffffffffffff16908060050154905086565b6000600480549050905090565b6060806000600784604051611b3e9190613b47565b908152602001604051809103902054905060048181548110611b5c57fe5b906000526020600020906006020160010160048281548110611b7a57fe5b9060005260206000209060060201600001818054600181600116156101000203166002900480601f016020809104026020016040519081016040528092919081815260200182805460018160011615610100020316600290048015611c205780601f10611bf557610100808354040283529160200191611c20565b820191906000526020600020905b815481529060010190602001808311611c0357829003601f168201915b50505050509150808054600181600116156101000203166002900480601f016020809104026020016040519081016040528092919081815260200182805460018160011615610100020316600290048015611cbc5780601f10611c9157610100808354040283529160200191611cbc565b820191906000526020600020905b815481529060010190602001808311611c9f57829003601f168201915b505050505090509250925050915091565b60066020528160005260406000208181548110611ce657fe5b90600052602060002001600091509150505481565b80600281511015611d41576040517f08c379a0000000000000000000000000000000000000000000000000000000008152600401611d3890613eec565b60405180910390fd5b81600581511115611d87576040517f08c379a0000000000000000000000000000000000000000000000000000000008152600401611d7e90613e8c565b60405180910390fd5b82600060026000611d9784611047565b81526020019081526020016000205414611de6576040517f08c379a0000000000000000000000000000000000000000000000000000000008152600401611ddd90613f4c565b60405180910390fd5b611dee6130fe565b60405180608001604052808681526020016301e13380420181526020013373ffffffffffffffffffffffffffffffffffffffff168152602001600360003373ffffffffffffffffffffffffffffffffffffffff1673ffffffffffffffffffffffffffffffffffffffff168152602001908152602001600020805490508152509050600181908060018154018082558091505090600182039060005260206000209060040201600090919290919091506000820151816000019080519060200190611eb992919061313c565b506020820151816001015560408201518160020160006101000a81548173ffffffffffffffffffffffffffffffffffffffff021916908373ffffffffffffffffffffffffffffffffffffffff160217905550606082015181600301555050506000600180805490500390508060026000611f3289611047565b81526020019081526020016000208190555060036000836040015173ffffffffffffffffffffffffffffffffffffffff1673ffffffffffffffffffffffffffffffffffffffff1681526020019081526020016000208190806001815401808255809150509060018203906000526020600020016000909192909190915055503373ffffffffffffffffffffffffffffffffffffffff1686604051611fd69190613b47565b60405180910390207f9cb5f30bc9eb4f94c43c2cc17102ca67de1142f60f8cd49d5515fa46643af45d60405160405180910390a3505050505050565b60008282604051602001612027929190613b5e565b60405160208183030381529060405280519060200120905092915050565b82826000600560006120578585612012565b81526020019081526020016000205414156120a7576040517f08c379a000000000000000000000000000000000000000000000000000000000815260040161209e90613eac565b60405180910390fd5b84846000600560006120b98585612012565b81526020019081526020016000205490503373ffffffffffffffffffffffffffffffffffffffff16600482815481106120ee57fe5b906000526020600020906006020160040160009054906101000a900473ffffffffffffffffffffffffffffffffffffffff1673ffffffffffffffffffffffffffffffffffffffff1614612176576040517f08c379a000000000000000000000000000000000000000000000000000000000815260040161216d90613e4c565b60405180910390fd5b6000600560006121868b8b612012565b81526020019081526020016000205490506000600482815481106121a657fe5b906000526020600020906006020160040160009054906101000a900473ffffffffffffffffffffffffffffffffffffffff1690506000600660008373ffffffffffffffffffffffffffffffffffffffff1673ffffffffffffffffffffffffffffffffffffffff168152602001908152602001600020905060006004848154811061222c57fe5b90600052602060002090600602016005015490508160018380549050038154811061225357fe5b906000526020600020015482828154811061226a57fe5b90600052602060002001819055508180548091906001900361228c91906130d2565b5080828054905011156122d95760008282815481106122a757fe5b9060005260206000200154905081600482815481106122c257fe5b906000526020600020906006020160050181905550505b6000600660008c73ffffffffffffffffffffffffffffffffffffffff1673ffffffffffffffffffffffffffffffffffffffff1681526020019081526020016000209050808590806001815401808255809150509060018203906000526020600020016000909192909190915055508a6004868154811061235557fe5b906000526020600020906006020160040160006101000a81548173ffffffffffffffffffffffffffffffffffffffff021916908373ffffffffffffffffffffffffffffffffffffffff1602179055506001818054905003600486815481106123b957fe5b9060005260206000209060060201600501819055508a73ffffffffffffffffffffffffffffffffffffffff168c6040516123f39190613b47565b60405180910390208e6040516124099190613b47565b60405180910390207f580153e10b2fd0b12048622087eafb607484cc844419604d8c484b819d08ef5060405160405180910390a450505050505050505050505050565b606082826000600560006124608585612012565b81526020019081526020016000205414156124b0576040517f08c379a00000000000000000000000000000000000000000000000000000000081526004016124a790613eac565b60405180910390fd5b60006124bc8686612012565b9050600060056000838152602001908152602001600020549050600481815481106124e357fe5b90600052602060002090600602016002018054600181600116156101000203166002900480601f0160208091040260200160405190810160405280929190818152602001828054600181600116156101000203166002900480156125885780601f1061255d57610100808354040283529160200191612588565b820191906000526020600020905b81548152906001019060200180831161256b57829003601f168201915b505050505094505050505092915050565b6000809054906101000a900473ffffffffffffffffffffffffffffffffffffffff1681565b6060600080600060026000868152602001908152602001600020549050600181815481106125e857fe5b90600052602060002090600402016000016001828154811061260657fe5b9060005260206000209060040201600101546001838154811061262557fe5b906000526020600020906004020160020160009054906101000a900473ffffffffffffffffffffffffffffffffffffffff16828054600181600116156101000203166002900480601f0160208091040260200160405190810160405280929190818152602001828054600181600116156101000203166002900480156126ec5780601f106126c1576101008083540402835291602001916126ec565b820191906000526020600020905b8154815290600101906020018083116126cf57829003601f168201915b50505050509250935093509350509193909250565b60056020528060005260406000206000915090505481565b6000806002600061272985611047565b815260200190815260200160002054905060006001828154811061274957fe5b90600052602060002090600402016000018054600181600116156101000203166002900490501415915050919050565b6060806060600360003373ffffffffffffffffffffffffffffffffffffffff1673ffffffffffffffffffffffffffffffffffffffff16815260200190815260200160002080548060200260200160405190810160405280929190818152602001828054801561280757602002820191906000526020600020905b8154815260200190600101908083116127f3575b505050505090506060815160405190808252806020026020018201604052801561284557816020015b60608152602001906001900390816128305790505b5090506060825160405190808252806020026020018201604052801561287a5781602001602082028038833980820191505090505b50905060008090505b83518110156129c457600184828151811061289a57fe5b6020026020010151815481106128ac57fe5b90600052602060002090600402016000018054600181600116156101000203166002900480601f0160208091040260200160405190810160405280929190818152602001828054600181600116156101000203166002900480156129515780601f1061292657610100808354040283529160200191612951565b820191906000526020600020905b81548152906001019060200180831161293457829003601f168201915b505050505083828151811061296257fe5b6020026020010181905250600184828151811061297b57fe5b60200260200101518154811061298d57fe5b9060005260206000209060040201600101548282815181106129ab57fe5b6020026020010181815250508080600101915050612883565b508181945094505050509091565b600080600560006129e38686612012565b8152602001908152602001600020549050600060048281548110612a0357fe5b9060005260206000209060060201600001805460018160011615610100020316600290049050141591505092915050565b60026020528060005260406000206000915090505481565b81600281511015612a92576040517f08c379a0000000000000000000000000000000000000000000000000000000008152600401612a8990613eec565b60405180910390fd5b82600581511115612ad8576040517f08c379a0000000000000000000000000000000000000000000000000000000008152600401612acf90613e8c565b60405180910390fd5b83600060026000612ae884611047565b8152602001908152602001600020541415612b38576040517f08c379a0000000000000000000000000000000000000000000000000000000008152600401612b2f90613e2c565b60405180910390fd5b85600381511015612b7e576040517f08c379a0000000000000000000000000000000000000000000000000000000008152600401612b7590613f2c565b60405180910390fd5b8686600060056000612b908585612012565b81526020019081526020016000205414612bdf576040517f08c379a0000000000000000000000000000000000000000000000000000000008152600401612bd690613ecc565b60405180910390fd5b6000612beb8a8a612012565b90506000600660003373ffffffffffffffffffffffffffffffffffffffff1673ffffffffffffffffffffffffffffffffffffffff1681526020019081526020016000209050600081805490509050600060048054905090508060056000868152602001908152602001600020819055508060078c604051612c6c9190613b47565b908152602001604051809103902081905550612c866131bc565b6040518060c001604052808f81526020018e81526020018d81526020016301e13380420181526020013373ffffffffffffffffffffffffffffffffffffffff168152602001848152509050600481908060018154018082558091505090600182039060005260206000209060060201600090919290919091506000820151816000019080519060200190612d1b92919061313c565b506020820151816001019080519060200190612d3892919061313c565b506040820151816002019080519060200190612d5592919061313c565b506060820151816003015560808201518160040160006101000a81548173ffffffffffffffffffffffffffffffffffffffff021916908373ffffffffffffffffffffffffffffffffffffffff16021790555060a08201518160050155505050838290806001815401808255809150509060018203906000526020600020016000909192909190915055503373ffffffffffffffffffffffffffffffffffffffff168d604051612e049190613b47565b60405180910390208f604051612e1a9190613b47565b60405180910390207f8e1353a1c19c0496b7461bad8f9954f50411bb95889443e6e2737ad821cd70ef60405160405180910390a45050505050505050505050505050565b80600060026000612e6e84611047565b8152602001908152602001600020541415612ebe576040517f08c379a0000000000000000000000000000000000000000000000000000000008152600401612eb590613e2c565b60405180910390fd5b81600060026000612ece84611047565b81526020019081526020016000205490503373ffffffffffffffffffffffffffffffffffffffff1660018281548110612f0357fe5b906000526020600020906004020160020160009054906101000a900473ffffffffffffffffffffffffffffffffffffffff1673ffffffffffffffffffffffffffffffffffffffff1614612f8b576040517f08c379a0000000000000000000000000000000000000000000000000000000008152600401612f8290613e6c565b60405180910390fd5b600060026000612f9a87611047565b8152602001908152602001600020549050600060018281548110612fba57fe5b906000526020600020906004020160010154905060006301e13380820190508060018481548110612fe757fe5b9060005260206000209060040201600101819055508660405161300a9190613b47565b60405180910390207f9af0026a3ecf9b0730f1fb6825130dc91b04ffda2c0d00f2e5ded9ca5a70fbc5826040516130419190613f6c565b60405180910390a250505050505050565b828054600181600116156101000203166002900490600052602060002090601f016020900481019282601f1061309357805160ff19168380011785556130c1565b828001600101855582156130c1579182015b828111156130c05782518255916020019190600101906130a5565b5b5090506130ce9190613208565b5090565b8154818355818111156130f9578183600052602060002091820191016130f89190613208565b5b505050565b60405180608001604052806060815260200160008152602001600073ffffffffffffffffffffffffffffffffffffffff168152602001600081525090565b828054600181600116156101000203166002900490600052602060002090601f016020900481019282601f1061317d57805160ff19168380011785556131ab565b828001600101855582156131ab579182015b828111156131aa57825182559160200191906001019061318f565b5b5090506131b89190613208565b5090565b6040518060c0016040528060608152602001606081526020016060815260200160008152602001600073ffffffffffffffffffffffffffffffffffffffff168152602001600081525090565b61322a91905b8082111561322657600081600090555060010161320e565b5090565b90565b60008135905061323c81614178565b92915050565b6000813590506132518161418f565b92915050565b600082601f83011261326857600080fd5b813561327b61327682613fb4565b613f87565b9150808252602083016020830185838301111561329757600080fd5b6132a2838284614125565b50505092915050565b600082601f8301126132bc57600080fd5b81356132cf6132ca82613fe0565b613f87565b915080825260208301602083018583830111156132eb57600080fd5b6132f6838284614125565b50505092915050565b60008135905061330e816141a6565b92915050565b6000806040838503121561332757600080fd5b60006133358582860161322d565b9250506020613346858286016132ff565b9150509250929050565b60006020828403121561336257600080fd5b600061337084828501613242565b91505092915050565b60006020828403121561338b57600080fd5b600082013567ffffffffffffffff8111156133a557600080fd5b6133b184828501613257565b91505092915050565b6000602082840312156133cc57600080fd5b600082013567ffffffffffffffff8111156133e657600080fd5b6133f2848285016132ab565b91505092915050565b6000806040838503121561340e57600080fd5b600083013567ffffffffffffffff81111561342857600080fd5b613434858286016132ab565b92505060206134458582860161322d565b9150509250929050565b6000806040838503121561346257600080fd5b600083013567ffffffffffffffff81111561347c57600080fd5b613488858286016132ab565b925050602083013567ffffffffffffffff8111156134a557600080fd5b6134b1858286016132ab565b9150509250929050565b6000806000606084860312156134d057600080fd5b600084013567ffffffffffffffff8111156134ea57600080fd5b6134f6868287016132ab565b935050602084013567ffffffffffffffff81111561351357600080fd5b61351f868287016132ab565b92505060406135308682870161322d565b9150509250925092565b60008060006060848603121561354f57600080fd5b600084013567ffffffffffffffff81111561356957600080fd5b613575868287016132ab565b935050602084013567ffffffffffffffff81111561359257600080fd5b61359e868287016132ab565b925050604084013567ffffffffffffffff8111156135bb57600080fd5b6135c7868287016132ab565b9150509250925092565b6000602082840312156135e357600080fd5b60006135f1848285016132ff565b91505092915050565b6000613606838361379f565b905092915050565b600061361a8383613b29565b60208301905092915050565b61362f816140d3565b82525050565b61363e816140c1565b82525050565b600061364f8261402c565b6136598185614072565b93508360208202850161366b8561400c565b8060005b858110156136a7578484038952815161368885826135fa565b945061369383614058565b925060208a0199505060018101905061366f565b50829750879550505050505092915050565b60006136c482614037565b6136ce8185614083565b93506136d98361401c565b8060005b8381101561370a5781516136f1888261360e565b97506136fc83614065565b9250506001810190506136dd565b5085935050505092915050565b613720816140e5565b82525050565b61372f816140f1565b82525050565b60006137408261404d565b61374a81856140a5565b935061375a818560208601614134565b61376381614167565b840191505092915050565b60006137798261404d565b61378381856140b6565b9350613793818560208601614134565b80840191505092915050565b60006137aa82614042565b6137b48185614094565b93506137c4818560208601614134565b6137cd81614167565b840191505092915050565b60006137e382614042565b6137ed81856140a5565b93506137fd818560208601614134565b61380681614167565b840191505092915050565b600061381e601c836140a5565b91507f746f7020646f6d61696e206973206e6f742072656769737465726564000000006000830152602082019050919050565b600061385e6017836140a5565b91507f74686973206973206e6f7420796f757220646f6d61696e0000000000000000006000830152602082019050919050565b600061389e601b836140a5565b91507f74686973206973206e6f7420796f757220746f7020646f6d61696e00000000006000830152602082019050919050565b60006138de6025836140a5565b91507f746f7020646f6d61696e206e616d65206d6178206c656e67746820697320696e60008301527f76616c69640000000000000000000000000000000000000000000000000000006020830152604082019050919050565b60006139446018836140a5565b91507f646f6d61696e206973206e6f74207265676973746572656400000000000000006000830152602082019050919050565b6000613984601c836140a5565b91507f646f6d61696e20697320616c72656164792072656769737465726564000000006000830152602082019050919050565b60006139c46025836140a5565b91507f746f7020646f6d61696e206e616d65206d696e206c656e67746820697320696e60008301527f76616c69640000000000000000000000000000000000000000000000000000006020830152604082019050919050565b6000613a2a602e836140a5565b91507f6f6e6c792074686520636f6e7472616374206f776e65722063616e206b696c6c60008301527f207468697320636f6e74726163740000000000000000000000000000000000006020830152604082019050919050565b6000613a906021836140a5565b91507f646f6d61696e206e616d65206d696e206c656e67746820697320696e76616c6960008301527f64000000000000000000000000000000000000000000000000000000000000006020830152604082019050919050565b6000613af66020836140a5565b91507f746f7020646f6d61696e20697320616c726561647920726567697374657265646000830152602082019050919050565b613b328161411b565b82525050565b613b418161411b565b82525050565b6000613b53828461376e565b915081905092915050565b6000613b6a828561376e565b9150613b76828461376e565b91508190509392505050565b6000602082019050613b976000830184613626565b92915050565b60006080820190508181036000830152613bb78187613644565b90508181036020830152613bcb8186613644565b90508181036040830152613bdf8185613644565b90508181036060830152613bf381846136b9565b905095945050505050565b60006040820190508181036000830152613c188185613644565b90508181036020830152613c2c81846136b9565b90509392505050565b6000602082019050613c4a6000830184613717565b92915050565b6000602082019050613c656000830184613726565b92915050565b60006020820190508181036000830152613c858184613735565b905092915050565b60006040820190508181036000830152613ca78185613735565b90508181036020830152613cbb8184613735565b90509392505050565b600060a0820190508181036000830152613cde8188613735565b90508181036020830152613cf28187613735565b90508181036040830152613d068186613735565b9050613d156060830185613b38565b613d226080830184613635565b9695505050505050565b60006060820190508181036000830152613d468186613735565b9050613d556020830185613b38565b613d626040830184613635565b949350505050565b600060c0820190508181036000830152613d8481896137d8565b90508181036020830152613d9881886137d8565b90508181036040830152613dac81876137d8565b9050613dbb6060830186613b38565b613dc86080830185613635565b613dd560a0830184613b38565b979650505050505050565b60006080820190508181036000830152613dfa81876137d8565b9050613e096020830186613b38565b613e166040830185613635565b613e236060830184613b38565b95945050505050565b60006020820190508181036000830152613e4581613811565b9050919050565b60006020820190508181036000830152613e6581613851565b9050919050565b60006020820190508181036000830152613e8581613891565b9050919050565b60006020820190508181036000830152613ea5816138d1565b9050919050565b60006020820190508181036000830152613ec581613937565b9050919050565b60006020820190508181036000830152613ee581613977565b9050919050565b60006020820190508181036000830152613f05816139b7565b9050919050565b60006020820190508181036000830152613f2581613a1d565b9050919050565b60006020820190508181036000830152613f4581613a83565b9050919050565b60006020820190508181036000830152613f6581613ae9565b9050919050565b6000602082019050613f816000830184613b38565b92915050565b6000604051905081810181811067ffffffffffffffff82111715613faa57600080fd5b8060405250919050565b600067ffffffffffffffff821115613fcb57600080fd5b601f19601f8301169050602081019050919050565b600067ffffffffffffffff821115613ff757600080fd5b601f19601f8301169050602081019050919050565b6000819050602082019050919050565b6000819050602082019050919050565b600081519050919050565b600081519050919050565b600081519050919050565b600081519050919050565b6000602082019050919050565b6000602082019050919050565b600082825260208201905092915050565b600082825260208201905092915050565b600082825260208201905092915050565b600082825260208201905092915050565b600081905092915050565b60006140cc826140fb565b9050919050565b60006140de826140fb565b9050919050565b60008115159050919050565b6000819050919050565b600073ffffffffffffffffffffffffffffffffffffffff82169050919050565b6000819050919050565b82818337600083830152505050565b60005b83811015614152578082015181840152602081019050614137565b83811115614161576000848401525b50505050565b6000601f19601f8301169050919050565b614181816140c1565b811461418c57600080fd5b50565b614198816140f1565b81146141a357600080fd5b50565b6141af8161411b565b81146141ba57600080fd5b5056fea365627a7a72315820ceca68ca9c440b83113f9e91d7106ff4c7429576218c62b592e47e25d8aa763f6c6578706572696d656e74616cf564736f6c634300050b0040",
  "source": "pragma solidity ^0.5.11;\r\npragma experimental ABIEncoderV2;\r\n\r\ncontract JanusNameService {\r\n\r\n    address payable public contractOwner;\r\n\r\n    uint constant TOP_DOMAIN_NAME_MIN_LENGTH = 2;\r\n    uint constant TOP_DOMAIN_NAME_MAX_LENGTH = 5;\r\n    uint constant TOP_DOMAIN_EXPIRATION_DAYS = 365 days;\r\n\r\n    uint constant DOMAIN_EXPIRATION_DAYS = 365 days;\r\n    uint constant DOMAIN_NAME_MIN_LENGTH = 3;\r\n\r\n    struct TopDomain {\r\n        string name;\r\n        uint expires;\r\n        address owner;\r\n        uint ownerIndex;\r\n    }\r\n\r\n    struct Domain {\r\n        string name;\r\n        string topDomain;\r\n        string storageHash;\r\n        uint expires;\r\n        address owner;\r\n        uint ownerIndex;\r\n    }\r\n\r\n    TopDomain[] public topDomains;\r\n    mapping(bytes32 => uint) public topDomainsHashMap;\r\n    mapping(address => uint[]) public topDomainsOwnerMap;\r\n\r\n    Domain[] public domains;\r\n    mapping(bytes32 => uint) public domainsHashMap;\r\n    mapping(address => uint[]) public domainsOwnerMap;\r\n    mapping(string => uint) public domainsStorageHash;\r\n\r\n    constructor () public{\r\n        contractOwner = msg.sender;\r\n        topDomains.push(TopDomain('', 0, address(0x0), 0));\r\n        domains.push(Domain('', '', '', 0, address(0x0), 0));\r\n    }\r\n\r\n    function kill() external {\r\n        require(msg.sender == contractOwner, 'only the contract owner can kill this contract');\r\n        selfdestruct(contractOwner);\r\n    }\r\n\r\n    modifier isTopDomainNameMinLengthValid(\r\n        string memory _topDomainName\r\n    )\r\n    {\r\n        require(\r\n            bytes(_topDomainName).length >= TOP_DOMAIN_NAME_MIN_LENGTH,\r\n            'top domain name min length is invalid'\r\n        );\r\n        _;\r\n    }\r\n\r\n    modifier isTopDomainNameMaxLengthValid(\r\n        string memory _topDomainName\r\n    )\r\n    {\r\n        require(\r\n            bytes(_topDomainName).length <= TOP_DOMAIN_NAME_MAX_LENGTH,\r\n            'top domain name max length is invalid'\r\n        );\r\n        _;\r\n    }\r\n\r\n    modifier isTopDomainRegistered(\r\n        string memory _topDomainName\r\n    )\r\n    {\r\n        require(\r\n            topDomainsHashMap[getTopDomainHash(_topDomainName)] != 0,\r\n            'top domain is not registered'\r\n        );\r\n        _;\r\n    }\r\n\r\n    modifier isTopDomainNotRegistered(\r\n        string memory _topDomainName\r\n    )\r\n    {\r\n        require(\r\n            topDomainsHashMap[getTopDomainHash(_topDomainName)] == 0,\r\n            'top domain is already registered'\r\n        );\r\n        _;\r\n    }\r\n\r\n    modifier isTopDomainOwner(\r\n        string memory _topDomainName\r\n    )\r\n    {\r\n        uint index = topDomainsHashMap[getTopDomainHash(_topDomainName)];\r\n        require(\r\n            topDomains[index].owner == msg.sender,\r\n            'this is not your top domain'\r\n        );\r\n        _;\r\n    }\r\n\r\n    modifier isDomainNameMinLengthValid(\r\n        string memory _domainName\r\n    )\r\n    {\r\n        require(\r\n            bytes(_domainName).length >= DOMAIN_NAME_MIN_LENGTH,\r\n            'domain name min length is invalid'\r\n        );\r\n        _;\r\n    }\r\n\r\n    modifier isDomainNotRegistered(\r\n        string memory _domainName,\r\n        string memory _topDomainName\r\n    )\r\n    {\r\n        require(\r\n            domainsHashMap[getCompleteDomainHash(_domainName,_topDomainName)] == 0,\r\n            'domain is already registered'\r\n        );\r\n        _;\r\n    }\r\n\r\n    modifier isDomainRegistered(\r\n         string memory _domainName,\r\n         string memory _topDomainName\r\n    )\r\n    {\r\n        require(\r\n            domainsHashMap[getCompleteDomainHash(_domainName, _topDomainName)] != 0,\r\n            'domain is not registered'\r\n        );\r\n        _;\r\n    }\r\n\r\n    modifier isDomainOwner(\r\n         string memory _domainName,\r\n         string memory _topDomainName\r\n    )\r\n    {\r\n        uint index = domainsHashMap[getCompleteDomainHash(_domainName, _topDomainName)];\r\n        require(\r\n            domains[index].owner == msg.sender,\r\n            'this is not your domain'\r\n        );\r\n        _;\r\n    }\r\n\r\n    event TopDomainRegistered(\r\n        string indexed topDomainName,\r\n        address indexed owner\r\n    );\r\n\r\n    event TopDomainOwnershipChanged(\r\n        string indexed topDomainName,\r\n        address indexed newOwner\r\n    );\r\n\r\n    event TopDomainRenewed(\r\n        string indexed topDomainName,\r\n        uint newExpire\r\n    );\r\n\r\n    event DomainRegistered(\r\n        string indexed domainName,\r\n        string indexed topDomainName,\r\n        address indexed owner\r\n    );\r\n\r\n    event DomainOwnershipChanged(\r\n        string indexed domainName,\r\n        string indexed topDomainName,\r\n        address indexed newOwner\r\n    );\r\n\r\n    event DomainStorageHashUpdated(\r\n        string indexed domainName,\r\n        string indexed topDomainName,\r\n        string storageHash\r\n    );\r\n\r\n    event DomainRenewed(\r\n        string indexed domainName,\r\n        string indexed topDomainName,\r\n        uint newExpire\r\n    );\r\n\r\n    function registerTopDomain(\r\n        string memory _topDomainName\r\n    ) public\r\n        isTopDomainNameMinLengthValid(_topDomainName)\r\n        isTopDomainNameMaxLengthValid(_topDomainName)\r\n        isTopDomainNotRegistered(_topDomainName)\r\n      payable\r\n    {\r\n        TopDomain memory newTopDomain = TopDomain({\r\n            name: _topDomainName,\r\n            expires: now + TOP_DOMAIN_EXPIRATION_DAYS,\r\n            owner: msg.sender,\r\n            ownerIndex: topDomainsOwnerMap[msg.sender].length\r\n        });\r\n\r\n        topDomains.push(newTopDomain);\r\n\r\n        uint topDomainsIndex = topDomains.length - 1;\r\n\r\n        topDomainsHashMap[getTopDomainHash(_topDomainName)] = topDomainsIndex;\r\n        topDomainsOwnerMap[newTopDomain.owner].push(topDomainsIndex);\r\n\r\n        emit TopDomainRegistered(_topDomainName, msg.sender);\r\n    }\r\n\r\n    function getAllTopDomainsByOwner() public view returns (string[] memory name, uint[] memory expires)\r\n    {\r\n        uint[] memory indexes = topDomainsOwnerMap[msg.sender];\r\n        string[] memory resultName = new string[](indexes.length);\r\n        uint[] memory resultExpire = new uint[](indexes.length);\r\n\r\n        for(uint i = 0; i < indexes.length; i++){\r\n            resultName[i] = topDomains[indexes[i]].name;\r\n            resultExpire[i] = topDomains[indexes[i]].expires;\r\n        }\r\n\r\n        return (resultName, resultExpire);\r\n    }\r\n\r\n    function getTopDomainByHash(\r\n        bytes32 _hash\r\n    ) public view returns (string memory name, uint expires, address owner)\r\n    {\r\n        uint index = topDomainsHashMap[_hash];\r\n        return (topDomains[index].name, topDomains[index].expires, topDomains[index].owner);\r\n    }\r\n\r\n    function getTopDomainHash(\r\n        string memory _topDomainName\r\n    ) public pure returns (bytes32)\r\n    {\r\n        return keccak256(abi.encodePacked(_topDomainName));\r\n    }\r\n\r\n    function changeTopDomainOwnership(\r\n        string memory _topDomainName,\r\n        address _newOwner\r\n    ) public\r\n        isTopDomainRegistered(_topDomainName)\r\n        isTopDomainOwner(_topDomainName)\r\n      payable\r\n    {\r\n        uint index = topDomainsHashMap[getTopDomainHash(_topDomainName)];\r\n        address currentOwner = topDomains[index].owner;\r\n\r\n        // Delete from current owner\r\n        uint[] storage currentOwnerTopDomainList = topDomainsOwnerMap[currentOwner];\r\n        uint indexToOverwrite = topDomains[index].ownerIndex;\r\n        currentOwnerTopDomainList[indexToOverwrite] =\r\n            currentOwnerTopDomainList[currentOwnerTopDomainList.length - 1];\r\n        currentOwnerTopDomainList.length--;\r\n\r\n        // Update references to the moved element if needed\r\n        if (currentOwnerTopDomainList.length > indexToOverwrite) {\r\n            uint movedIndex = currentOwnerTopDomainList[indexToOverwrite];\r\n            topDomains[movedIndex].ownerIndex = indexToOverwrite;\r\n        }\r\n\r\n        // Update references to the new owner\r\n        uint[] storage newOwnerTopDomainList = topDomainsOwnerMap[_newOwner];\r\n        newOwnerTopDomainList.push(index);\r\n        topDomains[index].owner = _newOwner;\r\n        topDomains[index].ownerIndex = newOwnerTopDomainList.length - 1;\r\n\r\n        emit TopDomainOwnershipChanged(_topDomainName, _newOwner);\r\n    }\r\n\r\n    function renewTopDomain(\r\n        string memory _topDomainName\r\n    ) public\r\n        isTopDomainRegistered(_topDomainName)\r\n        isTopDomainOwner(_topDomainName)\r\n      payable\r\n    {\r\n        uint index = topDomainsHashMap[getTopDomainHash(_topDomainName)];\r\n        uint topDomainExpireDate = topDomains[index].expires;\r\n        uint newExpireDate = topDomainExpireDate + TOP_DOMAIN_EXPIRATION_DAYS;\r\n        topDomains[index].expires = newExpireDate;\r\n\r\n        emit TopDomainRenewed(_topDomainName, newExpireDate);\r\n    }\r\n\r\n    function topDomainAlreadyRegistered(\r\n        string memory _topDomainName\r\n    ) public view returns(bool)\r\n    {\r\n        uint index = topDomainsHashMap[getTopDomainHash(_topDomainName)];\r\n        return bytes(topDomains[index].name).length != 0;\r\n    }\r\n\r\n    function getTopDomainsLength() public view returns (uint)\r\n    {\r\n        return topDomains.length;\r\n    }\r\n\r\n    function registerDomain(\r\n        string memory _domainName,\r\n        string memory _topDomainName,\r\n        string memory _storageHash\r\n    ) public\r\n        isTopDomainNameMinLengthValid(_topDomainName)\r\n        isTopDomainNameMaxLengthValid(_topDomainName)\r\n        isTopDomainRegistered(_topDomainName)\r\n        isDomainNameMinLengthValid(_domainName)\r\n        isDomainNotRegistered(_domainName, _topDomainName)\r\n      payable\r\n    {\r\n        bytes32 domainCompleteHash = getCompleteDomainHash(_domainName, _topDomainName);\r\n        uint[] storage ownerDomainList = domainsOwnerMap[msg.sender];\r\n\r\n        uint ownerDomainListIndex = ownerDomainList.length;\r\n        uint domainsIndex = domains.length;\r\n\r\n        domainsHashMap[domainCompleteHash] = domainsIndex;\r\n        domainsStorageHash[_storageHash] = domainsIndex;\r\n\r\n        Domain memory newDomain = Domain({\r\n            name: _domainName,\r\n            topDomain: _topDomainName,\r\n            storageHash: _storageHash,\r\n            expires: now + DOMAIN_EXPIRATION_DAYS,\r\n            owner: msg.sender,\r\n            ownerIndex: ownerDomainListIndex\r\n        });\r\n\r\n        domains.push(newDomain);\r\n        ownerDomainList.push(domainsIndex);\r\n\r\n        emit DomainRegistered(_domainName, _topDomainName, msg.sender);\r\n    }\r\n\r\n    function getStorageHashByDomain(\r\n        string memory _domainName,\r\n        string memory _topDomainName\r\n    ) public\r\n        isDomainRegistered(_domainName, _topDomainName)\r\n      view returns(string memory)\r\n    {\r\n        bytes32 completeDomainHash = getCompleteDomainHash(_domainName, _topDomainName);\r\n        uint index = domainsHashMap[completeDomainHash];\r\n        return domains[index].storageHash;\r\n    }\r\n\r\n    function updateDomainStorageHash(\r\n        string memory _domainName,\r\n        string memory _topDomainName,\r\n        string memory _storageHash\r\n    ) public\r\n        isDomainRegistered(_domainName, _topDomainName)\r\n        isDomainOwner(_domainName, _topDomainName)\r\n      payable\r\n    {\r\n        bytes32 completeDomainHash = getCompleteDomainHash(_domainName, _topDomainName);\r\n        uint index = domainsHashMap[completeDomainHash];\r\n        domains[index].storageHash = _storageHash;\r\n        domainsStorageHash[_storageHash] = index;\r\n\r\n        emit DomainStorageHashUpdated(_domainName, _topDomainName, _storageHash);\r\n    }\r\n\r\n    function renewDomain(\r\n        string memory _domainName,\r\n        string memory _topDomainName\r\n    ) public\r\n        isDomainRegistered(_domainName, _topDomainName)\r\n        isDomainOwner(_domainName, _topDomainName)\r\n      payable\r\n    {\r\n        uint index = domainsHashMap[getCompleteDomainHash(_domainName, _topDomainName)];\r\n        uint domainExpireDate = domains[index].expires;\r\n        uint newExpireDate = domainExpireDate + DOMAIN_EXPIRATION_DAYS;\r\n        domains[index].expires = newExpireDate;\r\n\r\n        emit DomainRenewed(_domainName, _topDomainName, newExpireDate);\r\n    }\r\n\r\n    function changeDomainOwnership(\r\n        string memory _domainName,\r\n        string memory _topDomainName,\r\n        address _newOwner\r\n    ) public\r\n        isDomainRegistered(_domainName, _topDomainName)\r\n        isDomainOwner(_domainName, _topDomainName)\r\n    {\r\n        uint index = domainsHashMap[getCompleteDomainHash(_domainName, _topDomainName)];\r\n        address currentOwner = domains[index].owner;\r\n\r\n        // Delete from current owner\r\n        uint[] storage currentOwnerDomainList = domainsOwnerMap[currentOwner];\r\n        uint indexToOverwrite = domains[index].ownerIndex;\r\n        currentOwnerDomainList[indexToOverwrite] = currentOwnerDomainList[currentOwnerDomainList.length - 1];\r\n        currentOwnerDomainList.length--;\r\n\r\n        // Update references to the moved element if needed\r\n        if (currentOwnerDomainList.length > indexToOverwrite) {\r\n            uint movedIndex = currentOwnerDomainList[indexToOverwrite];\r\n            domains[movedIndex].ownerIndex = indexToOverwrite;\r\n        }\r\n\r\n        // Update the references to the new owner\r\n        uint[] storage newOwnerDomainList = domainsOwnerMap[_newOwner];\r\n        newOwnerDomainList.push(index);\r\n        domains[index].owner = _newOwner;\r\n        domains[index].ownerIndex = newOwnerDomainList.length - 1;\r\n\r\n        emit DomainOwnershipChanged(_domainName, _topDomainName, _newOwner);\r\n    }\r\n\r\n    function getDomainByHash(\r\n        bytes32 _hash\r\n    ) public view returns (string memory name, string memory topDomain, string memory storageHash, uint expires, address owner)\r\n    {\r\n        uint index = domainsHashMap[_hash];\r\n        return (domains[index].name, domains[index].topDomain, domains[index].storageHash, domains[index].expires, domains[index].owner);\r\n    }\r\n\r\n    function domainAlreadyRegistered(\r\n        string memory _domainName,\r\n        string memory _topDomainName\r\n    ) public view returns(bool)\r\n    {\r\n        uint index = domainsHashMap[getCompleteDomainHash(_domainName,_topDomainName)];\r\n        return bytes(domains[index].name).length != 0;\r\n    }\r\n\r\n    function getDomainsLength() public view returns (uint)\r\n    {\r\n        return domains.length;\r\n    }\r\n\r\n    function getCompleteDomainHash(\r\n        string memory _domainName,\r\n        string memory _topDomainName\r\n    ) public pure returns(bytes32)\r\n    {\r\n        return keccak256(abi.encodePacked(_domainName, _topDomainName));\r\n    }\r\n\r\n    function getAllDomainsByOwner(\r\n    ) public view\r\n        returns (\r\n            string[] memory name,\r\n            string[] memory topDomain,\r\n            string[] memory storageHash,\r\n            uint[] memory expires)\r\n    {\r\n        uint[] memory indexes = domainsOwnerMap[msg.sender];\r\n        string[] memory resultNames = new string[](indexes.length);\r\n        string[] memory resultTopDomains = new string[](indexes.length);\r\n        string[] memory resultStorageHashes = new string[](indexes.length);\r\n        uint[] memory resultExpires = new uint[](indexes.length);\r\n\r\n        for(uint i = 0; i < indexes.length; i++){\r\n            resultNames[i] = domains[indexes[i]].name;\r\n            resultTopDomains[i] = domains[indexes[i]].topDomain;\r\n            resultStorageHashes[i] = domains[indexes[i]].storageHash;\r\n            resultExpires[i] = domains[indexes[i]].expires;\r\n        }\r\n\r\n        return (resultNames, resultTopDomains, resultStorageHashes, resultExpires);\r\n    }\r\n\r\n    function getDomainByStorageHash(\r\n        string memory storageHash\r\n    ) public view\r\n        returns (\r\n            string memory topDomain,\r\n            string memory domain)\r\n    {\r\n        uint index = domainsStorageHash[storageHash];\r\n        return (domains[index].topDomain, domains[index].name);\r\n    }\r\n}\r\n\r\n",
  "sourcePath": "C:/Files/Repo/4cadiagithub/jns/packages/smartcontract/contracts/JanusNameService.sol",
  "compiler": {
    "name": "solc",
    "version": "0.5.11+commit.c082d0b4.Emscripten.clang"
  },
  "schemaVersion": "3.0.16",
  "updatedAt": "2019-10-17T23:20:06.835Z",
  "devdoc": {
    "methods": {}
  },
  "userdoc": {
    "methods": {}
  }
}